{
  "abi": [
    {
      "type": "constructor",
      "inputs": [
        {
          "name": "_weirollWalletImplementation",
          "type": "address",
          "internalType": "address"
        },
        {
          "name": "_protocolFee",
          "type": "uint256",
          "internalType": "uint256"
        },
        {
          "name": "_minimumFrontendFee",
          "type": "uint256",
          "internalType": "uint256"
        },
        {
          "name": "_owner",
          "type": "address",
          "internalType": "address"
        },
        {
          "name": "_pointsFactory",
          "type": "address",
          "internalType": "address"
        }
      ],
      "stateMutability": "payable"
    },
    {
      "type": "function",
      "name": "MIN_FILL_PERCENT",
      "inputs": [],
      "outputs": [
        {
          "name": "",
          "type": "uint256",
          "internalType": "uint256"
        }
      ],
      "stateMutability": "view"
    },
    {
      "type": "function",
      "name": "POINTS_FACTORY",
      "inputs": [],
      "outputs": [
        {
          "name": "",
          "type": "address",
          "internalType": "address"
        }
      ],
      "stateMutability": "view"
    },
    {
      "type": "function",
      "name": "WEIROLL_WALLET_IMPLEMENTATION",
      "inputs": [],
      "outputs": [
        {
          "name": "",
          "type": "address",
          "internalType": "address"
        }
      ],
      "stateMutability": "view"
    },
    {
      "type": "function",
      "name": "cancelAPOffer",
      "inputs": [
        {
          "name": "offer",
          "type": "tuple",
          "internalType": "struct RecipeKernelBase.APOffer",
          "components": [
            {
              "name": "offerID",
              "type": "uint256",
              "internalType": "uint256"
            },
            {
              "name": "targetMarketHash",
              "type": "bytes32",
              "internalType": "bytes32"
            },
            {
              "name": "ap",
              "type": "address",
              "internalType": "address"
            },
            {
              "name": "fundingVault",
              "type": "address",
              "internalType": "address"
            },
            {
              "name": "quantity",
              "type": "uint256",
              "internalType": "uint256"
            },
            {
              "name": "expiry",
              "type": "uint256",
              "internalType": "uint256"
            },
            {
              "name": "incentivesRequested",
              "type": "address[]",
              "internalType": "address[]"
            },
            {
              "name": "incentiveAmountsRequested",
              "type": "uint256[]",
              "internalType": "uint256[]"
            }
          ]
        }
      ],
      "outputs": [],
      "stateMutability": "payable"
    },
    {
      "type": "function",
      "name": "cancelIPOffer",
      "inputs": [
        {
          "name": "offerHash",
          "type": "bytes32",
          "internalType": "bytes32"
        }
      ],
      "outputs": [],
      "stateMutability": "payable"
    },
    {
      "type": "function",
      "name": "claim",
      "inputs": [
        {
          "name": "weirollWallet",
          "type": "address",
          "internalType": "address"
        },
        {
          "name": "incentiveToken",
          "type": "address",
          "internalType": "address"
        },
        {
          "name": "to",
          "type": "address",
          "internalType": "address"
        }
      ],
      "outputs": [],
      "stateMutability": "payable"
    },
    {
      "type": "function",
      "name": "createAPOffer",
      "inputs": [
        {
          "name": "targetMarketHash",
          "type": "bytes32",
          "internalType": "bytes32"
        },
        {
          "name": "fundingVault",
          "type": "address",
          "internalType": "address"
        },
        {
          "name": "quantity",
          "type": "uint256",
          "internalType": "uint256"
        },
        {
          "name": "expiry",
          "type": "uint256",
          "internalType": "uint256"
        },
        {
          "name": "incentivesRequested",
          "type": "address[]",
          "internalType": "address[]"
        },
        {
          "name": "incentiveAmountsRequested",
          "type": "uint256[]",
          "internalType": "uint256[]"
        }
      ],
      "outputs": [
        {
          "name": "offerHash",
          "type": "bytes32",
          "internalType": "bytes32"
        }
      ],
      "stateMutability": "payable"
    },
    {
      "type": "function",
      "name": "createIPOffer",
      "inputs": [
        {
          "name": "targetMarketHash",
          "type": "bytes32",
          "internalType": "bytes32"
        },
        {
          "name": "quantity",
          "type": "uint256",
          "internalType": "uint256"
        },
        {
          "name": "expiry",
          "type": "uint256",
          "internalType": "uint256"
        },
        {
          "name": "incentivesOffered",
          "type": "address[]",
          "internalType": "address[]"
        },
        {
          "name": "incentiveAmountsPaid",
          "type": "uint256[]",
          "internalType": "uint256[]"
        }
      ],
      "outputs": [
        {
          "name": "offerHash",
          "type": "bytes32",
          "internalType": "bytes32"
        }
      ],
      "stateMutability": "payable"
    },
    {
      "type": "function",
      "name": "createMarket",
      "inputs": [
        {
          "name": "inputToken",
          "type": "address",
          "internalType": "address"
        },
        {
          "name": "lockupTime",
          "type": "uint256",
          "internalType": "uint256"
        },
        {
          "name": "frontendFee",
          "type": "uint256",
          "internalType": "uint256"
        },
        {
          "name": "depositRecipe",
          "type": "tuple",
          "internalType": "struct RecipeKernelBase.Recipe",
          "components": [
            {
              "name": "weirollCommands",
              "type": "bytes32[]",
              "internalType": "bytes32[]"
            },
            {
              "name": "weirollState",
              "type": "bytes[]",
              "internalType": "bytes[]"
            }
          ]
        },
        {
          "name": "withdrawRecipe",
          "type": "tuple",
          "internalType": "struct RecipeKernelBase.Recipe",
          "components": [
            {
              "name": "weirollCommands",
              "type": "bytes32[]",
              "internalType": "bytes32[]"
            },
            {
              "name": "weirollState",
              "type": "bytes[]",
              "internalType": "bytes[]"
            }
          ]
        },
        {
          "name": "rewardStyle",
          "type": "uint8",
          "internalType": "enum RewardStyle"
        }
      ],
      "outputs": [
        {
          "name": "marketHash",
          "type": "bytes32",
          "internalType": "bytes32"
        }
      ],
      "stateMutability": "payable"
    },
    {
      "type": "function",
      "name": "executeWithdrawalScript",
      "inputs": [
        {
          "name": "weirollWallet",
          "type": "address",
          "internalType": "address"
        }
      ],
      "outputs": [],
      "stateMutability": "payable"
    },
    {
      "type": "function",
      "name": "feeClaimantToTokenToAmount",
      "inputs": [
        {
          "name": "",
          "type": "address",
          "internalType": "address"
        },
        {
          "name": "",
          "type": "address",
          "internalType": "address"
        }
      ],
      "outputs": [
        {
          "name": "",
          "type": "uint256",
          "internalType": "uint256"
        }
      ],
      "stateMutability": "view"
    },
    {
      "type": "function",
      "name": "fillAPOffers",
      "inputs": [
        {
          "name": "offers",
          "type": "tuple[]",
          "internalType": "struct RecipeKernelBase.APOffer[]",
          "components": [
            {
              "name": "offerID",
              "type": "uint256",
              "internalType": "uint256"
            },
            {
              "name": "targetMarketHash",
              "type": "bytes32",
              "internalType": "bytes32"
            },
            {
              "name": "ap",
              "type": "address",
              "internalType": "address"
            },
            {
              "name": "fundingVault",
              "type": "address",
              "internalType": "address"
            },
            {
              "name": "quantity",
              "type": "uint256",
              "internalType": "uint256"
            },
            {
              "name": "expiry",
              "type": "uint256",
              "internalType": "uint256"
            },
            {
              "name": "incentivesRequested",
              "type": "address[]",
              "internalType": "address[]"
            },
            {
              "name": "incentiveAmountsRequested",
              "type": "uint256[]",
              "internalType": "uint256[]"
            }
          ]
        },
        {
          "name": "fillAmounts",
          "type": "uint256[]",
          "internalType": "uint256[]"
        },
        {
          "name": "frontendFeeRecipient",
          "type": "address",
          "internalType": "address"
        }
      ],
      "outputs": [],
      "stateMutability": "payable"
    },
    {
      "type": "function",
      "name": "fillIPOffers",
      "inputs": [
        {
          "name": "ipOfferHashes",
          "type": "bytes32[]",
          "internalType": "bytes32[]"
        },
        {
          "name": "fillAmounts",
          "type": "uint256[]",
          "internalType": "uint256[]"
        },
        {
          "name": "fundingVault",
          "type": "address",
          "internalType": "address"
        },
        {
          "name": "frontendFeeRecipient",
          "type": "address",
          "internalType": "address"
        }
      ],
      "outputs": [],
      "stateMutability": "payable"
    },
    {
      "type": "function",
      "name": "forfeit",
      "inputs": [
        {
          "name": "weirollWallet",
          "type": "address",
          "internalType": "address"
        },
        {
          "name": "executeWithdrawal",
          "type": "bool",
          "internalType": "bool"
        }
      ],
      "outputs": [],
      "stateMutability": "payable"
    },
    {
      "type": "function",
      "name": "getAPOfferHash",
      "inputs": [
        {
          "name": "offer",
          "type": "tuple",
          "internalType": "struct RecipeKernelBase.APOffer",
          "components": [
            {
              "name": "offerID",
              "type": "uint256",
              "internalType": "uint256"
            },
            {
              "name": "targetMarketHash",
              "type": "bytes32",
              "internalType": "bytes32"
            },
            {
              "name": "ap",
              "type": "address",
              "internalType": "address"
            },
            {
              "name": "fundingVault",
              "type": "address",
              "internalType": "address"
            },
            {
              "name": "quantity",
              "type": "uint256",
              "internalType": "uint256"
            },
            {
              "name": "expiry",
              "type": "uint256",
              "internalType": "uint256"
            },
            {
              "name": "incentivesRequested",
              "type": "address[]",
              "internalType": "address[]"
            },
            {
              "name": "incentiveAmountsRequested",
              "type": "uint256[]",
              "internalType": "uint256[]"
            }
          ]
        }
      ],
      "outputs": [
        {
          "name": "",
          "type": "bytes32",
          "internalType": "bytes32"
        }
      ],
      "stateMutability": "pure"
    },
    {
      "type": "function",
      "name": "getIPOfferHash",
      "inputs": [
        {
          "name": "offerID",
          "type": "uint256",
          "internalType": "uint256"
        },
        {
          "name": "targetMarketHash",
          "type": "bytes32",
          "internalType": "bytes32"
        },
        {
          "name": "ip",
          "type": "address",
          "internalType": "address"
        },
        {
          "name": "expiry",
          "type": "uint256",
          "internalType": "uint256"
        },
        {
          "name": "quantity",
          "type": "uint256",
          "internalType": "uint256"
        },
        {
          "name": "incentivesOffered",
          "type": "address[]",
          "internalType": "address[]"
        },
        {
          "name": "incentiveAmountsOffered",
          "type": "uint256[]",
          "internalType": "uint256[]"
        }
      ],
      "outputs": [
        {
          "name": "",
          "type": "bytes32",
          "internalType": "bytes32"
        }
      ],
      "stateMutability": "pure"
    },
    {
      "type": "function",
      "name": "getMarketHash",
      "inputs": [
        {
          "name": "market",
          "type": "tuple",
          "internalType": "struct RecipeKernelBase.WeirollMarket",
          "components": [
            {
              "name": "marketID",
              "type": "uint256",
              "internalType": "uint256"
            },
            {
              "name": "inputToken",
              "type": "address",
              "internalType": "contract ERC20"
            },
            {
              "name": "lockupTime",
              "type": "uint256",
              "internalType": "uint256"
            },
            {
              "name": "frontendFee",
              "type": "uint256",
              "internalType": "uint256"
            },
            {
              "name": "depositRecipe",
              "type": "tuple",
              "internalType": "struct RecipeKernelBase.Recipe",
              "components": [
                {
                  "name": "weirollCommands",
                  "type": "bytes32[]",
                  "internalType": "bytes32[]"
                },
                {
                  "name": "weirollState",
                  "type": "bytes[]",
                  "internalType": "bytes[]"
                }
              ]
            },
            {
              "name": "withdrawRecipe",
              "type": "tuple",
              "internalType": "struct RecipeKernelBase.Recipe",
              "components": [
                {
                  "name": "weirollCommands",
                  "type": "bytes32[]",
                  "internalType": "bytes32[]"
                },
                {
                  "name": "weirollState",
                  "type": "bytes[]",
                  "internalType": "bytes[]"
                }
              ]
            },
            {
              "name": "rewardStyle",
              "type": "uint8",
              "internalType": "enum RewardStyle"
            }
          ]
        }
      ],
      "outputs": [
        {
          "name": "",
          "type": "bytes32",
          "internalType": "bytes32"
        }
      ],
      "stateMutability": "pure"
    },
    {
      "type": "function",
      "name": "marketHashToWeirollMarket",
      "inputs": [
        {
          "name": "",
          "type": "bytes32",
          "internalType": "bytes32"
        }
      ],
      "outputs": [
        {
          "name": "marketID",
          "type": "uint256",
          "internalType": "uint256"
        },
        {
          "name": "inputToken",
          "type": "address",
          "internalType": "contract ERC20"
        },
        {
          "name": "lockupTime",
          "type": "uint256",
          "internalType": "uint256"
        },
        {
          "name": "frontendFee",
          "type": "uint256",
          "internalType": "uint256"
        },
        {
          "name": "depositRecipe",
          "type": "tuple",
          "internalType": "struct RecipeKernelBase.Recipe",
          "components": [
            {
              "name": "weirollCommands",
              "type": "bytes32[]",
              "internalType": "bytes32[]"
            },
            {
              "name": "weirollState",
              "type": "bytes[]",
              "internalType": "bytes[]"
            }
          ]
        },
        {
          "name": "withdrawRecipe",
          "type": "tuple",
          "internalType": "struct RecipeKernelBase.Recipe",
          "components": [
            {
              "name": "weirollCommands",
              "type": "bytes32[]",
              "internalType": "bytes32[]"
            },
            {
              "name": "weirollState",
              "type": "bytes[]",
              "internalType": "bytes[]"
            }
          ]
        },
        {
          "name": "rewardStyle",
          "type": "uint8",
          "internalType": "enum RewardStyle"
        }
      ],
      "stateMutability": "view"
    },
    {
      "type": "function",
      "name": "minimumFrontendFee",
      "inputs": [],
      "outputs": [
        {
          "name": "",
          "type": "uint256",
          "internalType": "uint256"
        }
      ],
      "stateMutability": "view"
    },
    {
      "type": "function",
      "name": "numAPOffers",
      "inputs": [],
      "outputs": [
        {
          "name": "",
          "type": "uint256",
          "internalType": "uint256"
        }
      ],
      "stateMutability": "view"
    },
    {
      "type": "function",
      "name": "numIPOffers",
      "inputs": [],
      "outputs": [
        {
          "name": "",
          "type": "uint256",
          "internalType": "uint256"
        }
      ],
      "stateMutability": "view"
    },
    {
      "type": "function",
      "name": "numMarkets",
      "inputs": [],
      "outputs": [
        {
          "name": "",
          "type": "uint256",
          "internalType": "uint256"
        }
      ],
      "stateMutability": "view"
    },
    {
      "type": "function",
      "name": "offerHashToIPOffer",
      "inputs": [
        {
          "name": "",
          "type": "bytes32",
          "internalType": "bytes32"
        }
      ],
      "outputs": [
        {
          "name": "offerID",
          "type": "uint256",
          "internalType": "uint256"
        },
        {
          "name": "targetMarketHash",
          "type": "bytes32",
          "internalType": "bytes32"
        },
        {
          "name": "ip",
          "type": "address",
          "internalType": "address"
        },
        {
          "name": "expiry",
          "type": "uint256",
          "internalType": "uint256"
        },
        {
          "name": "quantity",
          "type": "uint256",
          "internalType": "uint256"
        },
        {
          "name": "remainingQuantity",
          "type": "uint256",
          "internalType": "uint256"
        }
      ],
      "stateMutability": "view"
    },
    {
      "type": "function",
      "name": "offerHashToRemainingQuantity",
      "inputs": [
        {
          "name": "",
          "type": "bytes32",
          "internalType": "bytes32"
        }
      ],
      "outputs": [
        {
          "name": "",
          "type": "uint256",
          "internalType": "uint256"
        }
      ],
      "stateMutability": "view"
    },
    {
      "type": "function",
      "name": "owner",
      "inputs": [],
      "outputs": [
        {
          "name": "",
          "type": "address",
          "internalType": "address"
        }
      ],
      "stateMutability": "view"
    },
    {
      "type": "function",
      "name": "protocolFee",
      "inputs": [],
      "outputs": [
        {
          "name": "",
          "type": "uint256",
          "internalType": "uint256"
        }
      ],
      "stateMutability": "view"
    },
    {
      "type": "function",
      "name": "protocolFeeClaimant",
      "inputs": [],
      "outputs": [
        {
          "name": "",
          "type": "address",
          "internalType": "address"
        }
      ],
      "stateMutability": "view"
    },
    {
      "type": "function",
      "name": "setMinimumFrontendFee",
      "inputs": [
        {
          "name": "_minimumFrontendFee",
          "type": "uint256",
          "internalType": "uint256"
        }
      ],
      "outputs": [],
      "stateMutability": "payable"
    },
    {
      "type": "function",
      "name": "setOffersPaused",
      "inputs": [
        {
          "name": "_offersPaused",
          "type": "bool",
          "internalType": "bool"
        }
      ],
      "outputs": [],
      "stateMutability": "nonpayable"
    },
    {
      "type": "function",
      "name": "setProtocolFee",
      "inputs": [
        {
          "name": "_protocolFee",
          "type": "uint256",
          "internalType": "uint256"
        }
      ],
      "outputs": [],
      "stateMutability": "payable"
    },
    {
      "type": "function",
      "name": "setProtocolFeeClaimant",
      "inputs": [
        {
          "name": "_protocolFeeClaimant",
          "type": "address",
          "internalType": "address"
        }
      ],
      "outputs": [],
      "stateMutability": "payable"
    },
    {
      "type": "function",
      "name": "transferOwnership",
      "inputs": [
        {
          "name": "newOwner",
          "type": "address",
          "internalType": "address"
        }
      ],
      "outputs": [],
      "stateMutability": "nonpayable"
    },
    {
      "type": "function",
      "name": "weirollWalletToLockedIncentivesParams",
      "inputs": [
        {
          "name": "",
          "type": "address",
          "internalType": "address"
        }
      ],
      "outputs": [
        {
          "name": "ip",
          "type": "address",
          "internalType": "address"
        },
        {
          "name": "frontendFeeRecipient",
          "type": "address",
          "internalType": "address"
        },
        {
          "name": "wasIPOffer",
          "type": "bool",
          "internalType": "bool"
        },
        {
          "name": "offerHash",
          "type": "bytes32",
          "internalType": "bytes32"
        },
        {
          "name": "protocolFeeAtFill",
          "type": "uint256",
          "internalType": "uint256"
        }
      ],
      "stateMutability": "view"
    },
    {
      "type": "event",
      "name": "APOfferCancelled",
      "inputs": [
        {
          "name": "offerID",
          "type": "uint256",
          "indexed": true,
          "internalType": "uint256"
        }
      ],
      "anonymous": false
    },
    {
      "type": "event",
      "name": "APOfferCreated",
      "inputs": [
        {
          "name": "offerID",
          "type": "uint256",
          "indexed": true,
          "internalType": "uint256"
        },
        {
          "name": "marketHash",
          "type": "bytes32",
          "indexed": true,
          "internalType": "bytes32"
        },
        {
          "name": "fundingVault",
          "type": "address",
          "indexed": false,
          "internalType": "address"
        },
        {
          "name": "quantity",
          "type": "uint256",
          "indexed": false,
          "internalType": "uint256"
        },
        {
          "name": "incentiveAddresses",
          "type": "address[]",
          "indexed": false,
          "internalType": "address[]"
        },
        {
          "name": "incentiveAmounts",
          "type": "uint256[]",
          "indexed": false,
          "internalType": "uint256[]"
        },
        {
          "name": "expiry",
          "type": "uint256",
          "indexed": false,
          "internalType": "uint256"
        }
      ],
      "anonymous": false
    },
    {
      "type": "event",
      "name": "APOfferFilled",
      "inputs": [
        {
          "name": "offerID",
          "type": "uint256",
          "indexed": true,
          "internalType": "uint256"
        },
        {
          "name": "fillAmount",
          "type": "uint256",
          "indexed": false,
          "internalType": "uint256"
        },
        {
          "name": "weirollWallet",
          "type": "address",
          "indexed": false,
          "internalType": "address"
        },
        {
          "name": "incentiveAmounts",
          "type": "uint256[]",
          "indexed": false,
          "internalType": "uint256[]"
        },
        {
          "name": "protocolFeeAmounts",
          "type": "uint256[]",
          "indexed": false,
          "internalType": "uint256[]"
        },
        {
          "name": "frontendFeeAmounts",
          "type": "uint256[]",
          "indexed": false,
          "internalType": "uint256[]"
        }
      ],
      "anonymous": false
    },
    {
      "type": "event",
      "name": "FeesClaimed",
      "inputs": [
        {
          "name": "claimant",
          "type": "address",
          "indexed": true,
          "internalType": "address"
        },
        {
          "name": "incentive",
          "type": "address",
          "indexed": true,
          "internalType": "address"
        },
        {
          "name": "amount",
          "type": "uint256",
          "indexed": false,
          "internalType": "uint256"
        }
      ],
      "anonymous": false
    },
    {
      "type": "event",
      "name": "IPOfferCancelled",
      "inputs": [
        {
          "name": "offerHash",
          "type": "bytes32",
          "indexed": true,
          "internalType": "bytes32"
        }
      ],
      "anonymous": false
    },
    {
      "type": "event",
      "name": "IPOfferCreated",
      "inputs": [
        {
          "name": "offerID",
          "type": "uint256",
          "indexed": true,
          "internalType": "uint256"
        },
        {
          "name": "offerHash",
          "type": "bytes32",
          "indexed": true,
          "internalType": "bytes32"
        },
        {
          "name": "marketHash",
          "type": "bytes32",
          "indexed": true,
          "internalType": "bytes32"
        },
        {
          "name": "quantity",
          "type": "uint256",
          "indexed": false,
          "internalType": "uint256"
        },
        {
          "name": "incentivesOffered",
          "type": "address[]",
          "indexed": false,
          "internalType": "address[]"
        },
        {
          "name": "incentiveAmounts",
          "type": "uint256[]",
          "indexed": false,
          "internalType": "uint256[]"
        },
        {
          "name": "protocolFeeAmounts",
          "type": "uint256[]",
          "indexed": false,
          "internalType": "uint256[]"
        },
        {
          "name": "frontendFeeAmounts",
          "type": "uint256[]",
          "indexed": false,
          "internalType": "uint256[]"
        },
        {
          "name": "expiry",
          "type": "uint256",
          "indexed": false,
          "internalType": "uint256"
        }
      ],
      "anonymous": false
    },
    {
      "type": "event",
      "name": "IPOfferFilled",
      "inputs": [
        {
          "name": "offerHash",
          "type": "bytes32",
          "indexed": true,
          "internalType": "bytes32"
        },
        {
          "name": "fillAmount",
          "type": "uint256",
          "indexed": false,
          "internalType": "uint256"
        },
        {
          "name": "weirollWallet",
          "type": "address",
          "indexed": false,
          "internalType": "address"
        },
        {
          "name": "incentiveAmounts",
          "type": "uint256[]",
          "indexed": false,
          "internalType": "uint256[]"
        },
        {
          "name": "protocolFeeAmounts",
          "type": "uint256[]",
          "indexed": false,
          "internalType": "uint256[]"
        },
        {
          "name": "frontendFeeAmounts",
          "type": "uint256[]",
          "indexed": false,
          "internalType": "uint256[]"
        }
      ],
      "anonymous": false
    },
    {
      "type": "event",
      "name": "MarketCreated",
      "inputs": [
        {
          "name": "marketID",
          "type": "uint256",
          "indexed": true,
          "internalType": "uint256"
        },
        {
          "name": "marketHash",
          "type": "bytes32",
          "indexed": true,
          "internalType": "bytes32"
        },
        {
          "name": "inputToken",
          "type": "address",
          "indexed": true,
          "internalType": "address"
        },
        {
          "name": "lockupTime",
          "type": "uint256",
          "indexed": false,
          "internalType": "uint256"
        },
        {
          "name": "frontendFee",
          "type": "uint256",
          "indexed": false,
          "internalType": "uint256"
        },
        {
          "name": "rewardStyle",
          "type": "uint8",
          "indexed": false,
          "internalType": "enum RewardStyle"
        }
      ],
      "anonymous": false
    },
    {
      "type": "event",
      "name": "OwnershipTransferred",
      "inputs": [
        {
          "name": "user",
          "type": "address",
          "indexed": true,
          "internalType": "address"
        },
        {
          "name": "newOwner",
          "type": "address",
          "indexed": true,
          "internalType": "address"
        }
      ],
      "anonymous": false
    },
    {
      "type": "event",
      "name": "WeirollWalletClaimedIncentive",
      "inputs": [
        {
          "name": "weirollWallet",
          "type": "address",
          "indexed": true,
          "internalType": "address"
        },
        {
          "name": "recipient",
          "type": "address",
          "indexed": false,
          "internalType": "address"
        },
        {
          "name": "incentive",
          "type": "address",
          "indexed": false,
          "internalType": "address"
        }
      ],
      "anonymous": false
    },
    {
      "type": "event",
      "name": "WeirollWalletExecutedWithdrawal",
      "inputs": [
        {
          "name": "weirollWallet",
          "type": "address",
          "indexed": true,
          "internalType": "address"
        }
      ],
      "anonymous": false
    },
    {
      "type": "event",
      "name": "WeirollWalletForfeited",
      "inputs": [
        {
          "name": "weirollWallet",
          "type": "address",
          "indexed": true,
          "internalType": "address"
        }
      ],
      "anonymous": false
    },
    {
      "type": "error",
      "name": "AlreadyRewarded",
      "inputs": []
    },
    {
      "type": "error",
      "name": "ArrayLengthMismatch",
      "inputs": []
    },
    {
      "type": "error",
      "name": "CannotFillZeroQuantityOffer",
      "inputs": []
    },
    {
      "type": "error",
      "name": "CannotPlaceExpiredOffer",
      "inputs": []
    },
    {
      "type": "error",
      "name": "CannotPlaceZeroQuantityOffer",
      "inputs": []
    },
    {
      "type": "error",
      "name": "CreateFail",
      "inputs": []
    },
    {
      "type": "error",
      "name": "FrontendFeeTooLow",
      "inputs": []
    },
    {
      "type": "error",
      "name": "InsufficientFillPercent",
      "inputs": []
    },
    {
      "type": "error",
      "name": "InvalidMarketInputToken",
      "inputs": []
    },
    {
      "type": "error",
      "name": "InvalidPointsProgram",
      "inputs": []
    },
    {
      "type": "error",
      "name": "MarketDoesNotExist",
      "inputs": []
    },
    {
      "type": "error",
      "name": "MismatchedBaseAsset",
      "inputs": []
    },
    {
      "type": "error",
      "name": "NoIncentivesPaidOnFill",
      "inputs": []
    },
    {
      "type": "error",
      "name": "NotEnoughRemainingQuantity",
      "inputs": []
    },
    {
      "type": "error",
      "name": "NotOwner",
      "inputs": []
    },
    {
      "type": "error",
      "name": "OfferCannotContainDuplicates",
      "inputs": []
    },
    {
      "type": "error",
      "name": "OfferExpired",
      "inputs": []
    },
    {
      "type": "error",
      "name": "OffersPaused",
      "inputs": []
    },
    {
      "type": "error",
      "name": "ReentrancyGuardReentrantCall",
      "inputs": []
    },
    {
      "type": "error",
      "name": "TokenDoesNotExist",
      "inputs": []
    },
    {
      "type": "error",
      "name": "TotalFeeTooHigh",
      "inputs": []
    },
    {
      "type": "error",
      "name": "WalletLocked",
      "inputs": []
    },
    {
      "type": "error",
      "name": "WalletNotForfeitable",
      "inputs": []
    },
    {
      "type": "error",
      "name": "WeirollWalletFundingFailed",
      "inputs": []
    }
  ],
  "bytecode": {
    "object": "0x60c0615ca880380390601f19601f83011683019183831060018060401b0384111761013a5780849260a094604052833981010312610136576100408161014e565b90602081015190604081015191610065608061005e6060850161014e565b930161014e565b9160018060a01b0316918260018060a01b03195f5416175f5560405194835f7f8be0079c531659141344cd1fd0a4f28419497f9722a3daafe3b4186f6b6457e08180a360805260a05260055560018060a01b03196006541617600655600755615b429081610166823960805181818161073501528181610e290152612788015260a0518181816102ba01528181610e74015281816110a10152818161138101528181612fe701528181613de4015281816140e301528181615003015281816154b0015281816157a501526159070152f35b5f80fd5b634e487b7160e01b5f52604160045260245ffd5b519060018060a01b038216820361016157565b5f80fdfe60806040526004361015610012575b5f80fd5b5f3560e01c806305c21582146102215780630600fc6f1461021c5780630718f4a514610217578063072fc961146102125780630cadba1a1461020d57806315a0c8bd1461020857806315a2fdee1461020357806322b04e14146101fe578063250b9ded146101f957806326e04f9d146101f457806328b0c235146101ef5780632e0a1122146101ea57806338e96749146101e557806345ccb466146101e0578063508d629d146101db5780635e1c75e1146101d6578063645b1b5b146101d157806369029181146101cc578063787dce3d146101c757806380dd127a146101c257806382ae91d1146101bd5780638d084ba3146101b85780638da5cb5b146101b3578063b0e21e8a146101ae578063cd175e66146101a9578063d1216f24146101a4578063ec1d465e1461019f578063ee46ebc61461019a578063f2fde38b14610195578063f3256c8114610190578063f62423011461018b578063f94b5199146101865763fcd9664b0361000e57613870565b6137c4565b6135c8565b613591565b613502565b612ef9565b612eaa565b612dae565b6125cb565b6125a6565b612579565b61252a565b612365565b612340565b612311565b612167565b6120ea565b611b94565b611b17565b611747565b611701565b6115fc565b610ed3565b610ea0565b610e55565b610e0a565b610daa565b610d33565b610cdb565b610c69565b610bf6565b6105aa565b610232565b60043590565b60243590565b602060031936011261053b57610246610226565b61024e614a32565b61025781610bc4565b9060028201610266815461057c565b6001600160a01b03339116036105135760058301549283156104eb576102a961029d60086102976001850154610bd2565b01611f93565b9460048301549061528a565b5f9060068301956001600160a01b037f0000000000000000000000000000000000000000000000000000000000000000169460078501978215945b815481101561046257806103056102fe61033593856138b3565b9054610c36565b602061031b61031484876138b3565b9054610c36565b6040518095819263679d119760e01b835260048301610c54565b03818d5afa92831561045d57610377828e888b8e6001995f97889161042f575b50156103b5575b50505061037261036c878a6138b3565b9061393b565b610cc5565b55888861038388612055565b610390575b5050016102e4565b815f6103a3819460086103ad9501610cc5565b5560098b01610cc5565b555f88610388565b610427926104126104179261040c6104056103da876103d48c8c610cc5565b5461525e565b966103ff8b60086103f8846103f28460098b01610cc5565b5461525e565b9601610cc5565b5461525e565b935461057c565b94613929565b613929565b906001600160a01b038516614acb565b888b8e61035c565b610450915060203d8111610456575b6104488183611d95565b8101906138cd565b5f610355565b503d61043e565b6138e9565b888661046d86612055565b155f146104d5575f600161048083610bc4565b0155610496600261049083610bc4565b01613951565b5f60056104a283610bc4565b01555b7fa8192679f2a98ef0f7c48a03dd5d944c563888af9eb9c9da2f8932a2d84afa235f80a26104d1614aa6565b5f80f35b6104e66104e182610bc4565b613a0f565b6104a5565b7fc6c2d6bf000000000000000000000000000000000000000000000000000000005f5260045ffd5b7f30cd7471000000000000000000000000000000000000000000000000000000005f5260045ffd5b5f80fd5b9181601f840112156105785782359167ffffffffffffffff8311610574576020808501948460051b01011161057057565b5f80fd5b5f80fd5b5f80fd5b6001600160a01b031690565b6001600160a01b0381160361059957565b5f80fd5b35906105a882610588565b565b6080600319360112610bc05760043567ffffffffffffffff8111610bbc576105d690369060040161053f565b9060243567ffffffffffffffff8111610bb8576105f790369060040161053f565b929091610605604435610588565b610610606435610588565b610618614a32565b60ff60045416610b9057838203610b68575f5b82811061063e5761063a614aa6565b5f80f35b610649818484613a3e565b3590610656818787613a3e565b35918261066282610bc4565b61066f6001820154610bd2565b9460038201548015159081610b5e575b50610b365760058201549080821080610b2b575b610b03575f1914610afa575b6001600160a01b036044351615156001600160a01b0360443516610a5b575b610a33578215610a0b57826106d291614b83565b600582015561076361075e61075960026107336106f260088b0154611f8d565b6106fb81612055565b61072561070b848d015442613929565b60018901549060405195869414908b303360208801614b95565b03601f198101835282611d95565b7f00000000000000000000000000000000000000000000000000000000000000006152ca565b61057c565b61057c565b94600682015490610773826144e2565b968561077e846144e2565b94610788856144e2565b9461079760048301548961528a565b5f5b8c838210610912576107f893508a999794906108339b999793505f9692506107c46008870154611f8d565b6107cd81612055565b6108a9575b5050506001600160a01b036107ea600185015461057c565b9116978891336044356155dc565b604051809781927f0e4ab719000000000000000000000000000000000000000000000000000000008352600460058201910160048401614dc7565b038183885af19182156108a4576001987fce3ef9786e3b9388efc900e4e0a070185cebb023f778aa7688f8c71af67395de9661087b94610884575b5060405195869586614e67565b0390a20161062b565b61089f903d805f833e6108978183611d95565b810190614cd3565b61086e565b6138e9565b6108f06108e760026004946108e06108c96001600160a01b038a16610c97565b956108d76006840188614bd9565b60018701614c45565b015461057c565b60028301613ab8565b6109086003820161090360643582613ab8565b614c94565b0155895f8d6107d2565b849550600882918b610957846109518861094b8c61094261093b60019d9e9f60068891016138b3565b9054610c36565b98899101610cc5565b5461525e565b92614513565b5261096f866109698460098c01610cc5565b5461525e565b610979848d614513565b526109918661098b8460078c01610cc5565b5461525e565b61099b8483614513565b526109a960088b0154611f8d565b6109b281612055565b156109c6575b505050019089939291610799565b610a03926109d391614513565b51906109df848d614513565b516109ea858d614513565b5190606435936109fd60028c015461057c565b93615461565b805f8e6109b8565b7f9750f074000000000000000000000000000000000000000000000000000000005f5260045ffd5b7f380b4009000000000000000000000000000000000000000000000000000000005f5260045ffd5b50610a69600187015461057c565b6040517f38d52e0f0000000000000000000000000000000000000000000000000000000081526020816004816001600160a01b03604435165afa908115610af5576001600160a01b039182915f91610ac7575b5016911614156106be565b610ae8915060203d8111610aee575b610ae08183611d95565b810190613aeb565b5f610abc565b503d610ad6565b6138e9565b8092509161069f565b7fc6c2d6bf000000000000000000000000000000000000000000000000000000005f5260045ffd5b505f19811415610693565b7f9cb13087000000000000000000000000000000000000000000000000000000005f5260045ffd5b905042115f61067f565b7fa24a13a6000000000000000000000000000000000000000000000000000000005f5260045ffd5b7f2bae2620000000000000000000000000000000000000000000000000000000005f5260045ffd5b5f80fd5b5f80fd5b5f80fd5b5f52600960205260405f2090565b5f52600860205260405f2090565b5f52600a60205260405f2090565b9060031b1c90565b34610c24576020600319360112610c20576004355f52600a602052602060405f2054604051908152f35b5f80fd5b5f80fd5b5f910312610c3257565b5f80fd5b6001600160a01b039160031b1c1690565b6001600160a01b03169052565b9190916001600160a01b036020820193169052565b34610c93575f600319360112610c8f5760206001600160a01b0360065416604051908152f35b5f80fd5b5f80fd5b6001600160a01b03165f52600b60205260405f2090565b6001600160a01b03165f52600c60205260405f2090565b906001600160a01b03165f5260205260405f2090565b34610d2f576040600319360112610d2b576020610d22600435610cfd81610588565b6001600160a01b0360243591610d1283610588565b165f52600c835260405f20610cc5565b54604051908152f35b5f80fd5b5f80fd5b34610da6576020600319360112610da257610d4c610226565b5f52600960205260c060405f208054906001810154906001600160a01b036002820154166003820154906005600484015493015493604051958652602086015260408501526060840152608083015260a0820152f35b5f80fd5b5f80fd5b6020600319360112610e06576001600160a01b03600435610dca81610588565b610dd8825f54163314613a53565b167fffffffffffffffffffffffff000000000000000000000000000000000000000060065416176006555f80f35b5f80fd5b34610e51575f600319360112610e4d5760206040516001600160a01b037f0000000000000000000000000000000000000000000000000000000000000000168152f35b5f80fd5b5f80fd5b34610e9c575f600319360112610e985760206040516001600160a01b037f0000000000000000000000000000000000000000000000000000000000000000168152f35b5f80fd5b5f80fd5b34610ec1575f600319360112610ebd576020600354604051908152f35b5f80fd5b5f80fd5b80151503610ecf57565b5f80fd5b60406003193601126115f857600435610eeb81610588565b60243590610ef882610ec5565b6001600160a01b038116906040517f8da5cb5b000000000000000000000000000000000000000000000000000000008152602081600481865afa9081156115f3575f916115c4575b506001600160a01b033391160361159c57610f59614a32565b6040517f6d710c72000000000000000000000000000000000000000000000000000000008152602081600481865afa908115611597575f91611568575b501561154057610fa581610c97565b92823b1561153c576040517ff3d86e4a0000000000000000000000000000000000000000000000000000000081525f8160048183885af180156115375761151d575b5061150f575b610ffa6003840154611adc565b5f1461130b5761100d6004840154610bc4565b916040517faa8c217c000000000000000000000000000000000000000000000000000000008152602081600481855afa908115611306575f916112d7575b506001600160a01b03611061600286015461057c565b161580156112b7575b5f146112525761108190600485949501549061528a565b9161108f600286015461057c565b905f9060088101936001600160a01b037f0000000000000000000000000000000000000000000000000000000000000000169060018901935b8954811015611206576110e56110de828c6138b3565b9054610c36565b9061110f876110fe8b6110f8868d610cc5565b5461525e565b8461110a60065461057c565b614fd6565b60405163679d119760e01b81526020818061112d8660048301610c54565b0381885afa92831561120157888b848a6001978b965f916111d3575b5015611183575b5091505061116a925061116491508d6138b3565b9061393b565b61117d61117782886138b3565b90613979565b016110c8565b6111bc6111b56111c1936111af6001600160a01b03966111a98a60096111c89d01610cc5565b5461525e565b936138b3565b9054610bee565b613929565b9216614acb565b845f888b848a611150565b6111f4915060203d81116111fa575b6111ec8183611d95565b8101906138cd565b5f611149565b503d6111e2565b6138e9565b50975050505050505061121d611222915b5b610c97565b613b29565b7f8f8b47094beecc082ab855873c2032f3c512b1f43e07993ec190e7319de5a22e5f80a261124e614aa6565b5f80f35b9093919260056112659101918254613929565b90555f9260018201935b82548110156112a7578061128e611288600193866138b3565b9061393b565b6112a161129b82886138b3565b90613979565b0161126f565b5092505061121d61122291611217565b50600384015480151590816112cd575b5061106a565b905042115f6112c7565b6112f9915060203d6020116112ff575b6112f18183611d95565b810190613b07565b5f61104b565b503d6112e7565b6138e9565b906005830154916040517f31574546000000000000000000000000000000000000000000000000000000008152602081600481865afa90811561150a5760039161135f915f916114db575b50949294610bd2565b01549161136f600286015461057c565b905f9260018701916001600160a01b037f000000000000000000000000000000000000000000000000000000000000000016945b88548110156114c7576113c06113b9828b6138b3565b9054610c36565b906113d56113ce82876138b3565b9054610bee565b916113f5876113e4878661525e565b836113f060065461057c565b614fd6565b6040519063679d119760e01b8252602082806114148460048301610c54565b03818c5afa9182156114c2576001948b938a925f91611494575b5015611465575b5050505061144c611446828c6138b3565b9061393b565b61145f61145982876138b3565b90613979565b016113a3565b6114848161147e61148b966001600160a01b039461525e565b90613929565b9216614acb565b875f8781611435565b6114b5915060203d81116114bb575b6114ad8183611d95565b8101906138cd565b5f61142e565b503d6114a3565b6138e9565b509650505050505061121d61122291611218565b6114fd915060203d602011611503575b6114f58183611d95565b810190613b07565b5f611356565b503d6114eb565b6138e9565b61151881614eb6565b610fed565b8061152b5f61153193611d95565b80610c28565b5f610fe7565b6138e9565b5f80fd5b7fb44bb110000000000000000000000000000000000000000000000000000000005f5260045ffd5b61158a915060203d602011611590575b6115828183611d95565b8101906138cd565b5f610f96565b503d611578565b6138e9565b7f30cd7471000000000000000000000000000000000000000000000000000000005f5260045ffd5b6115e6915060203d6020116115ec575b6115de8183611d95565b810190613aeb565b5f610f40565b503d6115d4565b6138e9565b5f80fd5b60206003193601126116fd5760043567ffffffffffffffff81116116f957806004019061010060031982360301126116f5576044013561163b81610588565b6001600160a01b03339116036116cd5761165d6116583683612479565b61436d565b805f52600a60205260405f2054156116a5575f52600a6020525f6040812055357fc119b2a9f2c0af908846721da7bfe8d805bf89852059096b41b6e1bfb808fd785f80a25f80f35b7fc6c2d6bf000000000000000000000000000000000000000000000000000000005f5260045ffd5b7f30cd7471000000000000000000000000000000000000000000000000000000005f5260045ffd5b5f80fd5b5f80fd5b5f80fd5b34611727575f6003193601126117235760206040516703782dace9d900008152f35b5f80fd5b5f80fd5b60443590565b60643590565b60843590565b9190602083019252565b60c0600319360112611ad85761175b610226565b60243561176781610588565b61176f61172b565b91611778611731565b60843567ffffffffffffffff8111611ad45761179890369060040161053f565b909260a43567ffffffffffffffff8111611ad0576117ba90369060040161053f565b6117d260016117cb85989498610bd2565b015461057c565b6001600160a01b036117e38261057c565b1615611aa85785151580611a9f575b611a7757620f42408910611a4f57818503611a27575f5f905b8682106119b55750506001600160a01b038816908115159182611927575b50506118ff57876118cf976118e26118ea977fc24f2dbf2db720b3f9d28fa06f9af47e92fab3dd8416a9c89661db86ae1f158e946118ef9a6118fb9d6118c8600154611873611dbd565b9081528b60208201526118893360408301613b65565b6118968860608301613b65565b8260808201528560a08201526118ae8d36908d61238a565b60c08201526118be368686612406565b60e082015261436d565b9d8e610be0565b55600154998a9860405197889788613bb8565b0390a3613c31565b613b1a565b6040519182918261173d565b0390f35b7f380b4009000000000000000000000000000000000000000000000000000000005f5260045ffd5b6004919250602090604051928380927f38d52e0f0000000000000000000000000000000000000000000000000000000082525afa9081156119b0576001600160a01b039182915f91611981575b5016911614155f80611829565b6119a3915060203d6020116119a9575b61199b8183611d95565b810190613aeb565b5f611974565b503d611991565b6138e9565b6bffffffffffffffffffffffff196119d66119d1848a89613a3e565b613b58565b9160601b166bffffffffffffffffffffffff198260601b1611156119ff5760019091019061180b565b7f84845e2d000000000000000000000000000000000000000000000000000000005f5260045ffd5b7fa24a13a6000000000000000000000000000000000000000000000000000000005f5260045ffd5b7f9750f074000000000000000000000000000000000000000000000000000000005f5260045ffd5b7f5b22d1a9000000000000000000000000000000000000000000000000000000005f5260045ffd5b504286106117f2565b7fb0cfa447000000000000000000000000000000000000000000000000000000005f5260045ffd5b5f80fd5b5f80fd5b5f80fd5b60ff9060a01c1690565b91926001600160a01b0360809497969592978160a08601991685521660208401521515604083015260608201520152565b34611b90576020600319360112611b8c576001600160a01b03600435611b3c81610588565b165f52600b60205260405f206001600160a01b03600282015416611b8860038301549260056004820154910154906040519485946001600160a01b0360ff8360a01c1692169086611ae6565b0390f35b5f80fd5b5f80fd5b6060600319360112611d5357600435611bac81610588565b602435611bb881610588565b60443590611bc582610588565b6001600160a01b0383166040517f8da5cb5b000000000000000000000000000000000000000000000000000000008152602081600481855afa908115611d4e575f91611d1f575b506001600160a01b0333911603611cf7576020600491604051928380927fce0617ec0000000000000000000000000000000000000000000000000000000082525afa908115611cf2575f91611cc3575b504210611c9b57611c7492611c6f614a32565b613c84565b5f7f9b779b17422d0df92223018b32b4d1fa46e071723d6817e2486d003becc55f005d5f80f35b7fd550ed24000000000000000000000000000000000000000000000000000000005f5260045ffd5b611ce5915060203d602011611ceb575b611cdd8183611d95565b810190613b07565b5f611c5c565b503d611cd3565b6138e9565b7f30cd7471000000000000000000000000000000000000000000000000000000005f5260045ffd5b611d41915060203d602011611d47575b611d398183611d95565b810190613aeb565b5f611c0c565b503d611d2f565b6138e9565b5f80fd5b5f5260205f2090565b634e487b7160e01b5f52604160045260245ffd5b6040810190811067ffffffffffffffff821117611d9057604052565b611d60565b90601f601f19910116810190811067ffffffffffffffff821117611db857604052565b611d60565b60405190611dcd61010083611d95565b565b60405190611dde60e083611d95565b565b67ffffffffffffffff8111611df95760209060051b0190565b611d60565b90600182811c92168015611e2c575b6020831014611e1857565b634e487b7160e01b5f52602260045260245ffd5b91607f1691611e0d565b5f9291815491611e4583611dfe565b928383526001811690815f14611ea35750600114611e63575b505050565b90919293505f5260205f20905f915b838310611e895750602092500101905f8080611e5e565b600181602092949394548385870101520191019190611e72565b9050602094955060ff1991509291921683830152151560051b0101905f8080611e5e565b90604051611ed481611d74565b80926040518060208354918281520190835f5260205f20905f5b818110611f735750505090611f0881600194930382611d95565b835201908154611f1781611de0565b92611f256040519485611d95565b81845260208401905f5260205f205f915b838310611f47575050505060200152565b600160208192604051611f6581611f5e8189611e36565b0382611d95565b815201920192019190611f36565b909192600160208192865481520194019101919091611eee565b60ff1690565b60ff90541690565b60408201908051916040845282518091526020606085019301905f5b81811061203b5750505060200151916020818303910152815180825260208201916020808360051b8301019401925f915b838310611ff757505050505090565b90919293946020808083601f198660019603018752601f19601f838c518051918291828752018686015e5f8582860101520116010197019301930191939290611fe8565b909193602080600192875181520195019101919091611fb7565b6003111561205f57565b634e487b7160e01b5f52602160045260245ffd5b9060038210156120805752565b634e487b7160e01b5f52602160045260245ffd5b97969460c0946120e0946001600160a01b036120e899956120d2958d521660208c015260408b015260608a015260e060808a015260e0890190611f9b565b9087820360a0890152611f9b565b940190612073565b565b3461216357602060031936011261215f57612103610226565b5f52600860205260405f20805461215b6001600160a01b0360018401541692600281015490600381015461213960048301611ec7565b9060ff600861214a60068601611ec7565b940154169360405197889788612094565b0390f35b5f80fd5b5f80fd5b602060031936011261230d5760043561217f81610588565b6001600160a01b0381166040517f8da5cb5b000000000000000000000000000000000000000000000000000000008152602081600481855afa908115612308575f916122d9575b506001600160a01b03339116036122b1576020600491604051928380927fce0617ec0000000000000000000000000000000000000000000000000000000082525afa9081156122ac575f9161227d575b5042106122555761222e90612229614a32565b614eb6565b5f7f9b779b17422d0df92223018b32b4d1fa46e071723d6817e2486d003becc55f005d5f80f35b7fd550ed24000000000000000000000000000000000000000000000000000000005f5260045ffd5b61229f915060203d6020116122a5575b6122978183611d95565b810190613b07565b5f612216565b503d61228d565b6138e9565b7f30cd7471000000000000000000000000000000000000000000000000000000005f5260045ffd5b6122fb915060203d602011612301575b6122f38183611d95565b810190613aeb565b5f6121c6565b503d6122e9565b6138e9565b5f80fd5b602060031936011261233c576004356123356001600160a01b035f54163314613a53565b6005555f80f35b5f80fd5b34612361575f60031936011261235d576020600154604051908152f35b5f80fd5b5f80fd5b34612386575f600319360112612382576020600254604051908152f35b5f80fd5b5f80fd5b92919061239681611de0565b936123a46040519586611d95565b602085838152019160051b81019283116123e057905b8282106123c657505050565b6020809183356123d581610588565b8152019101906123ba565b5f80fd5b9080601f83011215612402578160206123ff9335910161238a565b90565b5f80fd5b92919061241281611de0565b936124206040519586611d95565b602085838152019160051b810192831161245357905b82821061244257505050565b602080918335815201910190612436565b5f80fd5b9080601f830112156124755781602061247293359101612406565b90565b5f80fd5b919091610100818403126125265761248f611dbd565b9281358452602082013560208501526124aa6040830161059d565b60408501526124bb6060830161059d565b60608501526080820135608085015260a082013560a085015260c082013567ffffffffffffffff811161252257816124f49184016123e4565b60c085015260e082013567ffffffffffffffff811161251e576125179201612457565b60e0830152565b5f80fd5b5f80fd5b5f80fd5b346125755760206003193601126125715760043567ffffffffffffffff811161256d576125656125606020923690600401612479565b61436d565b604051908152f35b5f80fd5b5f80fd5b5f80fd5b346125a2575f60031936011261259e5760206001600160a01b035f5416604051908152f35b5f80fd5b5f80fd5b346125c7575f6003193601126125c3576020600554604051908152f35b5f80fd5b5f80fd5b6060600319360112612bce5760043567ffffffffffffffff8111612bca576125f790369060040161053f565b9060243567ffffffffffffffff8111612bc65761261890369060040161053f565b612626604494929435610588565b61262e614a32565b60ff60045416612b9e57808203612b76575f5b82811015612b6a578060051b840135907fffffffffffffffffffffffffffffffffffffffffffffffffffffffffffffff0185360301821215612b6657612688818488613a3e565b358060a084880101358015159081612b5c575b50612b34576126b46126af36868a01612479565b61436d565b6126bd81610be0565b5491828111612afa575b508215612ad2576126d790610be0565b6126e2838254614b83565b90556126f4608085890101358361528a565b906703782dace9d9000082109081612ac7575b50612a9f576040916127b66127b16127ac60026127868c61277860208c830101358c61276361273583610bd2565b9c8d92612752600861274a8b87015442613929565b950154611f8d565b9661275c88612055565b0101613b58565b908a6040519788961492309060208801614b95565b03601f198101835282611d95565b7f00000000000000000000000000000000000000000000000000000000000000006152ca565b61057c565b61057c565b916127c860c0878b0101878b01615116565b90506127d3816144e2565b948a88876127e0856144e2565b956127ea866144e2565b95600554916003870154905f5b83811061298f5750505050928761284e604087958c61286e965f996128a99f9e9d9c9b6008612827910154611f8d565b61283081612055565b612923575b505050612846606082870101613b58565b940101613b58565b986001600160a01b03612864600187015461057c565b9116998a936155dc565b604051809781927f0e4ab719000000000000000000000000000000000000000000000000000000008352600460058201910160048401614dc7565b038183885af191821561291e576001987fadca833a2482fdcf4d52c21f0a7e48789276eb711d55784236ae66a735fde5dc966128f5946128fe575b508c01359660405195869586614e67565b0390a201612641565b612919903d805f833e6129118183611d95565b810190614cd3565b6128e4565b6138e9565b61296061293b6001600160a01b036129879516610c97565b9261295761295060c0888d0101888d01615116565b908661452c565b60018401614c45565b61296d3360028401613ab8565b6005600383019261298060443585613ab8565b0155615176565b8b8e5f612835565b91945092956129df846129d9846129d36129c46129bf836129b960c08f9c9f8b01018c8b01615116565b90613a3e565b613b58565b9760e081880101908701615116565b90613a3e565b3561525e565b8015612a77578f93898f938c612a5e8f612a5660408f9b612a4d8f612a4660019f8f9297612a689f8f998a612a26879560089d612a1f88612a3697614513565b528261525e565b612a308686614513565b5261525e565b612a40838d614513565b52614513565b5197614513565b51960101613b58565b940154611f8d565b946044359461573f565b01928f9491928b938e956127f7565b7fb35f9418000000000000000000000000000000000000000000000000000000005f5260045ffd5b7fb2eaa0b5000000000000000000000000000000000000000000000000000000005f5260045ffd5b90508214155f612707565b7fdc7076fe000000000000000000000000000000000000000000000000000000005f5260045ffd5b5f1991935003612b0c5780915f6126c7565b7fc6c2d6bf000000000000000000000000000000000000000000000000000000005f5260045ffd5b7f9cb13087000000000000000000000000000000000000000000000000000000005f5260045ffd5b905042115f61269b565b5f80fd5b612b72614aa6565b5f80f35b7fa24a13a6000000000000000000000000000000000000000000000000000000005f5260045ffd5b7f2bae2620000000000000000000000000000000000000000000000000000000005f5260045ffd5b5f80fd5b5f80fd5b5f80fd5b67ffffffffffffffff8111612bef57601f19601f60209201160190565b611d60565b9080601f83011215612cbf57813591612c0c83611de0565b92612c1a6040519485611d95565b80845260208085019160051b83010191838311612cbb5760208101915b838310612c4657505050505090565b823567ffffffffffffffff8111612cb757820185603f82011215612cb357602081013591612c7383612bd2565b612c806040519182611d95565b83815287602080868601010111612caf575f602085819660408397018386013783010152815201920191612c37565b5f80fd5b5f80fd5b5f80fd5b5f80fd5b5f80fd5b9190604083820312612d865760405190612cdc82611d74565b8193803567ffffffffffffffff8111612d8257810182601f82011215612d7e57803590612d0882611de0565b91612d166040519384611d95565b80835260208084019160051b83010191858311612d7a57602001905b828210612d6957505050835260208101359167ffffffffffffffff8311612d6557602092612d609201612bf4565b910152565b5f80fd5b602080918335815201910190612d32565b5f80fd5b5f80fd5b5f80fd5b5f80fd5b60a435906003821015612d9957565b5f80fd5b35906003821015612daa57565b5f80fd5b34612ea6576020600319360112612ea25760043567ffffffffffffffff8111612e9e5760e06003198236030112612e9a57612de7611dcf565b81600401358152612dfa6024830161059d565b60208201526044820135604082015260648201356060820152608482013567ffffffffffffffff8111612e9657612e379060043691850101612cc3565b608082015260a48201359067ffffffffffffffff8211612e9257612e7860c4612e8e94612e6d612e829560043691840101612cc3565b60a085015201612d9d565b60c082015261442d565b6040519182918261173d565b0390f35b5f80fd5b5f80fd5b5f80fd5b5f80fd5b5f80fd5b5f80fd5b34612ef5576020600319360112612ef157600435612ec781610ec5565b612edc6001600160a01b035f54163314613a53565b60ff60ff196004541691151516176004555f80f35b5f80fd5b5f80fd5b60a06003193601126134fe57612f0d610226565b612f1561022c565b90612f1e61172b565b60643567ffffffffffffffff81116134fa57612f3e90369060040161053f565b60849391933567ffffffffffffffff81116134f657612f6190369060040161053f565b949093612f6c614a32565b612f7584610bd2565b946001600160a01b03612f93612f8e600189015461057c565b61057c565b16156134ce57811515806134c5575b61349d5786840361347557620f4240881061344d5794612fc1846144e2565b95612fcb856144e2565b97612fd5866144e2565b925f60035f9201906001600160a01b037f000000000000000000000000000000000000000000000000000000000000000016925b898110613152575050505050506002549661302b8786868c878d8c339161496b565b9761303589610bc4565b90815586600182015561304b3360028301613ab8565b89600482015589600582015583600382015561306b86866006840161452c565b5f60078201916009600882019101915b8881106130f357505050506130d695936130ef996130ce8a956130db9a98957f8af8940e37a50e2b056ce39d3079e6de3234015e7ae27f873041c2bed0904794956002549a8b986040519788978861457e565b0390a4613c31565b613b1f565b6130e3614aa6565b6040519182918261173d565b0390f35b808b6131148261310e6131096001968f8f613a3e565b613b58565b92614513565b5161311f8288610cc5565b5561312a8288614513565b516131358286610cc5565b5561314b613143838a614513565b519186610cc5565b550161307b565b613165613160828c8c613a3e565b613b58565b916bffffffffffffffffffffffff196001600160a01b0384169160601b166bffffffffffffffffffffffff198460601b161115613425578c828f85828c818d818e9b9e6131b192613a3e565b35948b549060055496826131c489613908565b906131ce91613929565b6131d79161528a565b9788976131e4908961525e565b976131f089948261525e565b9a8b976131fc91614513565b5261320691614513565b5261321091614513565b5260405163679d119760e01b815289818084600482019061323091610c54565b03815a93602094fa908115613420575f916133f2575b505f1461339857505050506040517f1281cd00000000000000000000000000000000000000000000000000000000008152602081600481855afa8015613393576001600160a01b03915f91613365575b50168514908115916132dd575b506132b5576001905b01939093613009565b7fbfc5dab8000000000000000000000000000000000000000000000000000000005f5260045ffd5b9050602060405180927fe91929b600000000000000000000000000000000000000000000000000000000825281806133183360048301610c54565b03915afa908115613360575f91613332575b50155f6132a3565b613353915060203d8111613359575b61334b8183611d95565b8101906138cd565b5f61332a565b503d613341565b6138e9565b613386915060203d811161338c575b61337e8183611d95565b810190613aeb565b5f613296565b503d613374565b6138e9565b94939192943b156133ca576001946133b66133bb926133c595613929565b613929565b903090339061519e565b6132ac565b7fceea21b6000000000000000000000000000000000000000000000000000000005f5260045ffd5b613413915060203d8111613419575b61340b8183611d95565b8101906138cd565b5f613246565b503d613401565b6138e9565b7f84845e2d000000000000000000000000000000000000000000000000000000005f5260045ffd5b7f9750f074000000000000000000000000000000000000000000000000000000005f5260045ffd5b7fa24a13a6000000000000000000000000000000000000000000000000000000005f5260045ffd5b7f5b22d1a9000000000000000000000000000000000000000000000000000000005f5260045ffd5b50428210612fa2565b7fb0cfa447000000000000000000000000000000000000000000000000000000005f5260045ffd5b5f80fd5b5f80fd5b5f80fd5b3461358d576020600319360112613589577fffffffffffffffffffffffff000000000000000000000000000000000000000060043561354081610588565b6001600160a01b035f54916135588284163314613a53565b1691829116175f55337f8be0079c531659141344cd1fd0a4f28419497f9722a3daafe3b4186f6b6457e05f80a35f80f35b5f80fd5b5f80fd5b346135b2575f6003193601126135ae576020600754604051908152f35b5f80fd5b5f80fd5b908160409103126135c45790565b5f80fd5b60c06003193601126137c0576004356135e081610588565b6135e861022c565b906135f161172b565b9160643567ffffffffffffffff81116137bc576136129036906004016135b6565b9260843567ffffffffffffffff81116137b8576136339036906004016135b6565b916001600160a01b03613644612d8a565b9416801561379057600754831061376857670de0b6b3a764000061366a60055485613929565b116137405761373c95613711957f0c001567d2743a4cf169e9e0f5f5fc1e1d2e9b95b02d2d22a5ae74c499481cf761372b95613723956136e5613730996136d9600354976136b6611dcf565b9889526136c68a60208b01613b65565b8460408a01528560608a01523690612cc3565b60808801523690612cc3565b60a08601526136f78460c087016145d7565b6137008561442d565b998a9561370c87610bd2565b6148b7565b6003549687946040519384938461494b565b0390a4613c31565b613b24565b6040519182918261173d565b0390f35b7f064a3ff8000000000000000000000000000000000000000000000000000000005f5260045ffd5b7f320c7a15000000000000000000000000000000000000000000000000000000005f5260045ffd5b7fd0f1a993000000000000000000000000000000000000000000000000000000005f5260045ffd5b5f80fd5b5f80fd5b5f80fd5b3461386c5760e0600319360112613868576004356137e061022c565b90604435906137ee82610588565b6137f6611731565b6137fe611737565b9060a43567ffffffffffffffff81116138645761381f90369060040161053f565b92909160c4359567ffffffffffffffff87116138605761385c9761384a613850983690600401612457565b9661496b565b6040519182918261173d565b0390f35b5f80fd5b5f80fd5b5f80fd5b5f80fd5b602060031936011261389b576004356138946001600160a01b035f54163314613a53565b6007555f80f35b5f80fd5b634e487b7160e01b5f52603260045260245ffd5b80548210156138c8575f5260205f2001905f90565b61389f565b908160209103126138e557516138e281610ec5565b90565b5f80fd5b6040513d5f823e3d90fd5b634e487b7160e01b5f52601160045260245ffd5b670de0b6b3a7640000019081670de0b6b3a76400001161392457565b6138f4565b9190820180921161393657565b6138f4565b906001600160a01b0382549160031b1b19169055565b7fffffffffffffffffffffffff00000000000000000000000000000000000000008154169055565b905f1982549160031b1b19169055565b5b818110613995575050565b6001905f81550161398a565b80545f8255806139b0575b5050565b6139c3915f5260205f2090810190613989565b5f806139ac565b90680100000000000000008111613a0a578154908083558181106139ee575b505050565b613a02925f5260205f209182019101613989565b5f80806139e9565b611d60565b6006613a3c915f81555f60018201555f60028201555f60038201555f60048201555f6005820155016139a1565b565b9190811015613a4e5760051b0190565b61389f565b15613a5a57565b60646040517f08c379a000000000000000000000000000000000000000000000000000000000815260206004820152600c60248201527f554e415554484f52495a454400000000000000000000000000000000000000006044820152fd5b906001600160a01b03167fffffffffffffffffffffffff0000000000000000000000000000000000000000825416179055565b90816020910312613b035751613b0081610588565b90565b5f80fd5b90816020910312613b16575190565b5f80fd5b600155565b600255565b600355565b60055f91613b36816139a1565b613b42600182016139a1565b8260028201558260038201558260048201550155565b35613b6281610588565b90565b906001600160a01b03169052565b916020908281520191905f5b818110613b8c5750505090565b9091926020806001926001600160a01b038735613ba881610588565b1681520194019101919091613b7f565b9796959390916001600160a01b03613be49493168952602089015260a0604089015260a0880191613b73565b9185830360608701528183527f07ffffffffffffffffffffffffffffffffffffffffffffffffffffffffffffff8211613c2d5760809260209260051b8092848301370101930152565b5f80fd5b5f198114613c3f5760010190565b6138f4565b9160409194936001600160a01b0391826060860197168552602085015216910152565b9092916001600160a01b0360209181604085019616845216910152565b916001600160a01b03613c9684610c97565b9316600384015493613ca78561057c565b91613cbe613cb8600284015461057c565b96611adc565b5f14613fd057613cd16004830154610bc4565b956040517faa8c217c000000000000000000000000000000000000000000000000000000008152602081600481865afa8015613fcb57613d1e915f91613f9c575b5060048901549061528a565b935f5b8454811015613f9057613d3e613d3782876138b3565b9054610c36565b6001600160a01b03811690816001600160a01b038b1614613d63575050600101613d21565b9096848b83613dd896613db96020979d9e9f613da787613da1866009613d9a613dbe9c613d948460088f9a01610cc5565b5461525e565b9901610cc5565b5461525e565b9484613db460065461057c565b614fd6565b614fd6565b6040518093819263679d119760e01b835260048301610c54565b03816001600160a01b037f0000000000000000000000000000000000000000000000000000000000000000165afa908115613f8b575f91613f5d575b505f14613f0b57613e32613e2b86600186016138b3565b9054610bee565b90843b15613f0757613e77945f92836040518098819582947f6b1b863a0000000000000000000000000000000000000000000000000000000084528d60048501613c44565b03925af18015613f0257613ee696613ee0966001957f9b6560650784d2522f3cbec920ec885ddafaecd6aabc1611996b0936002c7ddf93613ee8575b505b613ec460405192839283613c67565b0390a2613eda613ed484836138b3565b9061393b565b016138b3565b90613979565b565b80613ef65f613efc93611d95565b80610c28565b5f613eb3565b6138e9565b5f80fd5b507f9b6560650784d2522f3cbec920ec885ddafaecd6aabc1611996b0936002c7ddf613ee69686613f58600196613ee099613f52613f4b8b8b8b016138b3565b9054610bee565b91614acb565b613eb5565b613f7e915060203d8111613f84575b613f768183611d95565b8101906138cd565b5f613e14565b503d613f6c565b6138e9565b5050505050505050505b565b613fbe915060203d602011613fc4575b613fb68183611d95565b810190613b07565b5f613d12565b503d613fac565b6138e9565b9390926040959295517f31574546000000000000000000000000000000000000000000000000000000008152602081600481895afa9081156142f157600391614020915f916142c2575b50610bd2565b0154925f5b85548110156142b55761404261403b82886138b3565b9054610c36565b6001600160a01b0381166001600160a01b038616146140645750600101614025565b869798836001899499019783808361407c8d8d6138b3565b90549061408891610bee565b9760050154614097908961525e565b936140a2908961525e565b936006546140af9061057c565b926140b993614fd6565b6140c293614fd6565b604051809163679d119760e01b825260048201906140df91610c54565b03817f00000000000000000000000000000000000000000000000000000000000000006001600160a01b031691815a93602094fa9081156142b0575f91614282575b505f146142235761414c61414761414261413b898b6138b3565b9054610c36565b61057c565b61057c565b91823b1561421f57614191925f92836040518096819582947f6b1b863a0000000000000000000000000000000000000000000000000000000084528a60048501613c44565b03925af195861561421a576141fe977f9b6560650784d2522f3cbec920ec885ddafaecd6aabc1611996b0936002c7ddf6141f3956141ed9589956141f89b614200575b505b6141e560405192839283613c67565b0390a26138b3565b9061393b565b6138b3565b90613979565b565b8061420e5f61421493611d95565b80610c28565b5f6141d4565b6138e9565b5f80fd5b859150956141fe977f9b6560650784d2522f3cbec920ec885ddafaecd6aabc1611996b0936002c7ddf6141f3958561427d6141f89b6141ed9861427861427361426c8b8b6138b3565b9054610c36565b61057c565b614acb565b6141d6565b6142a3915060203d81116142a9575b61429b8183611d95565b8101906138cd565b5f614121565b503d614291565b6138e9565b5050505050505050613f9a565b6142e4915060203d6020116142ea575b6142dc8183611d95565b810190613b07565b5f61401a565b503d6142d2565b6138e9565b90602080835192838152019201905f5b8181106143135750505090565b9091926020806001926001600160a01b0387511681520194019101919091614306565b90602080835192838152019201905f5b8181106143535750505090565b909192602080600192865181520194019101919091614346565b6040516144278161441960208201946020865280516040840152602081015160608401526001600160a01b0360408201511660808401526143b6606082015160a0850190610c47565b608081015160c084015260a081015160e084015260e06143e660c0830151610100808701526101408601906142f6565b9101517fffffffffffffffffffffffffffffffffffffffffffffffffffffffffffffffc084830301610120850152614336565b03601f198101835282611d95565b51902090565b6040516144dc81602081019360208552805160408301526001600160a01b03602082015116606083015260408101516080830152606081015160a08301526144ce60c06144c061448c608085015160e084880152610120870190611f9b565b60a08501517fffffffffffffffffffffffffffffffffffffffffffffffffffffffffffffffc08783030160e0880152611f9b565b920151610100840190612073565b03601f198101835282611d95565b51902090565b906144ec82611de0565b6144f96040519182611d95565b828152601f196145098294611de0565b0190602036910137565b80518210156145275760209160051b010190565b61389f565b9067ffffffffffffffff83116145795761454683836139ca565b905f5260205f205f5b83811061455c5750505050565b600190602084359461456d86610588565b0193818401550161454f565b611d60565b979695926145d2946145a86145c4946145b69360c060208e60a09c988152015260c08d0191613b73565b908a820360408c0152614336565b9088820360608a0152614336565b908682036080880152614336565b930152565b60038210156145e35752565b634e487b7160e01b5f52602160045260245ffd5b5f198260011b9260031b1c19161790565b5f90808252602082209081548360011b905f198560031b1c191617905555565b9190601f8111614638575b505050565b614662925f5260205f20906020601f840160051c8301931061466a575b601f0160051c0190613989565b5f8080614633565b9150601f81929050614655565b919091825167ffffffffffffffff81116147375761469f816146998454611dfe565b84614628565b6020601f82116001146146d35781906146c29394955f926146c7575b50506145f7565b90555b565b90915001515f806146bb565b601f198216906146e284611d57565b915f5b81811061471f57509583600195969710614707575b505050811b0190556146c5565b01515f1960f88460031b161c191690555f80806146fa565b9192602060018192868b0151815501940192016146e5565b611d60565b81519168010000000000000000831161480d578154838355808410614797575b50602061476a910191611d57565b5f915b83831061477a5750505050565b600160208261478b83945186614677565b0192019201919061476d565b825f528360205f2091820191015b8181106147b2575061475c565b806147bf60019254611dfe565b806147cc575b50016147a5565b601f811183146147e157505f81555b5f6147c5565b6147ff9083601f6147f185611d57565b920160051c82019101613989565b61480881614608565b6147db565b611d60565b90805180519067ffffffffffffffff82116148b2576801000000000000000082116148ad578354828555808310614886575b5060200161485184611d57565b5f5b83811061487257505050509060016020614870930151910161473c565b565b600190602084519401938184015501614853565b845f528260205f2091820191015b8181106148a15750614844565b6001905f815501614894565b611d60565b611d60565b9060c0600891805184556148db6001600160a01b0360208301511660018601613ab8565b6040810151600285015560608101516003850155614900608082015160048601614812565b61491160a082015160068601614812565b01519161491d83612055565b019060038110156149375760ff60ff198354169116179055565b634e487b7160e01b5f52602160045260245ffd5b60409061496993959492956060820196825260208201520190612073565b565b96929591959390936bffffffffffffffffffffffff19604051978896602088019a8b52604088015260601b1660608601526074850152609484015260b4830193905f5b818110614a025750505060208151939101925f5b8181106149e45750506149de925003601f198101835282611d95565b51902090565b916001919350602080918651815201940191019184929391936149c2565b91935091936020806001926001600160a01b038735614a2081610588565b168152019401910191859394926149ae565b7f9b779b17422d0df92223018b32b4d1fa46e071723d6817e2486d003becc55f005c614a7e5760017f9b779b17422d0df92223018b32b4d1fa46e071723d6817e2486d003becc55f005d565b7f3ee5aeb5000000000000000000000000000000000000000000000000000000005f5260045ffd5b5f7f9b779b17422d0df92223018b32b4d1fa46e071723d6817e2486d003becc55f005d565b5f91826044926020956001600160a01b03604051947fa9059cbb00000000000000000000000000000000000000000000000000000000865216600485015260248401525af13d15601f3d1160015f511416171615614b2557565b60646040517f08c379a000000000000000000000000000000000000000000000000000000000815260206004820152600f60248201527f5452414e534645525f4641494c454400000000000000000000000000000000006044820152fd5b91908203918211614b9057565b6138f4565b94929060899694926bffffffffffffffffffffffff19809260601b16875260601b16601486015260288501526048840152151560f81b606883015260698201520190565b818114614c415781549167ffffffffffffffff8311614c3c57614bfc83836139ca565b5f5260205f20905f5260205f208154915f925b848410614c1d575050505050565b60016001600160a01b0381921692019384549281850155019290614c0f565b611d60565b5050565b81519167ffffffffffffffff8311614c8f57602090614c6484846139ca565b01905f5260205f205f5b838110614c7b5750505050565b600190602084519401938184015501614c6e565b611d60565b740100000000000000000000000000000000000000007fffffffffffffffffffffff00ffffffffffffffffffffffffffffffffffffffff825416179055565b602081830312614dc35780519067ffffffffffffffff8211614dbf57019080601f83011215614dbb57815191614d0883611de0565b92614d166040519485611d95565b80845260208085019160051b83010191838311614db75760208101915b838310614d4257505050505090565b825167ffffffffffffffff8111614db357820185603f82011215614daf57602081015191614d6f83612bd2565b614d7c6040519182611d95565b83815287602080868601010111614dab575f602085819660408397018386015e83010152815201920191614d33565b5f80fd5b5f80fd5b5f80fd5b5f80fd5b5f80fd5b5f80fd5b5f80fd5b6040810160408252825480915260608201925f5260205f20905f5b818110614e4d5750505060208183039101528154808252602082019160208260051b820101935f5260205f20925f915b838310614e2157505050505090565b909192939460206001614e3e83601f198684960301875289611e36565b97019301930191939290614e12565b909193600160208192875481520195019101919091614de2565b9390614eb395936001600160a01b03614ea594614e9793885216602087015260a0604087015260a0860190614336565b908482036060860152614336565b916080818403910152614336565b90565b6001600160a01b03166040517f31574546000000000000000000000000000000000000000000000000000000008152602081600481855afa8015614fd157614f0a5f91614f45938391614fa2575b50610bd2565b604051809381927f0e4ab719000000000000000000000000000000000000000000000000000000008352600660078201910160048401614dc7565b038183865af18015614f9d57614f7d575b507f7b7bc39f04c66f582deafe98cb5ced52fc317e6a41b90b440ba2a24fad2a766f5f80a2565b614f98903d805f833e614f908183611d95565b810190614cd3565b614f56565b6138e9565b614fc4915060203d602011614fca575b614fbc8183611d95565b810190613b07565b5f614f04565b503d614fb2565b6138e9565b91929060405163679d119760e01b815260208180614ff78560048301610c54565b03816001600160a01b037f0000000000000000000000000000000000000000000000000000000000000000165afa908115615111575f916150e2575b505f146150bd576001600160a01b0316803b156150b957615087935f8094604051968795869485937f6b1b863a00000000000000000000000000000000000000000000000000000000855260048501613c44565b03925af180156150b45761509a575b505b565b806150a85f6150ae93611d95565b80610c28565b5f615096565b6138e9565b5f80fd5b6150d391506150ce6150db93610cae565b610cc5565b918254613929565b9055615098565b615104915060203d60201161510a575b6150fc8183611d95565b8101906138cd565b5f615033565b503d6150f2565b6138e9565b9035907fffffffffffffffffffffffffffffffffffffffffffffffffffffffffffffffe181360301821215615172570180359067ffffffffffffffff821161516e57602001918160051b3603831361516a57565b5f80fd5b5f80fd5b5f80fd5b7fffffffffffffffffffffff00ffffffffffffffffffffffffffffffffffffffff8154169055565b905f6064926020956001600160a01b03839681604051967f23b872dd00000000000000000000000000000000000000000000000000000000885216600487015216602485015260448401525af13d15601f3d1160015f51141617161561520057565b60646040517f08c379a000000000000000000000000000000000000000000000000000000000815260206004820152601460248201527f5452414e534645525f46524f4d5f4641494c45440000000000000000000000006044820152fd5b90805f19048211810215670de0b6b3a7640000021561528657670de0b6b3a764000091020490565b5f80fd5b7812725dd1d243aba0e75fe645cc4873f9e65afe688c928e1f218111670de0b6b3a764000002158202156152c657670de0b6b3a7640000020490565b5f80fd5b9190918251604051917f3d610000000000000000000000000000000000000000000000000000000000008352603a820160f01b60028401527f80600b3d3981f30000000000000000000000000000000000000000000000000060048401527f363d3d3761000000000000000000000000000000000000000000000000000000600b8401526002820160f01b8060108501527f603836393d3d3d366100000000000000000000000000000000000000000000006012850152601b8401527f013d730000000000000000000000000000000000000000000000000000000000601d84015260601b60208301527f5af43d82803e903d91603657fd5bf300000000000000000000000000000000006034830152809360206043840191015b602086101561544a579460459394955f19826020036101000a011990511682528260f01b91015201905ff0906001600160a01b0382161561542257565b7febfef188000000000000000000000000000000000000000000000000000000005f5260045ffd5b90602080601f1992845181520192019501946153e5565b9283859661548187615486969895988461547c60065461057c565b614fd6565b614fd6565b60405163679d119760e01b8152602081806154a48560048301610c54565b03816001600160a01b037f0000000000000000000000000000000000000000000000000000000000000000165afa9081156155b4575f91615585575b505f1461556b576001600160a01b031691823b1561556757615535925f92836040518096819582947f6b1b863a0000000000000000000000000000000000000000000000000000000084523360048501613c44565b03925af1801561556257615548575b505b565b806155565f61555c93611d95565b80610c28565b5f615544565b6138e9565b5f80fd5b61558092506001600160a01b03339116614acb565b615546565b6155a7915060203d6020116155ad575b61559f8183611d95565b8101906138cd565b5f6154e0565b503d615595565b6138e9565b9160409194936001600160a01b0380926060860197865216602085015216910152565b6001600160a01b03909493949291921680155f1461560457509061560193929161519e565b5b565b6156436020915f946040519586809481937fb460af940000000000000000000000000000000000000000000000000000000083528a8c600485016155b9565b03925af190811561573a576001600160a01b03936020936156999361570f575b506040519485809481937f70a0823100000000000000000000000000000000000000000000000000000000835260048301610c54565b0392165afa90811561570a575f916156db575b501015615602577fd5a801fc000000000000000000000000000000000000000000000000000000005f5260045ffd5b6156fd915060203d602011615703575b6156f58183611d95565b810190613b07565b5f6156ac565b503d6156eb565b6138e9565b61572e90853d8711615733575b6157268183611d95565b810190613b07565b615663565b503d61571c565b6138e9565b939594909492919261575081612055565b155f146158f75761577b9061577261576960065461057c565b85873392614fd6565b82853392614fd6565b60405163679d119760e01b8152602081806157998760048301610c54565b03816001600160a01b037f0000000000000000000000000000000000000000000000000000000000000000165afa9081156158f2575f916158c3575b505f146158645750506001600160a01b031691823b156158605761582d925f92836040518096819582947f6b1b863a000000000000000000000000000000000000000000000000000000008452339160048501613c44565b03925af1801561585b57615841575b505b5b565b8061584f5f61585593611d95565b80610c28565b5f61583c565b6138e9565b5f80fd5b8294923b1561589b5761588761588f916001600160a01b03615896971693613929565b30338461519e565b339061519e565b61583e565b7fceea21b6000000000000000000000000000000000000000000000000000000005f5260045ffd5b6158e5915060203d6020116158eb575b6158dd8183611d95565b8101906138cd565b5f6157d5565b503d6158d3565b6138e9565b5093506001600160a01b039291927f0000000000000000000000000000000000000000000000000000000000000000169360405163679d119760e01b8152602081806159468860048301610c54565b0381895afa908115615b3d575f91615b0e575b505f14615aae575050506001600160a01b0316906040517f1281cd00000000000000000000000000000000000000000000000000000000008152602081600481865afa8015615aa9576001600160a01b03915f91615a7a575b501614908115916159f1575b506159c9575b61583f565b7fbfc5dab8000000000000000000000000000000000000000000000000000000005f5260045ffd5b9050602060405180927fe91929b60000000000000000000000000000000000000000000000000000000082528180615a2c3360048301610c54565b03915afa908115615a75575f91615a46575b50155f6159be565b615a68915060203d602011615a6e575b615a608183611d95565b8101906138cd565b5f615a3e565b503d615a56565b6138e9565b615a9c915060203d602011615aa2575b615a948183611d95565b810190613aeb565b5f6159b2565b503d615a8a565b6138e9565b90919350823b15615ae657615ac9615ace92615ae195613929565b613929565b9030906001600160a01b0333911661519e565b6159c4565b7fceea21b6000000000000000000000000000000000000000000000000000000005f5260045ffd5b615b30915060203d602011615b36575b615b288183611d95565b8101906138cd565b5f615959565b503d615b1e565b6138e956",
    "linkReferences": {}
  },
  "methodIdentifiers": {
    "MIN_FILL_PERCENT()": "38e96749",
    "POINTS_FACTORY()": "250b9ded",
    "WEIROLL_WALLET_IMPLEMENTATION()": "22b04e14",
    "cancelAPOffer((uint256,bytes32,address,address,uint256,uint256,address[],uint256[]))": "2e0a1122",
    "cancelIPOffer(bytes32)": "05c21582",
    "claim(address,address,address)": "5e1c75e1",
    "createAPOffer(bytes32,address,uint256,uint256,address[],uint256[])": "45ccb466",
    "createIPOffer(bytes32,uint256,uint256,address[],uint256[])": "ee46ebc6",
    "createMarket(address,uint256,uint256,(bytes32[],bytes[]),(bytes32[],bytes[]),uint8)": "f6242301",
    "executeWithdrawalScript(address)": "69029181",
    "feeClaimantToTokenToAmount(address,address)": "0cadba1a",
    "fillAPOffers((uint256,bytes32,address,address,uint256,uint256,address[],uint256[])[],uint256[],address)": "cd175e66",
    "fillIPOffers(bytes32[],uint256[],address,address)": "0600fc6f",
    "forfeit(address,bool)": "28b0c235",
    "getAPOfferHash((uint256,bytes32,address,address,uint256,uint256,address[],uint256[]))": "8d084ba3",
    "getIPOfferHash(uint256,bytes32,address,uint256,uint256,address[],uint256[])": "f94b5199",
    "getMarketHash((uint256,address,uint256,uint256,(bytes32[],bytes[]),(bytes32[],bytes[]),uint8))": "d1216f24",
    "marketHashToWeirollMarket(bytes32)": "645b1b5b",
    "minimumFrontendFee()": "f3256c81",
    "numAPOffers()": "80dd127a",
    "numIPOffers()": "82ae91d1",
    "numMarkets()": "26e04f9d",
    "offerHashToIPOffer(bytes32)": "15a0c8bd",
    "offerHashToRemainingQuantity(bytes32)": "0718f4a5",
    "owner()": "8da5cb5b",
    "protocolFee()": "b0e21e8a",
    "protocolFeeClaimant()": "072fc961",
    "setMinimumFrontendFee(uint256)": "fcd9664b",
    "setOffersPaused(bool)": "ec1d465e",
    "setProtocolFee(uint256)": "787dce3d",
    "setProtocolFeeClaimant(address)": "15a2fdee",
    "transferOwnership(address)": "f2fde38b",
    "weirollWalletToLockedIncentivesParams(address)": "508d629d"
  },
  "id": 37
}