{
  "abi": [
    {
      "type": "constructor",
      "inputs": [],
      "stateMutability": "nonpayable"
    },
    {
      "type": "function",
      "name": "MIN_CAMPAIGN_DURATION",
      "inputs": [],
      "outputs": [
        {
          "name": "",
          "type": "uint256",
          "internalType": "uint256"
        }
      ],
      "stateMutability": "view"
    },
    {
      "type": "function",
      "name": "acceptOwnership",
      "inputs": [],
      "outputs": [],
      "stateMutability": "nonpayable"
    },
    {
      "type": "function",
      "name": "allocateOffer",
      "inputs": [
        {
          "name": "offer",
          "type": "tuple",
          "internalType": "struct VaultKernel.APOffer",
          "components": [
            {
              "name": "offerID",
              "type": "uint256",
              "internalType": "uint256"
            },
            {
              "name": "targetVault",
              "type": "address",
              "internalType": "address"
            },
            {
              "name": "ap",
              "type": "address",
              "internalType": "address"
            },
            {
              "name": "fundingVault",
              "type": "address",
              "internalType": "address"
            },
            {
              "name": "expiry",
              "type": "uint256",
              "internalType": "uint256"
            },
            {
              "name": "incentivesRequested",
              "type": "address[]",
              "internalType": "address[]"
            },
            {
              "name": "incentivesRatesRequested",
              "type": "uint256[]",
              "internalType": "uint256[]"
            }
          ]
        }
      ],
      "outputs": [],
      "stateMutability": "nonpayable"
    },
    {
      "type": "function",
      "name": "allocateOffer",
      "inputs": [
        {
          "name": "offer",
          "type": "tuple",
          "internalType": "struct VaultKernel.APOffer",
          "components": [
            {
              "name": "offerID",
              "type": "uint256",
              "internalType": "uint256"
            },
            {
              "name": "targetVault",
              "type": "address",
              "internalType": "address"
            },
            {
              "name": "ap",
              "type": "address",
              "internalType": "address"
            },
            {
              "name": "fundingVault",
              "type": "address",
              "internalType": "address"
            },
            {
              "name": "expiry",
              "type": "uint256",
              "internalType": "uint256"
            },
            {
              "name": "incentivesRequested",
              "type": "address[]",
              "internalType": "address[]"
            },
            {
              "name": "incentivesRatesRequested",
              "type": "uint256[]",
              "internalType": "uint256[]"
            }
          ]
        },
        {
          "name": "fillAmount",
          "type": "uint256",
          "internalType": "uint256"
        }
      ],
      "outputs": [],
      "stateMutability": "nonpayable"
    },
    {
      "type": "function",
      "name": "allocateOffers",
      "inputs": [
        {
          "name": "offers",
          "type": "tuple[]",
          "internalType": "struct VaultKernel.APOffer[]",
          "components": [
            {
              "name": "offerID",
              "type": "uint256",
              "internalType": "uint256"
            },
            {
              "name": "targetVault",
              "type": "address",
              "internalType": "address"
            },
            {
              "name": "ap",
              "type": "address",
              "internalType": "address"
            },
            {
              "name": "fundingVault",
              "type": "address",
              "internalType": "address"
            },
            {
              "name": "expiry",
              "type": "uint256",
              "internalType": "uint256"
            },
            {
              "name": "incentivesRequested",
              "type": "address[]",
              "internalType": "address[]"
            },
            {
              "name": "incentivesRatesRequested",
              "type": "uint256[]",
              "internalType": "uint256[]"
            }
          ]
        },
        {
          "name": "fillAmounts",
          "type": "uint256[]",
          "internalType": "uint256[]"
        }
      ],
      "outputs": [],
      "stateMutability": "nonpayable"
    },
    {
      "type": "function",
      "name": "cancelOffer",
      "inputs": [
        {
          "name": "offer",
          "type": "tuple",
          "internalType": "struct VaultKernel.APOffer",
          "components": [
            {
              "name": "offerID",
              "type": "uint256",
              "internalType": "uint256"
            },
            {
              "name": "targetVault",
              "type": "address",
              "internalType": "address"
            },
            {
              "name": "ap",
              "type": "address",
              "internalType": "address"
            },
            {
              "name": "fundingVault",
              "type": "address",
              "internalType": "address"
            },
            {
              "name": "expiry",
              "type": "uint256",
              "internalType": "uint256"
            },
            {
              "name": "incentivesRequested",
              "type": "address[]",
              "internalType": "address[]"
            },
            {
              "name": "incentivesRatesRequested",
              "type": "uint256[]",
              "internalType": "uint256[]"
            }
          ]
        }
      ],
      "outputs": [],
      "stateMutability": "nonpayable"
    },
    {
      "type": "function",
      "name": "createAPOffer",
      "inputs": [
        {
          "name": "targetVault",
          "type": "address",
          "internalType": "address"
        },
        {
          "name": "fundingVault",
          "type": "address",
          "internalType": "address"
        },
        {
          "name": "quantity",
          "type": "uint256",
          "internalType": "uint256"
        },
        {
          "name": "expiry",
          "type": "uint256",
          "internalType": "uint256"
        },
        {
          "name": "incentivesRequested",
          "type": "address[]",
          "internalType": "address[]"
        },
        {
          "name": "incentivesRatesRequested",
          "type": "uint256[]",
          "internalType": "uint256[]"
        }
      ],
      "outputs": [
        {
          "name": "",
          "type": "uint256",
          "internalType": "uint256"
        }
      ],
      "stateMutability": "nonpayable"
    },
    {
      "type": "function",
      "name": "getOfferHash",
      "inputs": [
        {
          "name": "offer",
          "type": "tuple",
          "internalType": "struct VaultKernel.APOffer",
          "components": [
            {
              "name": "offerID",
              "type": "uint256",
              "internalType": "uint256"
            },
            {
              "name": "targetVault",
              "type": "address",
              "internalType": "address"
            },
            {
              "name": "ap",
              "type": "address",
              "internalType": "address"
            },
            {
              "name": "fundingVault",
              "type": "address",
              "internalType": "address"
            },
            {
              "name": "expiry",
              "type": "uint256",
              "internalType": "uint256"
            },
            {
              "name": "incentivesRequested",
              "type": "address[]",
              "internalType": "address[]"
            },
            {
              "name": "incentivesRatesRequested",
              "type": "uint256[]",
              "internalType": "uint256[]"
            }
          ]
        }
      ],
      "outputs": [
        {
          "name": "",
          "type": "bytes32",
          "internalType": "bytes32"
        }
      ],
      "stateMutability": "pure"
    },
    {
      "type": "function",
      "name": "numOffers",
      "inputs": [],
      "outputs": [
        {
          "name": "",
          "type": "uint256",
          "internalType": "uint256"
        }
      ],
      "stateMutability": "view"
    },
    {
      "type": "function",
      "name": "offerHashToRemainingQuantity",
      "inputs": [
        {
          "name": "",
          "type": "bytes32",
          "internalType": "bytes32"
        }
      ],
      "outputs": [
        {
          "name": "",
          "type": "uint256",
          "internalType": "uint256"
        }
      ],
      "stateMutability": "view"
    },
    {
      "type": "function",
      "name": "owner",
      "inputs": [],
      "outputs": [
        {
          "name": "",
          "type": "address",
          "internalType": "address"
        }
      ],
      "stateMutability": "view"
    },
    {
      "type": "function",
      "name": "pendingOwner",
      "inputs": [],
      "outputs": [
        {
          "name": "",
          "type": "address",
          "internalType": "address"
        }
      ],
      "stateMutability": "view"
    },
    {
      "type": "function",
      "name": "renounceOwnership",
      "inputs": [],
      "outputs": [],
      "stateMutability": "nonpayable"
    },
    {
      "type": "function",
      "name": "setOffersPaused",
      "inputs": [
        {
          "name": "_offersPaused",
          "type": "bool",
          "internalType": "bool"
        }
      ],
      "outputs": [],
      "stateMutability": "nonpayable"
    },
    {
      "type": "function",
      "name": "transferOwnership",
      "inputs": [
        {
          "name": "newOwner",
          "type": "address",
          "internalType": "address"
        }
      ],
      "outputs": [],
      "stateMutability": "nonpayable"
    },
    {
      "type": "event",
      "name": "APOfferCancelled",
      "inputs": [
        {
          "name": "offerID",
          "type": "uint256",
          "indexed": true,
          "internalType": "uint256"
        }
      ],
      "anonymous": false
    },
    {
      "type": "event",
      "name": "APOfferCreated",
      "inputs": [
        {
          "name": "offerID",
          "type": "uint256",
          "indexed": true,
          "internalType": "uint256"
        },
        {
          "name": "marketID",
          "type": "address",
          "indexed": true,
          "internalType": "address"
        },
        {
          "name": "fundingVault",
          "type": "address",
          "indexed": false,
          "internalType": "address"
        },
        {
          "name": "quantity",
          "type": "uint256",
          "indexed": false,
          "internalType": "uint256"
        },
        {
          "name": "incentivesRequested",
          "type": "address[]",
          "indexed": false,
          "internalType": "address[]"
        },
        {
          "name": "incentivesRates",
          "type": "uint256[]",
          "indexed": false,
          "internalType": "uint256[]"
        },
        {
          "name": "expiry",
          "type": "uint256",
          "indexed": false,
          "internalType": "uint256"
        }
      ],
      "anonymous": false
    },
    {
      "type": "event",
      "name": "APOfferFilled",
      "inputs": [
        {
          "name": "offerID",
          "type": "uint256",
          "indexed": true,
          "internalType": "uint256"
        },
        {
          "name": "fillAmount",
          "type": "uint256",
          "indexed": false,
          "internalType": "uint256"
        }
      ],
      "anonymous": false
    },
    {
      "type": "event",
      "name": "OwnershipTransferStarted",
      "inputs": [
        {
          "name": "previousOwner",
          "type": "address",
          "indexed": true,
          "internalType": "address"
        },
        {
          "name": "newOwner",
          "type": "address",
          "indexed": true,
          "internalType": "address"
        }
      ],
      "anonymous": false
    },
    {
      "type": "event",
      "name": "OwnershipTransferred",
      "inputs": [
        {
          "name": "previousOwner",
          "type": "address",
          "indexed": true,
          "internalType": "address"
        },
        {
          "name": "newOwner",
          "type": "address",
          "indexed": true,
          "internalType": "address"
        }
      ],
      "anonymous": false
    },
    {
      "type": "error",
      "name": "ArrayLengthMismatch",
      "inputs": []
    },
    {
      "type": "error",
      "name": "CannotPlaceExpiredOffer",
      "inputs": []
    },
    {
      "type": "error",
      "name": "CannotPlaceZeroQuantityOffer",
      "inputs": []
    },
    {
      "type": "error",
      "name": "FundingVaultWithdrawFailed",
      "inputs": []
    },
    {
      "type": "error",
      "name": "MismatchedBaseAsset",
      "inputs": []
    },
    {
      "type": "error",
      "name": "NotEnoughBaseAssetToAllocate",
      "inputs": []
    },
    {
      "type": "error",
      "name": "NotEnoughBaseAssetToOffer",
      "inputs": []
    },
    {
      "type": "error",
      "name": "NotEnoughRemainingQuantity",
      "inputs": []
    },
    {
      "type": "error",
      "name": "NotOfferCreator",
      "inputs": []
    },
    {
      "type": "error",
      "name": "OfferConditionsNotMet",
      "inputs": []
    },
    {
      "type": "error",
      "name": "OfferDoesNotExist",
      "inputs": []
    },
    {
      "type": "error",
      "name": "OfferExpired",
      "inputs": []
    },
    {
      "type": "error",
      "name": "OffersPaused",
      "inputs": []
    },
    {
      "type": "error",
      "name": "OwnableInvalidOwner",
      "inputs": [
        {
          "name": "owner",
          "type": "address",
          "internalType": "address"
        }
      ]
    },
    {
      "type": "error",
      "name": "OwnableUnauthorizedAccount",
      "inputs": [
        {
          "name": "account",
          "type": "address",
          "internalType": "address"
        }
      ]
    },
    {
      "type": "error",
      "name": "ReentrancyGuardReentrantCall",
      "inputs": []
    }
  ],
  "bytecode": {
    "object": "0x60808060405234607a57331560675760018060a01b0319600154166001555f543360018060a01b03198216175f55339060018060a01b03167f8be0079c531659141344cd1fd0a4f28419497f9722a3daafe3b4186f6b6457e05f80a36139f8908161007f8239f35b631e4fbdf760e01b5f525f60045260245ffd5b5f80fdfe6080806040526004361015610013575b5f80fd5b5f3560e01c9081630718f4a5146132f4575080632bee3155146125bb57806332164ee31461186657806333b94108146112e657806361776e2514611297578063715018a6146111f657806379ba50971461111c57806382468923146110445780638aea3dc91461101f5780638da5cb5b14610ff257806399dc2c4b14610209578063cc6bee54146101e4578063e30c3978146101b6578063ec1d465e146101535763f2fde38b146100c4575f61000f565b3461014f57602060031936011261014b576001600160a01b036100e5613361565b6100ed6139b9565b16807fffffffffffffffffffffffff000000000000000000000000000000000000000060015416176001556001600160a01b035f54167f38d16b8cac22d99fc7c124b9cd0de2d3fa1faef420bfe791d8c362d765e227005f80a35f80f35b5f80fd5b5f80fd5b346101b25760206003193601126101ae576004358015158091036101aa576101796139b9565b60ff7fffffffffffffffffffffffffffffffffffffffffffffffffffffffffffffff00600354169116176003555f80f35b5f80fd5b5f80fd5b5f80fd5b346101e0575f6003193601126101dc5760206001600160a01b0360015416604051908152f35b5f80fd5b5f80fd5b34610205575f600319360112610201576020600254604051908152f35b5f80fd5b5f80fd5b34610fee576040600319360112610fea5760043567ffffffffffffffff8111610fe65761023a903690600401613393565b60243567ffffffffffffffff8111610fe25761025a903690600401613393565b9290915f937fffffffffffffffffffffffffffffffffffffffffffffffffffffffffffffff21833603015b82861015610fde578560051b84013581811215610fda578401926102aa8784886136c9565b35957f9b779b17422d0df92223018b32b4d1fa46e071723d6817e2486d003becc55f005c610fb25760017f9b779b17422d0df92223018b32b4d1fa46e071723d6817e2486d003becc55f005d60ff60035416610f8a578660808601358015159081610f80575b50610f5857610327610322368861352b565b613702565b90815f52600460205260405f2054908115610f3057818111610ef5575b505060608601906001600160a01b0361035c83613609565b161580610df0575b5f14610392577fda83f207000000000000000000000000000000000000000000000000000000005f5260045ffd5b6001600160a01b036103a383613609565b16151580610d35575b610d0d575f52600460205260405f206103c6898254613648565b90556001600160a01b036103d982613609565b16155f146109f75750600460206001600160a01b036103f9828901613609565b16604051928380926338d52e0f60e01b82525afa80156109ec5760645f9160209383916109bf575b508261042f60408b01613609565b916001600160a01b03604051937f23b872dd0000000000000000000000000000000000000000000000000000000085521660048401523060248401528c60448401525af13d15601f3d1160015f511416171615610961579290925b5f9360c0860193602087019760a08801965b6104a6878a613669565b9050811015610714578860606001600160a01b0360246104e46104df8f6104d98f866104d28b94613609565b1698613669565b906136c9565b613609565b60405194859384927f74ff7b120000000000000000000000000000000000000000000000000000000084521660048301525afa908115610709575f905f9261069a575b5063ffffffff80911691160363ffffffff81116106865763ffffffff62093a8091161061065e578a8a60206001600160a01b0360448d61059b6105968f8f8a91876105896105828561057c610590968b613669565b906136c9565b359b613609565b1695613669565b906136c9565b613609565b9060405196879485937fea43d5b300000000000000000000000000000000000000000000000000000000855216600484015260248301525afa918215610653575f92610618575b50116105f05760010161049c565b7f19db2bd2000000000000000000000000000000000000000000000000000000005f5260045ffd5b9091506020813d8211610647575b8161063360209383613400565b810103126106435751908e6105e2565b5f80fd5b602091503d9150610626565b6040513d5f823e3d90fd5b7f19db2bd2000000000000000000000000000000000000000000000000000000005f5260045ffd5b634e487b7160e01b5f52601160045260245ffd5b9150506060813d82116106fd575b816106b560609383613400565b810103126106f9576106c6816136ed565b60406106d4602084016136ed565b9201516bffffffffffffffffffffffff8116036106f55763ffffffff610527565b5f80fd5b5f80fd5b606091503d91506106a8565b6040513d5f823e3d90fd5b509694509690979198929450600460206001600160a01b0361073584613609565b16604051928380926338d52e0f60e01b82525afa80156109565761076a915f91610928575b5061076483613609565b90613849565b600460206001600160a01b0361077f84613609565b16604051928380926338d52e0f60e01b82525afa91821561091d576107c2846001600160a01b03946107c7945f916108ef575b506107bc84613609565b90613901565b613609565b1660206001600160a01b0360446107e060408801613609565b5f60405195869485937f6e553f650000000000000000000000000000000000000000000000000000000085528960048601521660248401525af180156108e457610882575b507fa4a2089146005c923582c996367d63692f1e49c333e4e3900d18844a534b83a760206001946040519384523592a25f7f9b779b17422d0df92223018b32b4d1fa46e071723d6817e2486d003becc55f005d0194939192610285565b926020843d82116108d8575b8161089b60209383613400565b810103126108d45760207fa4a2089146005c923582c996367d63692f1e49c333e4e3900d18844a534b83a7916001955150945050610825565b5f80fd5b602091503d915061088e565b6040513d5f823e3d90fd5b610910915060203d8111610916575b6109088183613400565b810190613621565b8e6107b2565b503d6108fe565b6040513d5f823e3d90fd5b610949915060203d811161094f575b6109418183613400565b810190613621565b8b61075a565b503d610937565b6040513d5f823e3d90fd5b60646040517f08c379a000000000000000000000000000000000000000000000000000000000815260206004820152601460248201527f5452414e534645525f46524f4d5f4641494c45440000000000000000000000006044820152fd5b6109df9150843d81116109e5575b6109d78183613400565b810190613621565b8c610421565b503d6109cd565b6040513d5f823e3d90fd5b6004602087019160206001600160a01b03610a1185613609565b16604051938480926338d52e0f60e01b82525afa918215610d02576001600160a01b03926020915f91610cd5575b506024604051809581936370a0823160e01b8352306004840152165afa918215610cca5788918b915f94610c6b575b509160646020925f610a9560406001600160a01b03610a8d8199613609565b169501613609565b9360405196879586947fb460af9400000000000000000000000000000000000000000000000000000000865260048601523060248601521660448401525af18015610c6057610c14575b5060206001600160a01b03610af5600494613609565b16604051938480926338d52e0f60e01b82525afa918215610c09576001600160a01b03926020915f91610bdc575b506024604051809581936370a0823160e01b8352306004840152165afa8015610bd15789925f91610b8f575b5090610b5a91613648565b10610b675792909261048a565b7ff6cd51d6000000000000000000000000000000000000000000000000000000005f5260045ffd5b919250506020813d8211610bc5575b81610bab60209383613400565b81010312610bc1578891610b5a91519091610b4f565b5f80fd5b602091503d9150610b9e565b6040513d5f823e3d90fd5b610bfc9150823d8111610c02575b610bf48183613400565b810190613621565b8c610b23565b503d610bea565b6040513d5f823e3d90fd5b6020813d8211610c54575b81610c2c60209383613400565b81010312610c50576001600160a01b03610af5600494602093515094505050610adf565b5f80fd5b602091503d9150610c1f565b6040513d5f823e3d90fd5b92509250506020813d8211610cbe575b81610c8860209383613400565b81010312610cba5760208860648c5f610a9560406001600160a01b03610a8d8199519a97995050505050509250610a6e565b5f80fd5b602091503d9150610c7b565b6040513d5f823e3d90fd5b610cf59150823d8111610cfb575b610ced8183613400565b810190613621565b8d610a3f565b503d610ce3565b6040513d5f823e3d90fd5b7fda83f207000000000000000000000000000000000000000000000000000000005f5260045ffd5b506001600160a01b03610d4783613609565b1660206001600160a01b036024610d6060408c01613609565b60405194859384927fce96cb770000000000000000000000000000000000000000000000000000000084521660048301525afa8015610de5578a915f91610da9575b50106103ac565b9150506020813d8211610dd9575b81610dc460209383613400565b81010312610dd5578990518c610da2565b5f80fd5b602091503d9150610db7565b6040513d5f823e3d90fd5b50600460206001600160a01b03610e08828b01613609565b16604051928380926338d52e0f60e01b82525afa908115610eea575f91610ebc575b5060206001600160a01b036024610e4360408c01613609565b8260405195869485936370a0823160e01b8552166004840152165afa8015610eb1578a915f91610e75575b5010610364565b9150506020813d8211610ea5575b81610e9060209383613400565b81010312610ea1578990518c610e6e565b5f80fd5b602091503d9150610e83565b6040513d5f823e3d90fd5b610edd915060203d8111610ee3575b610ed58183613400565b810190613621565b8b610e2a565b503d610ecb565b6040513d5f823e3d90fd5b5f199192995003610f0857968980610344565b7fc6c2d6bf000000000000000000000000000000000000000000000000000000005f5260045ffd5b7f74dbff79000000000000000000000000000000000000000000000000000000005f5260045ffd5b7f9cb13087000000000000000000000000000000000000000000000000000000005f5260045ffd5b905042118a610310565b7f2bae2620000000000000000000000000000000000000000000000000000000005f5260045ffd5b7f3ee5aeb5000000000000000000000000000000000000000000000000000000005f5260045ffd5b5f80fd5b5f80f35b5f80fd5b5f80fd5b5f80fd5b5f80fd5b3461101b575f6003193601126110175760206001600160a01b035f5416604051908152f35b5f80fd5b5f80fd5b34611040575f60031936011261103c57602060405162093a808152f35b5f80fd5b5f80fd5b346111185761105236613322565b61105e60408201613609565b6001600160a01b03339116036110f05761108061107b368361352b565b613702565b805f52600460205260405f2054156110c8575f5260046020525f6040812055357fc119b2a9f2c0af908846721da7bfe8d805bf89852059096b41b6e1bfb808fd785f80a25f80f35b7f74dbff79000000000000000000000000000000000000000000000000000000005f5260045ffd5b7fe8439f49000000000000000000000000000000000000000000000000000000005f5260045ffd5b5f80fd5b346111f2575f6003193601126111ee57336001600160a01b0360015416036111c2577fffffffffffffffffffffffff0000000000000000000000000000000000000000600154166001555f54337fffffffffffffffffffffffff00000000000000000000000000000000000000008216175f556001600160a01b033391167f8be0079c531659141344cd1fd0a4f28419497f9722a3daafe3b4186f6b6457e05f80a35f80f35b7f118cdaa7000000000000000000000000000000000000000000000000000000005f523360045260245ffd5b5f80fd5b5f80fd5b34611293575f60031936011261128f5761120e6139b9565b7fffffffffffffffffffffffff0000000000000000000000000000000000000000600154166001555f6001600160a01b0381547fffffffffffffffffffffffff000000000000000000000000000000000000000081168355167f8be0079c531659141344cd1fd0a4f28419497f9722a3daafe3b4186f6b6457e08280a35f80f35b5f80fd5b5f80fd5b346112e25760206003193601126112de5760043567ffffffffffffffff81116112da576112d26112cd602092369060040161352b565b613702565b604051908152f35b5f80fd5b5f80fd5b5f80fd5b346118625760c060031936011261185e576112ff613361565b6024356001600160a01b03811680910361185a57604435916064359160843567ffffffffffffffff81116118565761133b903690600401613393565b9360a43567ffffffffffffffff81116118525761135c903690600401613393565b91909281151580611849575b6118215787156117f9578287036117d15784158015908180926116f4575b6116cc57806115df575b5f146113be577fa6b8270c000000000000000000000000000000000000000000000000000000005f5260045ffd5b8061154b575b611523576001600160a01b03600254961696604051928160a085018886528b602087015260a060408701525260c0840196835f5b8481106114fd57505084880360608601528588527f07ffffffffffffffffffffffffffffffffffffffffffffffffffffffffffffff86116114f957896114bc9a8a7f8c1569bc69297c9329ed9599fdcf2fa02da0b7485c2d702b35499b18218b1daa8860206114a69a8d6114b29f8e60051b8092858301378a608084015201030190a3604051996114888b6133d0565b8a5260208a01523360408a0152606089015260808801523691613482565b60a085015236916134da565b60c0820152613702565b5f52600460205260405f20556002545f1981146114e55780600160209201600255604051908152f35b634e487b7160e01b5f52601160045260245ffd5b5f80fd5b90986020806001926001600160a01b036115168e61337b565b168152019a0191016113f8565b7fa6b8270c000000000000000000000000000000000000000000000000000000005f5260045ffd5b506040517fce96cb77000000000000000000000000000000000000000000000000000000008152336004820152602081602481895afa80156115d45789915f91611597575b50106113c4565b9150506020813d6020116115c8575b816115b360209383613400565b810103126115c4578890518a611590565b5f80fd5b602091503d91506115a6565b6040513d5f823e3d90fd5b506040516338d52e0f60e01b81526020816004816001600160a01b038c165afa9081156116c1576001600160a01b03916020915f91611694575b506024604051809481936370a0823160e01b8352336004840152165afa8015611689578a915f9161164c575b5010611390565b9150506020813d60201161167d575b8161166860209383613400565b81010312611679578990518b611645565b5f80fd5b602091503d915061165b565b6040513d5f823e3d90fd5b6116b49150823d84116116ba575b6116ac8183613400565b810190613621565b8c611619565b503d6116a2565b6040513d5f823e3d90fd5b7f380b4009000000000000000000000000000000000000000000000000000000005f5260045ffd5b506040516338d52e0f60e01b81526020816004816001600160a01b038d165afa9081156117c6575f91611797575b506040516338d52e0f60e01b81526020816004818c5afa90811561178c576001600160a01b039182915f9161175d575b501691161415611386565b61177f915060203d602011611785575b6117778183613400565b810190613621565b8e611752565b503d61176d565b6040513d5f823e3d90fd5b6117b9915060203d6020116117bf575b6117b18183613400565b810190613621565b8b611722565b503d6117a7565b6040513d5f823e3d90fd5b7fa24a13a6000000000000000000000000000000000000000000000000000000005f5260045ffd5b7f9750f074000000000000000000000000000000000000000000000000000000005f5260045ffd5b7f5b22d1a9000000000000000000000000000000000000000000000000000000005f5260045ffd5b50428210611368565b5f80fd5b5f80fd5b5f80fd5b5f80fd5b5f80fd5b346125b75760406003193601126125b35760043567ffffffffffffffff81116125af57806004019060e060031982360301126125ab57602435907f9b779b17422d0df92223018b32b4d1fa46e071723d6817e2486d003becc55f005c6125835760017f9b779b17422d0df92223018b32b4d1fa46e071723d6817e2486d003becc55f005d60ff6003541661255b578160848201358015159081612551575b506125295761191b611916368661352b565b613702565b90815f52600460205260405f2054908115612501578181116124c6575b505060648201906001600160a01b0361195083613609565b1615806123be575b5f14611986577fda83f207000000000000000000000000000000000000000000000000000000005f5260045ffd5b6001600160a01b0361199783613609565b16151580612302575b6122da575f52600460205260405f206119ba848254613648565b90556001600160a01b036119cd82613609565b16155f14611fd95750600460206001600160a01b036119ee60248501613609565b16604051928380926338d52e0f60e01b82525afa8015611fce5760645f916020938391611fa1575b5082611a2460448701613609565b916001600160a01b03604051937f23b872dd0000000000000000000000000000000000000000000000000000000085521660048401523060248401528760448401525af13d15601f3d1160015f511416171615611f4357915b5f9060c4840191602485019260a48601915b611a998285613669565b9050811015611d0f576001600160a01b03611ab386613609565b1660606001600160a01b036024611adc611ad786611ad18a8c613669565b906136c9565b613609565b60405194859384927f74ff7b120000000000000000000000000000000000000000000000000000000084521660048301525afa908115611d04575f905f92611c95575b5063ffffffff80911691160363ffffffff8111611c815763ffffffff62093a80911610611c5957611b5a81611b548487613669565b906136c9565b356001600160a01b03611b6c87613609565b169060206001600160a01b036044611b96611b9187611b8b8b8d613669565b906136c9565b613609565b60405195869384927fea43d5b30000000000000000000000000000000000000000000000000000000084521660048301528c60248301525afa918215611c4e575f92611c13575b5011611beb57600101611a8f565b7f19db2bd2000000000000000000000000000000000000000000000000000000005f5260045ffd5b9091506020813d8211611c42575b81611c2e60209383613400565b81010312611c3e57519089611bdd565b5f80fd5b602091503d9150611c21565b6040513d5f823e3d90fd5b7f19db2bd2000000000000000000000000000000000000000000000000000000005f5260045ffd5b634e487b7160e01b5f52601160045260245ffd5b9150506060813d8211611cf8575b81611cb060609383613400565b81010312611cf457611cc1816136ed565b6040611ccf602084016136ed565b9201516bffffffffffffffffffffffff811603611cf05763ffffffff611b1f565b5f80fd5b5f80fd5b606091503d9150611ca3565b6040513d5f823e3d90fd5b85848860048860206001600160a01b03611d2883613609565b16604051938480926338d52e0f60e01b82525afa918215611f3857600492611d61915f91611f09575b50611d5b83613609565b90613849565b60206001600160a01b03611d7483613609565b16604051938480926338d52e0f60e01b82525afa8015611efe57611dcd60446001600160a01b03611dc58195611dc08b859760209a5f91611ed1575b50611dba84613609565b90613901565b613609565b169501613609565b5f60405195869485937f6e553f650000000000000000000000000000000000000000000000000000000085528a60048601521660248401525af18015611ec657611e67575b5060207fa4a2089146005c923582c996367d63692f1e49c333e4e3900d18844a534b83a7916040519384523592a25f7f9b779b17422d0df92223018b32b4d1fa46e071723d6817e2486d003becc55f005d5f80f35b6020813d602011611eba575b81611e8060209383613400565b81010312611eb6577fa4a2089146005c923582c996367d63692f1e49c333e4e3900d18844a534b83a79160209151509150611e12565b5f80fd5b602091503d9150611e73565b6040513d5f823e3d90fd5b611ef191508b3d8d11611ef7575b611ee98183613400565b810190613621565b8e611db0565b503d611edf565b6040513d5f823e3d90fd5b611f2b915060203d602011611f31575b611f238183613400565b810190613621565b87611d51565b503d611f19565b6040513d5f823e3d90fd5b60646040517f08c379a000000000000000000000000000000000000000000000000000000000815260206004820152601460248201527f5452414e534645525f46524f4d5f4641494c45440000000000000000000000006044820152fd5b611fc19150843d8611611fc7575b611fb98183613400565b810190613621565b87611a16565b503d611faf565b6040513d5f823e3d90fd5b6004602483019160206001600160a01b03611ff385613609565b16604051938480926338d52e0f60e01b82525afa9182156122cf576001600160a01b03926020915f916122a2575b506024604051809581936370a0823160e01b8352306004840152165afa918215612297575f9261224e575b5061205e6001600160a01b0391613609565b1660206001600160a01b03606461207760448801613609565b5f60405195869485937fb460af940000000000000000000000000000000000000000000000000000000085528c60048601523060248601521660448401525af18015612243576121f6575b5060206001600160a01b036120d8600494613609565b16604051938480926338d52e0f60e01b82525afa9182156121eb576001600160a01b03926020915f916121be575b506024604051809581936370a0823160e01b8352306004840152165afa80156121b35784925f91612170575b509061213d91613648565b106121485791611a7d565b7ff6cd51d6000000000000000000000000000000000000000000000000000000005f5260045ffd5b919250506020813d6020116121a7575b8161218d60209383613400565b810103126121a357839161213d91519091612132565b5f80fd5b602091503d9150612180565b6040513d5f823e3d90fd5b6121de9150823d84116121e4575b6121d68183613400565b810190613621565b87612106565b503d6121cc565b6040513d5f823e3d90fd5b6020813d602011612237575b8161220f60209383613400565b81010312612233576001600160a01b036120d86004946020935150945050506120c2565b5f80fd5b602091503d9150612202565b6040513d5f823e3d90fd5b9091506020813d60201161228b575b8161226a60209383613400565b810103126122875761205e6001600160a01b03915192915061204c565b5f80fd5b602091503d915061225d565b6040513d5f823e3d90fd5b6122c29150823d84116122c8575b6122ba8183613400565b810190613621565b88612021565b503d6122b0565b6040513d5f823e3d90fd5b7fda83f207000000000000000000000000000000000000000000000000000000005f5260045ffd5b506001600160a01b0361231483613609565b1660206001600160a01b03602461232d60448801613609565b60405194859384927fce96cb770000000000000000000000000000000000000000000000000000000084521660048301525afa80156123b35785915f91612376575b50106119a0565b9150506020813d6020116123a7575b8161239260209383613400565b810103126123a3578490518761236f565b5f80fd5b602091503d9150612385565b6040513d5f823e3d90fd5b50600460206001600160a01b036123d760248701613609565b16604051928380926338d52e0f60e01b82525afa9081156124bb575f9161248c575b5060206001600160a01b03602461241260448801613609565b8260405195869485936370a0823160e01b8552166004840152165afa80156124815785915f91612444575b5010611958565b9150506020813d602011612475575b8161246060209383613400565b81010312612471578490518761243d565b5f80fd5b602091503d9150612453565b6040513d5f823e3d90fd5b6124ae915060203d6020116124b4575b6124a68183613400565b810190613621565b866123f9565b503d61249c565b6040513d5f823e3d90fd5b5f1991929450036124d957918480611938565b7fc6c2d6bf000000000000000000000000000000000000000000000000000000005f5260045ffd5b7f74dbff79000000000000000000000000000000000000000000000000000000005f5260045ffd5b7f9cb13087000000000000000000000000000000000000000000000000000000005f5260045ffd5b9050421185611904565b7f2bae2620000000000000000000000000000000000000000000000000000000005f5260045ffd5b7f3ee5aeb5000000000000000000000000000000000000000000000000000000005f5260045ffd5b5f80fd5b5f80fd5b5f80fd5b5f80fd5b346132f0576125c936613322565b60ff600354166132c8576125e56125e0368361352b565b613702565b5f52600460205260405f20547f9b779b17422d0df92223018b32b4d1fa46e071723d6817e2486d003becc55f005c6132a05760017f9b779b17422d0df92223018b32b4d1fa46e071723d6817e2486d003becc55f005d8060808301358015159081613296575b5061326e5761266261265d368561352b565b613702565b90815f52600460205260405f20549081156132465781811161320b575b505060608301906001600160a01b0361269783613609565b161580613104575b5f146126cd577fda83f207000000000000000000000000000000000000000000000000000000005f5260045ffd5b6001600160a01b036126de83613609565b16151580613048575b613020575f52600460205260405f20612701838254613648565b90556001600160a01b0361271482613609565b16155f14612d245750600460206001600160a01b03612734828601613609565b16604051928380926338d52e0f60e01b82525afa8015612d195760645f916020938391612cec575b508261276a60408801613609565b916001600160a01b03604051937f23b872dd0000000000000000000000000000000000000000000000000000000085521660048401523060248401528660448401525af13d15601f3d1160015f511416171615612c8e575b5f60c0830192602081019160a08201905b6127dd8684613669565b9050811015612a53576001600160a01b036127f785613609565b1660606001600160a01b03602461282061281b86612815898b613669565b906136c9565b613609565b60405194859384927f74ff7b120000000000000000000000000000000000000000000000000000000084521660048301525afa908115612a48575f905f926129d9575b5063ffffffff80911691160363ffffffff81116129c55763ffffffff62093a8091161061299d5761289e816128988886613669565b906136c9565b356001600160a01b036128b086613609565b169060206001600160a01b0360446128da6128d5876128cf8a8c613669565b906136c9565b613609565b60405195869384927fea43d5b30000000000000000000000000000000000000000000000000000000084521660048301528b60248301525afa918215612992575f92612957575b501161292f576001016127d3565b7f19db2bd2000000000000000000000000000000000000000000000000000000005f5260045ffd5b9091506020813d8211612986575b8161297260209383613400565b8101031261298257519088612921565b5f80fd5b602091503d9150612965565b6040513d5f823e3d90fd5b7f19db2bd2000000000000000000000000000000000000000000000000000000005f5260045ffd5b634e487b7160e01b5f52601160045260245ffd5b9150506060813d8211612a3c575b816129f460609383613400565b81010312612a3857612a05816136ed565b6040612a13602084016136ed565b9201516bffffffffffffffffffffffff811603612a345763ffffffff612863565b5f80fd5b5f80fd5b606091503d91506129e7565b6040513d5f823e3d90fd5b505090600460206001600160a01b03612a6b84613609565b16604051928380926338d52e0f60e01b82525afa8015612c8357612aa0915f91612c54575b50612a9a83613609565b90613849565b600460206001600160a01b03612ab584613609565b16604051928380926338d52e0f60e01b82525afa918215612c4957612af8856001600160a01b0394612afd945f91612c1a575b50612af284613609565b90613901565b613609565b1660206001600160a01b036044612b1660408601613609565b5f60405195869485937f6e553f650000000000000000000000000000000000000000000000000000000085528a60048601521660248401525af18015612c0f57612bb0575b5060207fa4a2089146005c923582c996367d63692f1e49c333e4e3900d18844a534b83a7916040519384523592a25f7f9b779b17422d0df92223018b32b4d1fa46e071723d6817e2486d003becc55f005d5f80f35b6020813d602011612c03575b81612bc960209383613400565b81010312612bff577fa4a2089146005c923582c996367d63692f1e49c333e4e3900d18844a534b83a79160209151509150612b5b565b5f80fd5b602091503d9150612bbc565b6040513d5f823e3d90fd5b612c3c915060203d602011612c42575b612c348183613400565b810190613621565b88612ae8565b503d612c2a565b6040513d5f823e3d90fd5b612c76915060203d602011612c7c575b612c6e8183613400565b810190613621565b85612a90565b503d612c64565b6040513d5f823e3d90fd5b60646040517f08c379a000000000000000000000000000000000000000000000000000000000815260206004820152601460248201527f5452414e534645525f46524f4d5f4641494c45440000000000000000000000006044820152fd5b612d0c9150843d8611612d12575b612d048183613400565b810190613621565b8661275c565b503d612cfa565b6040513d5f823e3d90fd5b6004602084019160206001600160a01b03612d3e85613609565b16604051938480926338d52e0f60e01b82525afa918215613015576001600160a01b03926020915f91612fe8575b506024604051809581936370a0823160e01b8352306004840152165afa918215612fdd575f92612f94575b50612da96001600160a01b0391613609565b1660206001600160a01b036064612dc260408901613609565b5f60405195869485937fb460af940000000000000000000000000000000000000000000000000000000085528b60048601523060248601521660448401525af18015612f8957612f3c575b5060206001600160a01b03612e23600494613609565b16604051938480926338d52e0f60e01b82525afa918215612f31576001600160a01b03926020915f91612f04575b506024604051809581936370a0823160e01b8352306004840152165afa8015612ef95783925f91612eb6575b5090612e8891613648565b10156127c2577ff6cd51d6000000000000000000000000000000000000000000000000000000005f5260045ffd5b919250506020813d602011612eed575b81612ed360209383613400565b81010312612ee9578291612e8891519091612e7d565b5f80fd5b602091503d9150612ec6565b6040513d5f823e3d90fd5b612f249150823d8411612f2a575b612f1c8183613400565b810190613621565b86612e51565b503d612f12565b6040513d5f823e3d90fd5b6020813d602011612f7d575b81612f5560209383613400565b81010312612f79576001600160a01b03612e23600494602093515094505050612e0d565b5f80fd5b602091503d9150612f48565b6040513d5f823e3d90fd5b9091506020813d602011612fd1575b81612fb060209383613400565b81010312612fcd57612da96001600160a01b039151929150612d97565b5f80fd5b602091503d9150612fa3565b6040513d5f823e3d90fd5b6130089150823d841161300e575b6130008183613400565b810190613621565b87612d6c565b503d612ff6565b6040513d5f823e3d90fd5b7fda83f207000000000000000000000000000000000000000000000000000000005f5260045ffd5b506001600160a01b0361305a83613609565b1660206001600160a01b03602461307360408901613609565b60405194859384927fce96cb770000000000000000000000000000000000000000000000000000000084521660048301525afa80156130f95784915f916130bc575b50106126e7565b9150506020813d6020116130ed575b816130d860209383613400565b810103126130e957839051866130b5565b5f80fd5b602091503d91506130cb565b6040513d5f823e3d90fd5b50600460206001600160a01b0361311c828801613609565b16604051928380926338d52e0f60e01b82525afa908115613200575f916131d1575b5060206001600160a01b03602461315760408901613609565b8260405195869485936370a0823160e01b8552166004840152165afa80156131c65784915f91613189575b501061269f565b9150506020813d6020116131ba575b816131a560209383613400565b810103126131b65783905186613182565b5f80fd5b602091503d9150613198565b6040513d5f823e3d90fd5b6131f3915060203d6020116131f9575b6131eb8183613400565b810190613621565b8561313e565b503d6131e1565b6040513d5f823e3d90fd5b5f19919293500361321e5790838061267f565b7fc6c2d6bf000000000000000000000000000000000000000000000000000000005f5260045ffd5b7f74dbff79000000000000000000000000000000000000000000000000000000005f5260045ffd5b7f9cb13087000000000000000000000000000000000000000000000000000000005f5260045ffd5b905042118461264b565b7f3ee5aeb5000000000000000000000000000000000000000000000000000000005f5260045ffd5b7f2bae2620000000000000000000000000000000000000000000000000000000005f5260045ffd5b5f80fd5b3461331e57602060031936011261331a576020906004355f526004825260405f20548152f35b5f80fd5b5f80fd5b602060031982011261335d576004359067ffffffffffffffff8211613359576003198260e0920301126133555760040190565b5f80fd5b5f80fd5b5f80fd5b600435906001600160a01b038216820361337757565b5f80fd5b35906001600160a01b038216820361338f57565b5f80fd5b9181601f840112156133cc5782359167ffffffffffffffff83116133c8576020808501948460051b0101116133c457565b5f80fd5b5f80fd5b5f80fd5b60e0810190811067ffffffffffffffff8211176133ec57604052565b634e487b7160e01b5f52604160045260245ffd5b90601f7fffffffffffffffffffffffffffffffffffffffffffffffffffffffffffffffe0910116810190811067ffffffffffffffff82111761344157604052565b634e487b7160e01b5f52604160045260245ffd5b67ffffffffffffffff811161346e5760209060051b0190565b634e487b7160e01b5f52604160045260245ffd5b92919061348e81613455565b9361349c6040519586613400565b602085838152019160051b81019283116134d657905b8282106134be57505050565b602080916134cb8461337b565b8152019101906134b2565b5f80fd5b9291906134e681613455565b936134f46040519586613400565b602085838152019160051b810192831161352757905b82821061351657505050565b60208091833581520191019061350a565b5f80fd5b919060e0838203126136055760405190613544826133d0565b8193803583526135566020820161337b565b60208401526135676040820161337b565b60408401526135786060820161337b565b60608401526080810135608084015260a081013567ffffffffffffffff811161360157810182601f820112156135fd57828160206135b893359101613482565b60a084015260c08101359067ffffffffffffffff82116135f9570181601f820112156135f55760c0918160206135f0933591016134da565b910152565b5f80fd5b5f80fd5b5f80fd5b5f80fd5b5f80fd5b356001600160a01b038116810361361d5790565b5f80fd5b9081602091031261364457516001600160a01b03811681036136405790565b5f80fd5b5f80fd5b9190820391821161365557565b634e487b7160e01b5f52601160045260245ffd5b9035907fffffffffffffffffffffffffffffffffffffffffffffffffffffffffffffffe1813603018212156136c5570180359067ffffffffffffffff82116136c157602001918160051b360383136136bd57565b5f80fd5b5f80fd5b5f80fd5b91908110156136d95760051b0190565b634e487b7160e01b5f52603260045260245ffd5b519063ffffffff821682036136fe57565b5f80fd5b60405160208101916020835281610120810191805160408301526001600160a01b0360208201511660608301526001600160a01b0360408201511660808301526001600160a01b0360608201511660a0830152608081015160c083015260a08101519260e0808401528351809152602061014084019401905f5b8181106138225750505060c001517fffffffffffffffffffffffffffffffffffffffffffffffffffffffffffffffc082840301610100830152602080825194858152019101925f5b8181106138045750506137fe9250037fffffffffffffffffffffffffffffffffffffffffffffffffffffffffffffffe08101835282613400565b51902090565b916001919350602080918651815201940191019184929391936137c4565b9194600191939450602080916001600160a01b03885116815201950191019185939261377c565b60446020925f80936001600160a01b03604051937f095ea7b30000000000000000000000000000000000000000000000000000000085521660048401528160248401525af13d15601f3d1160015f5114161716156138a357565b60646040517f08c379a000000000000000000000000000000000000000000000000000000000815260206004820152600e60248201527f415050524f56455f4641494c45440000000000000000000000000000000000006044820152fd5b5f91826044926020956001600160a01b03604051947f095ea7b300000000000000000000000000000000000000000000000000000000865216600485015260248401525af13d15601f3d1160015f51141617161561395b57565b60646040517f08c379a000000000000000000000000000000000000000000000000000000000815260206004820152600e60248201527f415050524f56455f4641494c45440000000000000000000000000000000000006044820152fd5b6001600160a01b035f541633036139cc57565b7f118cdaa7000000000000000000000000000000000000000000000000000000005f523360045260245ffd",
    "linkReferences": {}
  },
  "methodIdentifiers": {
    "MIN_CAMPAIGN_DURATION()": "8aea3dc9",
    "acceptOwnership()": "79ba5097",
    "allocateOffer((uint256,address,address,address,uint256,address[],uint256[]))": "2bee3155",
    "allocateOffer((uint256,address,address,address,uint256,address[],uint256[]),uint256)": "32164ee3",
    "allocateOffers((uint256,address,address,address,uint256,address[],uint256[])[],uint256[])": "99dc2c4b",
    "cancelOffer((uint256,address,address,address,uint256,address[],uint256[]))": "82468923",
    "createAPOffer(address,address,uint256,uint256,address[],uint256[])": "33b94108",
    "getOfferHash((uint256,address,address,address,uint256,address[],uint256[]))": "61776e25",
    "numOffers()": "cc6bee54",
    "offerHashToRemainingQuantity(bytes32)": "0718f4a5",
    "owner()": "8da5cb5b",
    "pendingOwner()": "e30c3978",
    "renounceOwnership()": "715018a6",
    "setOffersPaused(bool)": "ec1d465e",
    "transferOwnership(address)": "f2fde38b"
  },
  "id": 38
}