{
  "abi": [
    {
      "type": "fallback",
      "stateMutability": "payable"
    },
    {
      "type": "receive",
      "stateMutability": "payable"
    },
    {
      "type": "function",
      "name": "amount",
      "inputs": [],
      "outputs": [
        {
          "name": "",
          "type": "uint256",
          "internalType": "uint256"
        }
      ],
      "stateMutability": "pure"
    },
    {
      "type": "function",
      "name": "execute",
      "inputs": [
        {
          "name": "to",
          "type": "address",
          "internalType": "address"
        },
        {
          "name": "value",
          "type": "uint256",
          "internalType": "uint256"
        },
        {
          "name": "data",
          "type": "bytes",
          "internalType": "bytes"
        }
      ],
      "outputs": [
        {
          "name": "",
          "type": "bytes",
          "internalType": "bytes"
        }
      ],
      "stateMutability": "payable"
    },
    {
      "type": "function",
      "name": "executeWeiroll",
      "inputs": [
        {
          "name": "commands",
          "type": "bytes32[]",
          "internalType": "bytes32[]"
        },
        {
          "name": "state",
          "type": "bytes[]",
          "internalType": "bytes[]"
        }
      ],
      "outputs": [
        {
          "name": "",
          "type": "bytes[]",
          "internalType": "bytes[]"
        }
      ],
      "stateMutability": "payable"
    },
    {
      "type": "function",
      "name": "executed",
      "inputs": [],
      "outputs": [
        {
          "name": "",
          "type": "bool",
          "internalType": "bool"
        }
      ],
      "stateMutability": "view"
    },
    {
      "type": "function",
      "name": "forfeit",
      "inputs": [],
      "outputs": [],
      "stateMutability": "nonpayable"
    },
    {
      "type": "function",
      "name": "forfeited",
      "inputs": [],
      "outputs": [
        {
          "name": "",
          "type": "bool",
          "internalType": "bool"
        }
      ],
      "stateMutability": "view"
    },
    {
      "type": "function",
      "name": "isForfeitable",
      "inputs": [],
      "outputs": [
        {
          "name": "",
          "type": "bool",
          "internalType": "bool"
        }
      ],
      "stateMutability": "pure"
    },
    {
      "type": "function",
      "name": "lockedUntil",
      "inputs": [],
      "outputs": [
        {
          "name": "",
          "type": "uint256",
          "internalType": "uint256"
        }
      ],
      "stateMutability": "pure"
    },
    {
      "type": "function",
      "name": "manualExecuteWeiroll",
      "inputs": [
        {
          "name": "commands",
          "type": "bytes32[]",
          "internalType": "bytes32[]"
        },
        {
          "name": "state",
          "type": "bytes[]",
          "internalType": "bytes[]"
        }
      ],
      "outputs": [
        {
          "name": "",
          "type": "bytes[]",
          "internalType": "bytes[]"
        }
      ],
      "stateMutability": "payable"
    },
    {
      "type": "function",
      "name": "marketHash",
      "inputs": [],
      "outputs": [
        {
          "name": "",
          "type": "bytes32",
          "internalType": "bytes32"
        }
      ],
      "stateMutability": "pure"
    },
    {
      "type": "function",
      "name": "owner",
      "inputs": [],
      "outputs": [
        {
          "name": "",
          "type": "address",
          "internalType": "address"
        }
      ],
      "stateMutability": "pure"
    },
    {
      "type": "function",
      "name": "recipeKernel",
      "inputs": [],
      "outputs": [
        {
          "name": "",
          "type": "address",
          "internalType": "address"
        }
      ],
      "stateMutability": "pure"
    },
    {
      "type": "error",
      "name": "ExecutionFailed",
      "inputs": [
        {
          "name": "command_index",
          "type": "uint256",
          "internalType": "uint256"
        },
        {
          "name": "target",
          "type": "address",
          "internalType": "address"
        },
        {
          "name": "message",
          "type": "string",
          "internalType": "string"
        }
      ]
    },
    {
      "type": "error",
      "name": "NotOwner",
      "inputs": []
    },
    {
      "type": "error",
      "name": "NotRecipeKernel",
      "inputs": []
    },
    {
      "type": "error",
      "name": "WalletLocked",
      "inputs": []
    },
    {
      "type": "error",
      "name": "WalletNotForfeitable",
      "inputs": []
    }
  ],
  "bytecode": {
    "object": "0x60a08060405234601f573060805261151a90816100248239608051815050f35b5f80fdfe60806040526004361015610010575b005b5f3560e01c80630e4ab719146100cf57806324b8b1e6146100ca57806331574546146100c557806331a38c89146100c057806367a34844146100bb5780636942f7bf146100b65780636d710c72146100b15780638da5cb5b146100ac578063aa8c217c146100a7578063b61d27f6146100a2578063ce0617ec1461009d5763f3d86e4a0361000e5761071e565b6106f0565b61058c565b610485565b610457565b61042b565b6103fa565b6103ce565b6103a5565b610377565b6102ad565b610213565b9181601f8401121561010d5782359167ffffffffffffffff8311610109576020808501948460051b01011161010557565b5f80fd5b5f80fd5b5f80fd5b604060031982011261016d5760043567ffffffffffffffff8111610169578161013c916004016100d4565b929092916024359067ffffffffffffffff82116101655761015f916004016100d4565b91909190565b5f80fd5b5f80fd5b5f80fd5b90601f19601f602080948051918291828752018686015e5f8582860101520116010190565b602081016020825282518091526040820191602060408360051b8301019401925f915b8383106101c857505050505090565b9091929394602080610204837fffffffffffffffffffffffffffffffffffffffffffffffffffffffffffffffc086600196030187528951610171565b970193019301919392906101b9565b61021c36610111565b92909160146102296114c7565b013560601c33036102855761026f610275936102819560017fffffffffffffffffffffffffffffffffffffffffffffffffffffffffffffff005f5416175f55369161080d565b91610b32565b60405191829182610196565b0390f35b7f4600b13a000000000000000000000000000000000000000000000000000000005f5260045ffd5b6102b636610111565b916102c29391936114c7565b803560601c330361034f575f549060ff8260081c16159081610340575b506103185761031494610308946102fb60ff6103029416610887565b369161080d565b91610b32565b60405191829182610196565b0390f35b7fd550ed24000000000000000000000000000000000000000000000000000000005f5260045ffd5b9050604842910135115f6102df565b7f30cd7471000000000000000000000000000000000000000000000000000000005f5260045ffd5b346103a1575f60031936011261039d57602060696103936114c7565b0135604051908152f35b5f80fd5b5f80fd5b346103ca575f6003193601126103c657602060ff5f54166040519015158152f35b5f80fd5b5f80fd5b346103f6575f6003193601126103f257602060ff5f5460081c166040519015158152f35b5f80fd5b5f80fd5b34610427575f60031936011261042357602060146104166114c7565b013560601c604051908152f35b5f80fd5b5f80fd5b34610453575f60031936011261044f5760206104456108d2565b6040519015158152f35b5f80fd5b5f80fd5b34610481575f60031936011261047d5760206104716114c7565b3560601c604051908152f35b5f80fd5b5f80fd5b346104af575f6003193601126104ab57602060286104a16114c7565b0135604051908152f35b5f80fd5b5f80fd5b7f4e487b71000000000000000000000000000000000000000000000000000000005f52604160045260245ffd5b90601f601f19910116810190811067ffffffffffffffff82111761050357604052565b6104b3565b67ffffffffffffffff811161052557601f19601f60209201160190565b6104b3565b81601f820112156105745780359061054182610508565b9261054f60405194856104e0565b8284526020838301011161057057815f926020809301838601378301015290565b5f80fd5b5f80fd5b906020610589928181520190610171565b90565b60606003193601126106ec5760043573ffffffffffffffffffffffffffffffffffffffff811681036106e85760443567ffffffffffffffff81116106e4576105d890369060040161052a565b6105e06114c7565b90813560601c33036106bc575f549160ff8360081c161590816106ad575b50610685575f9261061260ff859416610887565b60208251920190602435905af16106276108e6565b90156106415761063d9060405191829182610578565b0390f35b606460405162461bcd60e51b815260206004820152601c60248201527f47656e6572696320657865637574652070726f7879206661696c6564000000006044820152fd5b7fd550ed24000000000000000000000000000000000000000000000000000000005f5260045ffd5b9050604842910135115f6105fe565b7f30cd7471000000000000000000000000000000000000000000000000000000005f5260045ffd5b5f80fd5b5f80fd5b5f80fd5b3461071a575f600319360112610716576020604861070c6114c7565b0135604051908152f35b5f80fd5b5f80fd5b346107eb575f6003193601126107e7576107366114c7565b601481013560601c33036107bf5761074c6108d2565b159081156107b0575b50610788576101007fffffffffffffffffffffffffffffffffffffffffffffffffffffffffffff00ff5f5416175f555f80f35b7fb44bb110000000000000000000000000000000000000000000000000000000005f5260045ffd5b6048915001354210155f610755565b7f4600b13a000000000000000000000000000000000000000000000000000000005f5260045ffd5b5f80fd5b5f80fd5b67ffffffffffffffff81116108085760209060051b0190565b6104b3565b929190610819816107ef565b9361082760405195866104e0565b602085838152019160051b81019183831161087d5781905b83821061084d575050505050565b813567ffffffffffffffff81116108795760209161086e878493870161052a565b81520191019061083f565b5f80fd5b5f80fd5b60ff1690565b1561088e57565b606460405162461bcd60e51b815260206004820152601560248201527f526f79636f3a204f7264657220756e66696c6c656400000000000000000000006044820152fd5b60686108dc6114c7565b013560f81c151590565b3d5f14610913573d906108f882610508565b9161090660405193846104e0565b8252815f60203d92013e5b565b606090610911565b7f4e487b71000000000000000000000000000000000000000000000000000000005f52603260045260245ffd5b91908110156109585760051b0190565b61091b565b60201b90565b60281b90565b60081b90565b60581b90565b7fff000000000000000000000000000000000000000000000000000000000000001690565b60f81c90565b7f4e487b71000000000000000000000000000000000000000000000000000000005f52601160045260245ffd5b7fffffffffffffffffffffffffffffffffffffffffffffffffffffffffffffffff81146109fa5760010190565b6109a0565b60609060208152601060208201527f496e76616c69642063616c6c747970650000000000000000000000000000000060408201520190565b8051821015610a4b5760209160051b010190565b61091b565b15610a5757565b608460405162461bcd60e51b815260206004820152602c60248201527f5f657865637574653a2076616c75652063616c6c20686173206e6f2076616c7560448201527f6520696e646963617465642e00000000000000000000000000000000000000006064820152fd5b60405190610ad06040836104e0565b600782527f556e6b6e6f776e000000000000000000000000000000000000000000000000006020830152565b60609073ffffffffffffffffffffffffffffffffffffffff610b2f94935f83521660208201528160408201520190610171565b90565b5f5b828110610b415750505090565b610b4c818484610948565b35610b6e610b69610b64610b5f8461095d565b610975565b61099a565b610881565b906080821615155f14610e5157610b8f610b87846109cd565b938686610948565b355b6003831680155f14610cce57505f610bcd81927fffffffff0000000000000000000000000000000000000000000000000000000085168a610fe0565b60208151910173ffffffffffffffffffffffffffffffffffffffff85165af491610bf56108e6565b925b15610c515760401615155f14610c2c5760019291610c1f610c1a610c259361096f565b610975565b8761146d565b5b01610b34565b9060019295610c45610c40610c4b9461096f565b610975565b906113d1565b93610c26565b508173ffffffffffffffffffffffffffffffffffffffff9251610cc6575b805115155f14610cb557610cb1905b6040519384937fef3dcb2f0000000000000000000000000000000000000000000000000000000085521660048401610afc565b0390fd5b50610cb1610cc1610ac1565b610c7e565b604401610c6f565b600181145f14610d3857505f610d0881927fffffffff0000000000000000000000000000000000000000000000000000000085168a610fe0565b6020815191018273ffffffffffffffffffffffffffffffffffffffff86165af191610d316108e6565b925b610bf7565b600281145f14610da157505f610d7281927fffffffff0000000000000000000000000000000000000000000000000000000085168a610fe0565b60208151910173ffffffffffffffffffffffffffffffffffffffff85165afa91610d9a6108e6565b925b610d33565b6003145f14610e34575f81610e0460ff610dda6020610dc58d879860f81c90610a37565b51610dd282825114610a50565b015193610969565b177fffffffff0000000000000000000000000000000000000000000000000000000086168b610fe0565b906020825192019073ffffffffffffffffffffffffffffffffffffffff86165af191610e2e6108e6565b92610d9c565b60405162461bcd60e51b815280610e4d600482016109ff565b0390fd5b79ffffffffffffffffffffffffffffffffffffffffffffffffffff610e7582610963565b17610b91565b15610e8257565b608460405162461bcd60e51b815260206004820152602760248201527f537461746963207374617465207661726961626c6573206d757374206265203360448201527f32206279746573000000000000000000000000000000000000000000000000006064820152fd5b9060208201809211610efa57565b6109a0565b9060048201809211610f0d57565b6109a0565b91908201809211610f1f57565b6109a0565b601f1690565b15610f3157565b608460405162461bcd60e51b815260206004820152603660248201527f44796e616d6963207374617465207661726961626c6573206d7573742062652060448201527f61206d756c7469706c65206f66203332206279746573000000000000000000006064820152fd5b90610fa582610508565b610fb260405191826104e0565b828152601f19610fc28294610508565b0190602036910137565b90601f198201918211610fdb57565b6109a0565b929190925f905f916060905f5b6020811061110a575b5061100361100891610eff565b610f9b565b9560208701525f915f935b60208510611024575b505050505050565b8786861a60ff8114611103576080811615155f146110de5791856020928460fe600196145f14611096575091602481926110899401015261107961106782610eff565b6110718851610fcc565b908d89611507565b6110838651610fcc565b90610f12565b945b5b0194019392611013565b6024926110d894926110c2607f6110d39416856110b3828d610a37565b5151978895850101528a610a37565b51906110cd85610eff565b916114f5565b610f12565b9461108b565b60208092506110f4607f60019598931686610a37565b5101516024828c01015261108c565b505061101c565b92939085841a60ff81146111f2576080811615155f146111c65760fe81145f146111895750825115611155575b6020611147600192855190610f12565b925b5b019301939293610fed565b91506001602061114760405161117f816111718a868301610196565b03601f1981018352826104e0565b9492505050611137565b6111c06001926111ba6111a1607f602095168a610a37565b51516111b56111af82610f24565b15610f2a565b610eec565b90610f12565b92611149565b6111ec6001926111e760206111df607f8296168b610a37565b515114610e7b565b610eec565b9261114a565b50909392610ff6565b1561120257565b608460405162461bcd60e51b815260206004820152602860248201527f4f6e6c79206f6e652072657475726e2076616c7565207065726d69747465642060448201527f28737461746963290000000000000000000000000000000000000000000000006064820152fd5b1561127357565b608460405162461bcd60e51b815260206004820152602a60248201527f4f6e6c79206f6e652072657475726e2076616c7565207065726d69747465642060448201527f287661726961626c6529000000000000000000000000000000000000000000006064820152fd5b6020818303126113cd5780519067ffffffffffffffff82116113c957019080601f830112156113c557815191611312836107ef565b9261132060405194856104e0565b80845260208085019160051b830101918383116113c15760208101915b83831061134c57505050505090565b825167ffffffffffffffff81116113bd57820185603f820112156113b95760208101519161137983610508565b61138660405191826104e0565b838152876020808686010101116113b5575f602085819660408397018386015e8301015281520192019161133d565b5f80fd5b5f80fd5b5f80fd5b5f80fd5b5f80fd5b5f80fd5b5f80fd5b91908060f81c60ff8114611467576080811615155f146114385760fe145f1461140e57506114099150602080825183010191016112dd565b5b5b90565b610fe0602091601f19838501946114278587511461126c565b5101845260f31c168301015261140a565b829150607f9061144e60206114619551146111fb565b169061145a8285610a37565b5282610a37565b5061140b565b50505090565b9060f81c60ff81146114c257825190602082018092116114bd576020926114966114a693610f9b565b6114a08383610a37565b52610a37565b51918051604084018184840160045afa5051910152565b6109a0565b505050565b7ffffffffffffffffffffffffffffffffffffffffffffffffffffffffffffffffe8036013560f01c36030190565b916020809185930101920160045afa50565b91602060409185930101920160045afa5056",
    "linkReferences": {}
  },
  "methodIdentifiers": {
    "amount()": "aa8c217c",
    "execute(address,uint256,bytes)": "b61d27f6",
    "executeWeiroll(bytes32[],bytes[])": "0e4ab719",
    "executed()": "31a38c89",
    "forfeit()": "f3d86e4a",
    "forfeited()": "67a34844",
    "isForfeitable()": "6d710c72",
    "lockedUntil()": "ce0617ec",
    "manualExecuteWeiroll(bytes32[],bytes[])": "24b8b1e6",
    "marketHash()": "31574546",
    "owner()": "8da5cb5b",
    "recipeKernel()": "6942f7bf"
  },
  "id": 39
}