{
  "abi": [
    {
      "type": "constructor",
      "inputs": [
        {
          "name": "_protocolFeeRecipient",
          "type": "address",
          "internalType": "address"
        },
        {
          "name": "_protocolFee",
          "type": "uint256",
          "internalType": "uint256"
        },
        {
          "name": "_minimumFrontendFee",
          "type": "uint256",
          "internalType": "uint256"
        },
        {
          "name": "_pointsFactory",
          "type": "address",
          "internalType": "address"
        }
      ],
      "stateMutability": "payable"
    },
    {
      "type": "function",
      "name": "MAX_MIN_REFERRAL_FEE",
      "inputs": [],
      "outputs": [
        {
          "name": "",
          "type": "uint256",
          "internalType": "uint256"
        }
      ],
      "stateMutability": "view"
    },
    {
      "type": "function",
      "name": "MAX_PROTOCOL_FEE",
      "inputs": [],
      "outputs": [
        {
          "name": "",
          "type": "uint256",
          "internalType": "uint256"
        }
      ],
      "stateMutability": "view"
    },
    {
      "type": "function",
      "name": "incentivizedVaults",
      "inputs": [
        {
          "name": "",
          "type": "uint256",
          "internalType": "uint256"
        }
      ],
      "outputs": [
        {
          "name": "",
          "type": "address",
          "internalType": "address"
        }
      ],
      "stateMutability": "view"
    },
    {
      "type": "function",
      "name": "isVault",
      "inputs": [
        {
          "name": "",
          "type": "address",
          "internalType": "address"
        }
      ],
      "outputs": [
        {
          "name": "",
          "type": "bool",
          "internalType": "bool"
        }
      ],
      "stateMutability": "view"
    },
    {
      "type": "function",
      "name": "minimumFrontendFee",
      "inputs": [],
      "outputs": [
        {
          "name": "",
          "type": "uint256",
          "internalType": "uint256"
        }
      ],
      "stateMutability": "view"
    },
    {
      "type": "function",
      "name": "owner",
      "inputs": [],
      "outputs": [
        {
          "name": "",
          "type": "address",
          "internalType": "address"
        }
      ],
      "stateMutability": "view"
    },
    {
      "type": "function",
      "name": "pointsFactory",
      "inputs": [],
      "outputs": [
        {
          "name": "",
          "type": "address",
          "internalType": "address"
        }
      ],
      "stateMutability": "view"
    },
    {
      "type": "function",
      "name": "protocolFee",
      "inputs": [],
      "outputs": [
        {
          "name": "",
          "type": "uint256",
          "internalType": "uint256"
        }
      ],
      "stateMutability": "view"
    },
    {
      "type": "function",
      "name": "protocolFeeRecipient",
      "inputs": [],
      "outputs": [
        {
          "name": "",
          "type": "address",
          "internalType": "address"
        }
      ],
      "stateMutability": "view"
    },
    {
      "type": "function",
      "name": "transferOwnership",
      "inputs": [
        {
          "name": "newOwner",
          "type": "address",
          "internalType": "address"
        }
      ],
      "outputs": [],
      "stateMutability": "nonpayable"
    },
    {
      "type": "function",
      "name": "updateMinimumReferralFee",
      "inputs": [
        {
          "name": "newMinimumReferralFee",
          "type": "uint256",
          "internalType": "uint256"
        }
      ],
      "outputs": [],
      "stateMutability": "payable"
    },
    {
      "type": "function",
      "name": "updateProtocolFee",
      "inputs": [
        {
          "name": "newProtocolFee",
          "type": "uint256",
          "internalType": "uint256"
        }
      ],
      "outputs": [],
      "stateMutability": "payable"
    },
    {
      "type": "function",
      "name": "updateProtocolFeeRecipient",
      "inputs": [
        {
          "name": "newRecipient",
          "type": "address",
          "internalType": "address"
        }
      ],
      "outputs": [],
      "stateMutability": "payable"
    },
    {
      "type": "function",
      "name": "wrapVault",
      "inputs": [
        {
          "name": "vault",
          "type": "address",
          "internalType": "contract ERC4626"
        },
        {
          "name": "owner",
          "type": "address",
          "internalType": "address"
        },
        {
          "name": "name",
          "type": "string",
          "internalType": "string"
        },
        {
          "name": "initialFrontendFee",
          "type": "uint256",
          "internalType": "uint256"
        }
      ],
      "outputs": [
        {
          "name": "wrappedVault",
          "type": "address",
          "internalType": "contract WrappedVault"
        }
      ],
      "stateMutability": "payable"
    },
    {
      "type": "event",
      "name": "OwnershipTransferred",
      "inputs": [
        {
          "name": "user",
          "type": "address",
          "indexed": true,
          "internalType": "address"
        },
        {
          "name": "newOwner",
          "type": "address",
          "indexed": true,
          "internalType": "address"
        }
      ],
      "anonymous": false
    },
    {
      "type": "event",
      "name": "ProtocolFeeRecipientUpdated",
      "inputs": [
        {
          "name": "newRecipient",
          "type": "address",
          "indexed": false,
          "internalType": "address"
        }
      ],
      "anonymous": false
    },
    {
      "type": "event",
      "name": "ProtocolFeeUpdated",
      "inputs": [
        {
          "name": "newProtocolFee",
          "type": "uint256",
          "indexed": false,
          "internalType": "uint256"
        }
      ],
      "anonymous": false
    },
    {
      "type": "event",
      "name": "ReferralFeeUpdated",
      "inputs": [
        {
          "name": "newReferralFee",
          "type": "uint256",
          "indexed": false,
          "internalType": "uint256"
        }
      ],
      "anonymous": false
    },
    {
      "type": "event",
      "name": "WrappedVaultCreated",
      "inputs": [
        {
          "name": "underlyingVaultAddress",
          "type": "address",
          "indexed": true,
          "internalType": "contract ERC4626"
        },
        {
          "name": "incentivizedVaultAddress",
          "type": "address",
          "indexed": true,
          "internalType": "contract WrappedVault"
        },
        {
          "name": "owner",
          "type": "address",
          "indexed": false,
          "internalType": "address"
        },
        {
          "name": "inputToken",
          "type": "address",
          "indexed": false,
          "internalType": "address"
        },
        {
          "name": "frontendFee",
          "type": "uint256",
          "indexed": false,
          "internalType": "uint256"
        },
        {
          "name": "name",
          "type": "string",
          "indexed": false,
          "internalType": "string"
        },
        {
          "name": "vaultSymbol",
          "type": "string",
          "indexed": false,
          "internalType": "string"
        }
      ],
      "anonymous": false
    },
    {
      "type": "error",
      "name": "ProtocolFeeTooHigh",
      "inputs": []
    },
    {
      "type": "error",
      "name": "ReferralFeeTooHigh",
      "inputs": []
    }
  ],
  "bytecode": {
    "object": "0x60a0615fb080380390601f19601f83011683019183831060018060401b0384111761010f5780849260809460405283398101031261010b5761004081610123565b90602081015190610058606060408301519201610123565b913360018060a01b03195f5416175f5560405193335f7f8be0079c531659141344cd1fd0a4f28419497f9722a3daafe3b4186f6b6457e08180a3670429d069189e000082116100fc57670429d069189e000083116100ed5760018060a01b031660018060a01b03196001541617600155600255600355608052615e75908161013b82396080518181816103f901526108fa0152f35b635537108960e11b5f5260045ffd5b63499fddb160e01b5f5260045ffd5b5f80fd5b634e487b7160e01b5f52604160045260245ffd5b519060018060a01b038216820361013657565b5f80fdfe6080806040526004361015610013575b5f80fd5b5f3560e01c9081631281cd00146108d0575080631df47f801461083c57806320d72023146107e25780634256dd781461074357806364df049e14610708578063652b9b41146106b65780637a4fc388146106b157806385ab5ced146102795780638da5cb5b1461023f578063a7ffb9cd146101a0578063b0e21e8a1461017b578063b8ca3b8314610176578063f2fde38b146100de5763f3256c81146100b9575f61000f565b346100da575f6003193601126100d6576020600354604051908152f35b5f80fd5b5f80fd5b3461017257602060031936011261016e577fffffffffffffffffffffffff0000000000000000000000000000000000000000610118610926565b73ffffffffffffffffffffffffffffffffffffffff5f549161013d82841633146109bc565b1691829116175f55337f8be0079c531659141344cd1fd0a4f28419497f9722a3daafe3b4186f6b6457e05f80a35f80f35b5f80fd5b5f80fd5b610992565b3461019c575f600319360112610198576020600254604051908152f35b5f80fd5b5f80fd5b602060031936011261023b576004356101d173ffffffffffffffffffffffffffffffffffffffff5f541633146109bc565b670429d069189e00008111610213576020817f08b5f02b448b15c0b31ca32226635e94494ddaa2cd48398aadcbde2c938f6df492600355604051908152a15f80f35b7faa6e2112000000000000000000000000000000000000000000000000000000005f5260045ffd5b5f80fd5b34610275575f60031936011261027157602073ffffffffffffffffffffffffffffffffffffffff5f5416604051908152f35b5f80fd5b5f80fd5b60806003193601126106ad5760043573ffffffffffffffffffffffffffffffffffffffff81168082036106a9576024359073ffffffffffffffffffffffffffffffffffffffff8216928383036106a5576044359367ffffffffffffffff85116106a1573660238601121561069d5784600401359167ffffffffffffffff8311610699576024860195602484369201011161069557606435947fffffffffffffffffffffffffffffffffffffffff0000000000000000000000006040519181602084019460601b16845260601b1660348201528387604883013761036e60206048838781018a8382015203018084520182610a21565b51902061038461037f600454610b0c565b610ab6565b604051906153218083019083821067ffffffffffffffff8311176106685783926103d391610b54853986835260c060208401526103c560c08401898d610a71565b908382036040850152610a91565b9087606082015288608082015260a073ffffffffffffffffffffffffffffffffffffffff7f00000000000000000000000000000000000000000000000000000000000000001691015203905ff5801561065d5773ffffffffffffffffffffffffffffffffffffffff16936004546801000000000000000081101561063057806001610461920160045561094d565b81549060031b9073ffffffffffffffffffffffffffffffffffffffff88831b921b1916179055845f52600560205260405f2060017fffffffffffffffffffffffffffffffffffffffffffffffffffffffffffffff00825416179055604051927f38d52e0f000000000000000000000000000000000000000000000000000000008452602084600481895afa938415610625575f94610590575b5091610585869594926105776020997f917a7d96071a219d01609508ebd62124476ff5b1cbf65b53ec8be20c481b125f9661053e610539600454610b0c565b610ab6565b9373ffffffffffffffffffffffffffffffffffffffff6040519889988952168d880152604087015260a0606087015260a0860191610a71565b908382036080850152610a91565b0390a3604051908152f35b90919493506020813d602011610619575b816105ae60209383610a21565b8101031261061557519173ffffffffffffffffffffffffffffffffffffffff831683036106115761058586956105776020997f917a7d96071a219d01609508ebd62124476ff5b1cbf65b53ec8be20c481b125f96979850995050929193506104fa565b5f80fd5b5f80fd5b602091503d91506105a1565b6040513d5f823e3d90fd5b7f4e487b71000000000000000000000000000000000000000000000000000000005f52604160045260245ffd5b6040513d5f823e3d90fd5b7f4e487b71000000000000000000000000000000000000000000000000000000005f52604160045260245ffd5b5f80fd5b5f80fd5b5f80fd5b5f80fd5b5f80fd5b5f80fd5b5f80fd5b610992565b346107045760206003193601126107005773ffffffffffffffffffffffffffffffffffffffff6106e4610926565b165f526005602052602060ff60405f2054166040519015158152f35b5f80fd5b5f80fd5b3461073f575f60031936011261073b57602073ffffffffffffffffffffffffffffffffffffffff60015416604051908152f35b5f80fd5b5f80fd5b60206003193601126107de5760043561077473ffffffffffffffffffffffffffffffffffffffff5f541633146109bc565b670429d069189e000081116107b6576020817fd10d75876659a287a59a6ccfa2e3fff42f84d94b542837acd30bc184d562de4092600255604051908152a15f80f35b7f499fddb1000000000000000000000000000000000000000000000000000000005f5260045ffd5b5f80fd5b34610838576020600319360112610834576004356004548110156108305773ffffffffffffffffffffffffffffffffffffffff61082060209261094d565b90549060031b1c16604051908152f35b5f80fd5b5f80fd5b5f80fd5b60206003193601126108cc577fc1b5345cce283376356748dc57f2dfa7120431d016fc7ca9ba641bc65f91411d602073ffffffffffffffffffffffffffffffffffffffff610888610926565b610896825f541633146109bc565b16807fffffffffffffffffffffffff00000000000000000000000000000000000000006001541617600155604051908152a15f80f35b5f80fd5b34610922575f60031936011261091e5760209073ffffffffffffffffffffffffffffffffffffffff7f0000000000000000000000000000000000000000000000000000000000000000168152f35b5f80fd5b5f80fd5b6004359073ffffffffffffffffffffffffffffffffffffffff8216820361094957565b5f80fd5b6004548110156109655760045f5260205f2001905f90565b7f4e487b71000000000000000000000000000000000000000000000000000000005f52603260045260245ffd5b346109b8575f6003193601126109b4576020604051670429d069189e00008152f35b5f80fd5b5f80fd5b156109c357565b60646040517f08c379a000000000000000000000000000000000000000000000000000000000815260206004820152600c60248201527f554e415554484f52495a454400000000000000000000000000000000000000006044820152fd5b90601f601f19910116810190811067ffffffffffffffff821117610a4457604052565b7f4e487b71000000000000000000000000000000000000000000000000000000005f52604160045260245ffd5b601f8260209493601f1993818652868601375f8582860101520116010190565b90601f19601f602080948051918291828752018686015e5f8582860101520116010190565b90610b0a60246020936040519485917f524f592d00000000000000000000000000000000000000000000000000000000828401528051918291018484015e81015f838201520301601f198101845283610a21565b565b9060405160a08101604052600a5f1960808301945f8652945b0193818106603001855304928315610b41575f19600a91610b25565b9250608083601f19920301920191825256fe610160806040523461084d57615321803803809161001d828561087f565b833981019060c08183031261084957610035816108b3565b90602081015160018060401b03811161084557836100549183016108ca565b9260408201519060018060401b038211610841576100739183016108ca565b91610080606083016108b3565b9261009260a0608085015194016108b3565b9360018060a01b0316946040519263313ce56760e01b84526020846004818a5afa938415610836575f946107ec575b5060018060a01b031680156107d95760018060a01b0319600154166001555f548160018060a01b03198216175f5560018060a01b03167f8be0079c531659141344cd1fd0a4f28419497f9722a3daafe3b4186f6b6457e05f80a380519060018060401b0382116107c557819061013860025461093a565b601f811161076c575b50602090601f8311600114610706575f926106fa575b50508160011b915f199060031b1c1916176002555b80519060018060401b0382116106e657819061018960035461093a565b601f811161068d575b50602090601f8311600114610627575f9261061b575b50508160011b915f199060031b1c1916176003555b6080524660a0526040515f9060025491816101d78461093a565b9182825260208201946001811690815f146105fe57506001146105bc575b6102019250038261087f565b51902060405160208101917f8b73c3c69bb8fe3d512ecc4cf759cc79239f7b179b0ffacaa9a75d522b39400f835260408201527fc89efdaa54c0f20c7adf612882df0950f5a951637e0307cdcb4c672f298b8bc660608201524660808201523060a082015260a0815261027560c08261087f565b51902060c052336101405260405163f3256c8160e01b8152602081600481335afa9081156105b1575f91610577575b508110610568576008558160e0526040516338d52e0f60e01b8152602081600481865afa90811561055d575f9161051b575b5060018060a01b03166101005260018060a01b0316610120525f5b60095481101561031f5760019060095f52610318828060a01b038260205f20015416610993565b50016102f1565b506004546127108101809111610507575f916020916004558280526005825260408320612710815401905582807fddf252ad1be2c89b69c2b068fc378daa952ba7f163c4a11628f55a4df523b3ef846040516127108152a3604460018060a01b03610100511691604051948593849263095ea7b360e01b84526004840152811960248401525af180156104fc576104b8575b6040516145d59081610d4c823960805181612b87015260a05181613568015260c05181613591015260e05181818161088801528181610a2c01528181610de501528181610ebc01528181610f9a015281816110db01528181611291015281816115480152818161192001528181611efb015281816122f6015281816129ef01528181612a7101528181612ec60152818161301d015281816131920152613ad60152610100518181816111280152818161198c01528181611e910152612b180152610120518181816120590152818161245a01528181612bff01528181613d580152613fdf01526101405181818161043a0152818161164201528181611b9d015261263d0152f35b6020813d6020116104f0575b816104d16020938361087f565b810103126104ec5751801515036104e8575f6103b1565b5f80fd5b5f80fd5b602091503d91506104c4565b6040513d5f823e3d90fd5b634e487b7160e01b5f52601160045260245ffd5b90506020813d602011610551575b816105366020938361087f565b8101031261054d57610547906108b3565b5f6102d6565b5f80fd5b602091503d9150610529565b6040513d5f823e3d90fd5b633d1bd99b60e21b5f5260045ffd5b90506020813d6020116105a5575b816105926020938361087f565b810103126105a157515f6102a4565b5f80fd5b602091503d9150610585565b6040513d5f823e3d90fd5b509060025f5260205f20905f915b8183106105e2575050906020610201928201016101f5565b60209193508060019154838588010152019101909183926105ca565b6020925061020194915060ff19168652151560051b8201016101f5565b90915001515f806101a8565b9150601f1983169160035f52815f20925f5b818110610675575090846001959493921061065d575b505050811b016003556101bd565b01515f1960f88460031b161c191690555f808061064f565b92936020600181928786015181550195019301610639565b90915060035f5260205f20601f840160051c810191602085106106d9575b90601f859493920160051c01905b8181106106c65750610192565b6001919293505f815501908392916106b9565b9150601f819290506106ab565b634e487b7160e01b5f52604160045260245ffd5b90915001515f80610157565b9150601f1983169160025f52815f20925f5b818110610754575090846001959493921061073c575b505050811b0160025561016c565b01515f1960f88460031b161c191690555f808061072e565b92936020600181928786015181550195019301610718565b90915060025f5260205f20601f840160051c810191602085106107b8575b90601f859493920160051c01905b8181106107a55750610141565b6001919293505f81550190839291610798565b9150601f8192905061078a565b634e487b7160e01b5f52604160045260245ffd5b631e4fbdf760e01b5f525f60045260245ffd5b9093506020813d60201161082a575b816108086020938361087f565b81010312610826575160ff8116810361082257925f6100c1565b5f80fd5b5f80fd5b602091503d91506107fb565b6040513d5f823e3d90fd5b5f80fd5b5f80fd5b5f80fd5b5f80fd5b6040810190811060018060401b0382111761086b57604052565b634e487b7160e01b5f52604160045260245ffd5b90601f8019910116810190811060018060401b0382111761089f57604052565b634e487b7160e01b5f52604160045260245ffd5b519060018060a01b03821682036108c657565b5f80fd5b81601f820112156109365780519060018060401b03821161092257604051926108fd6020601f19601f860116018561087f565b8284526020838301011161091e57815f9260208093018386015e8301015290565b5f80fd5b634e487b7160e01b5f52604160045260245ffd5b5f80fd5b90600182811c92168015610968575b602083101461095457565b634e487b7160e01b5f52602260045260245ffd5b91607f1691610949565b9190820180921161097f57565b634e487b7160e01b5f52601160045260245ffd5b60405161099f81610851565b5f81525f6020820152506109b281610acd565b9060018060a01b0316805f52600d60205260405f205f805260205260405f20916001604051936109e185610851565b805485520154916020840192808452825114610ac7575f8052600560205260405f2054610a1084518451610bff565b90818102918183041490151715610ab357670de0b6b3a7640000900460018060801b038116908103610aaf577f21f5ec8a329359286384848dfcacbdc9bc241a3de123590e54d557887c998e7193608093610a6e6001938851610972565b8752518152825f52600d60205260405f205f805260205260405f208651918282555192839101556040519283525f602084015260408301526060820152a190565b5f80fd5b634e487b7160e01b5f52601160045260245ffd5b50505090565b604051610ad981610851565b5f81525f60208201525060018060a01b0316805f52600b60205260405f2090805f52600c60205260405f209163ffffffff600160405194610b1986610851565b805486520154169260208101938452604051606081019181831060018060401b03841117610beb5763ffffffff93610b7593604052548481168352848160201c16602084015260018060601b039060401c166040830152610c20565b925116602083019063ffffffff82511614610be657816040917fe6bad1caf3e2f8873a0fc037961187ce09a5dc47132dee9dc289b4d7c8b52884935f52600c602052825f209063ffffffff60018751938481550191511663ffffffff1982541617905582519182526020820152a190565b505090565b634e487b7160e01b5f52604160045260245ffd5b91908203918211610c0c57565b634e487b7160e01b5f52601160045260245ffd5b604051610c2c81610851565b5f81525f6020820152508051916020820163ffffffff8151169060405194610c5386610851565b85526020850191825263ffffffff8351164210610d445763ffffffff6020840151168042105f14610d355750610c9263ffffffff42925b511682610bff565b918215610d2d5763ffffffff8216918203610d295752600454908115610d2257670de0b6b3a7640000810293818504670de0b6b3a764000003610d0e575192604060018060601b039101511693845f190410840215820215610d0a57610d0593670de0b6b3a76400009102020490610972565b815290565b5f80fd5b634e487b7160e01b5f52601160045260245ffd5b5050505090565b5f80fd5b505050505090565b63ffffffff610c929192610c8a565b505050509056fe6080806040526004361015610013575b5f80fd5b5f3560e01c90816301e1d114146131785750806306fdde03146130a557806307a2d13a14612fce578063095ea7b314612f4e5780630a28a47714612e7757806315a0ea6a14612e2457806318160ddd14612dff5780631e83409a14612d9f57806321c0b34214612d1f57806323b872dd14612c2b578063250b9ded14612be05780632dbfa73514612bb3578063313ce56714612b6e5780633644e51514612b4457806338d52e0f14612af9578063402d267d14612a1b578063411557d1146129d057806342823a27146125585780634b36820e1461237e5780634cdad506146122a75780634d5ce0381461226257806366fa3e1e14611fd75780636e553f6514611e6c57806370a0823114611e2c57806370f4f71414611df0578063715018a614611d4f57806374ff7b1214611ce357806379ba509714611c095780637ecebe0014611bc95780638707521514611b7e57806387f79df514611b225780638aea3dc914611b1d5780638da5cb5b14611af057806394bf804d146118f957806395d89b4114611826578063a9059cbb14611783578063a9e0ee951461171d578063aa935db4146115f5578063b1589708146115d0578063b3d7f6b9146114f9578063b460af9414611276578063ba08765214611071578063bbef350414611022578063c63d75b614610f44578063c6e6f59214610e6d578063ce96cb7714610d8f578063d505accf14610b19578063d8e20b5514610ab4578063d905777e146109d6578063dd62ed3e1461097a578063e30c39781461094c578063ea43d5b314610915578063edef8cb114610910578063ef8b30f714610839578063f090f3591461039c578063f2fde38b1461030d578063f301af42146102c05763fb5478b31461029d575f61000f565b346102bc575f6003193601126102b857602060405160148152f35b5f80fd5b5f80fd5b3461030957602060031936011261030557600435600954811015610301576001600160a01b036102f1602092613479565b90549060031b1c16604051908152f35b5f80fd5b5f80fd5b5f80fd5b34610398576020600319360112610394576001600160a01b0361032e6133da565b610336613e52565b16807fffffffffffffffffffffffff000000000000000000000000000000000000000060015416176001556001600160a01b035f54167f38d16b8cac22d99fc7c124b9cd0de2d3fa1faef420bfe791d8c362d765e227005f80a35f80f35b5f80fd5b5f80fd5b6080600319360112610835576103b06133da565b602435604435916064356001600160a01b0381168103610831576103d2613e52565b6001600160a01b03821693845f52600a60205260ff60405f2054161561080957845f52600b60205260405f209063ffffffff825460201c16808211156107e1574210156107b95761042284613e91565b5061042f60085486613f6a565b956001600160a01b037f000000000000000000000000000000000000000000000000000000000000000016906040517fb0e21e8a000000000000000000000000000000000000000000000000000000008152602081600481865afa80156107ae575f90610772575b6104a2915088613f6a565b94815f52600e6020526001600160a01b0360405f2091165f5260205260405f206104cd89825461370a565b90555f52600e6020526004602060405f2092604051928380927f64df049e0000000000000000000000000000000000000000000000000000000082525afa8015610767576001600160a01b03915f91610738575b50165f5260205260405f2061053784825461370a565b905561054c8361054788886136e9565b6136e9565b9282549663ffffffff88168042115f14610732575042915b62093a8061057284866136e9565b1061070a5763ffffffff8960201c168381105f146106c757506bffffffffffffffffffffffff5f5b16926bffffffffffffffffffffffff6105c66105b6868a61370a565b6105c084896136e9565b90613752565b9a60401c168a1061069f5763ffffffff811690810361069b5763ffffffff1663ffffffff1986541617855563ffffffff8416948486036106975761060a8682613770565b6bffffffffffffffffffffffff8a168a810361069357610629916137a9565b63ffffffff42169342850361068f57850361068b576106879861066f61067d947eb5872962060662c5491519c5a10738afb84fc4f50598be29590a70916fe21d9861370a565b906040519687968a886137ee565b0390a13390613f96565b5f80f35b5f80fd5b5f80fd5b5f80fd5b5f80fd5b5f80fd5b7feb12d3fd000000000000000000000000000000000000000000000000000000005f5260045ffd5b63ffffffff8416908482036107065763ffffffff6106f56bffffffffffffffffffffffff936107019361382e565b16828c60401c1661385c565b61059a565b5f80fd5b7fb534741d000000000000000000000000000000000000000000000000000000005f5260045ffd5b91610564565b61075a915060203d602011610760575b610752818361333d565b81019061372b565b89610521565b503d610748565b6040513d5f823e3d90fd5b506020813d6020116107a2575b8161078c6020938361333d565b8101031261079e576104a29051610497565b5f80fd5b602091503d915061077f565b6040513d5f823e3d90fd5b7f9a173811000000000000000000000000000000000000000000000000000000005f5260045ffd5b7f5fabb610000000000000000000000000000000000000000000000000000000005f5260045ffd5b7f28829e82000000000000000000000000000000000000000000000000000000005f5260045ffd5b5f80fd5b5f80fd5b3461090c576020600319360112610908576040517fef8b30f700000000000000000000000000000000000000000000000000000000815260043560048201526020816024816001600160a01b037f0000000000000000000000000000000000000000000000000000000000000000165afa80156108fd575f906108c2575b602090604051908152f35b506020813d6020116108f1575b816108dc6020938361333d565b810103126108ed57602090516108b7565b5f80fd5b602091503d91506108cf565b6040513d5f823e3d90fd5b5f80fd5b5f80fd5b61340e565b3461094857604060031936011261094457602061093c6109336133da565b60243590613a69565b604051908152f35b5f80fd5b5f80fd5b34610976575f6003193601126109725760206001600160a01b0360015416604051908152f35b5f80fd5b5f80fd5b346109d25760406003193601126109ce576109936133da565b6001600160a01b036109a36133f4565b91165f5260066020526001600160a01b0360405f2091165f52602052602060405f2054604051908152f35b5f80fd5b5f80fd5b34610ab0576020600319360112610aac576109ef6133da565b506040517fd905777e0000000000000000000000000000000000000000000000000000000081523060048201526020816024816001600160a01b037f0000000000000000000000000000000000000000000000000000000000000000165afa8015610aa1575f90610a66575b602090604051908152f35b506020813d602011610a95575b81610a806020938361333d565b81010312610a915760209051610a5b565b5f80fd5b602091503d9150610a73565b6040513d5f823e3d90fd5b5f80fd5b5f80fd5b34610b15576040600319360112610b1157610acd6133da565b6001600160a01b03610add6133f4565b91165f52600d6020526001600160a01b0360405f2091165f526020526040805f206001815491015482519182526020820152f35b5f80fd5b5f80fd5b34610d8b5760e0600319360112610d8757610b326133da565b610b3a6133f4565b6044356064359260843560ff8116809103610d8357428510610d255760805f916020936001600160a01b03610b6d613566565b91169687855260078652604085209889549960018b019055604051906001600160a01b03888301937f6e71edae12b1b97f4d1f60370fef10105fa2faae0126114a169c64845d6126c985528b6040850152169a8b6060840152898784015260a083015260c082015260c08152610be460e08261333d565b51902060405190868201927f190100000000000000000000000000000000000000000000000000000000000084526022830152604282015260428152610c2b60628261333d565b519020906040519182528482015260a435604082015260c435606082015282805260015afa15610d1a576001600160a01b035f511680151580610d11575b15610cb3577f8c5be1e5ebec7d5bd14f71427d1e84f3dd0314c0f7b2291e5b200ac8c7c3b925916020915f526006825260405f20855f5282528060405f2055604051908152a35f80f35b60646040517f08c379a000000000000000000000000000000000000000000000000000000000815260206004820152600e60248201527f494e56414c49445f5349474e45520000000000000000000000000000000000006044820152fd5b50828114610c69565b6040513d5f823e3d90fd5b60646040517f08c379a000000000000000000000000000000000000000000000000000000000815260206004820152601760248201527f5045524d49545f444541444c494e455f455850495245440000000000000000006044820152fd5b5f80fd5b5f80fd5b5f80fd5b34610e69576020600319360112610e6557610da86133da565b506040517fce96cb770000000000000000000000000000000000000000000000000000000081523060048201526020816024816001600160a01b037f0000000000000000000000000000000000000000000000000000000000000000165afa8015610e5a575f90610e1f575b602090604051908152f35b506020813d602011610e4e575b81610e396020938361333d565b81010312610e4a5760209051610e14565b5f80fd5b602091503d9150610e2c565b6040513d5f823e3d90fd5b5f80fd5b5f80fd5b34610f40576020600319360112610f3c576040517fc6e6f59200000000000000000000000000000000000000000000000000000000815260043560048201526020816024816001600160a01b037f0000000000000000000000000000000000000000000000000000000000000000165afa8015610f31575f90610ef6575b602090604051908152f35b506020813d602011610f25575b81610f106020938361333d565b81010312610f215760209051610eeb565b5f80fd5b602091503d9150610f03565b6040513d5f823e3d90fd5b5f80fd5b5f80fd5b3461101e57602060031936011261101a57610f5d6133da565b506040517fc63d75b60000000000000000000000000000000000000000000000000000000081523060048201526020816024816001600160a01b037f0000000000000000000000000000000000000000000000000000000000000000165afa801561100f575f90610fd4575b602090604051908152f35b506020813d602011611003575b81610fee6020938361333d565b81010312610fff5760209051610fc9565b5f80fd5b602091503d9150610fe1565b6040513d5f823e3d90fd5b5f80fd5b5f80fd5b3461106d576020600319360112611069576001600160a01b036110436133da565b165f52600c6020526040805f2063ffffffff600182549201541682519182526020820152f35b5f80fd5b5f80fd5b346112725761107f36613433565b90916001600160a01b038216908133036111e2575b604051927fba087652000000000000000000000000000000000000000000000000000000008452602084806110ce30898760048501613a1d565b03815f6001600160a01b037f0000000000000000000000000000000000000000000000000000000000000000165af19384156111d7575f94611187575b50602094611121836001600160a01b0393614423565b61114c85827f0000000000000000000000000000000000000000000000000000000000000000614113565b604051928584528684015216907ffbde797d201c681b91056529119e0b02407c7bb96a4a2c75c01fc9667232c8db60403392a4604051908152f35b9093506020813d6020116111cb575b816111a36020938361333d565b810103126111c757602094611121836001600160a01b03935196935050509461110b565b5f80fd5b602091503d9150611196565b6040513d5f823e3d90fd5b815f52600660205260405f206001600160a01b0333165f5260205260405f205480821161124a57815f19820361121a575b5050611094565b611223916136e9565b825f52600660205260405f206001600160a01b0333165f5260205260405f20558481611213565b7f8949e01a000000000000000000000000000000000000000000000000000000005f5260045ffd5b5f80fd5b346114f55761128436613433565b6001600160a01b039291927f00000000000000000000000000000000000000000000000000000000000000001691604051917f0a28a477000000000000000000000000000000000000000000000000000000008352816004840152602083602481875afa9283156114ea575f936114ae575b506001600160a01b0381169283330361141e575b602060405180967fb460af94000000000000000000000000000000000000000000000000000000008252815f81611346308d8b60048501613a1d565b03925af1948515611413575f956113d7575b5084036113af57602094611374856001600160a01b0393614423565b604051928352848684015216907ffbde797d201c681b91056529119e0b02407c7bb96a4a2c75c01fc9667232c8db60403392a4604051908152f35b7fc945242d000000000000000000000000000000000000000000000000000000005f5260045ffd5b9094506020813d602011611407575b816113f36020938361333d565b8101031261140357519386611358565b5f80fd5b602091503d91506113e6565b6040513d5f823e3d90fd5b835f52600660205260405f206001600160a01b0333165f5260205260405f205480821161148657815f198203611456575b505061130a565b61145f916136e9565b845f52600660205260405f206001600160a01b0333165f5260205260405f2055868161144f565b7f8949e01a000000000000000000000000000000000000000000000000000000005f5260045ffd5b9092506020813d6020116114de575b816114ca6020938361333d565b810103126114da575191856112f6565b5f80fd5b602091503d91506114bd565b6040513d5f823e3d90fd5b5f80fd5b346115cc5760206003193601126115c8576040517fb3d7f6b900000000000000000000000000000000000000000000000000000000815260043560048201526020816024816001600160a01b037f0000000000000000000000000000000000000000000000000000000000000000165afa80156115bd575f90611582575b602090604051908152f35b506020813d6020116115b1575b8161159c6020938361333d565b810103126115ad5760209051611577565b5f80fd5b602091503d915061158f565b6040513d5f823e3d90fd5b5f80fd5b5f80fd5b346115f1575f6003193601126115ed576020600854604051908152f35b5f80fd5b5f80fd5b60206003193601126117195760043561160c613e52565b6040517ff3256c810000000000000000000000000000000000000000000000000000000081526020816004816001600160a01b037f0000000000000000000000000000000000000000000000000000000000000000165afa90811561170e575f916116d4575b5081106116ac576020817f098b0e961a44228aea04d09185f7568d5d639eabe7598e4562d987555b16821c92600855604051908152a15f80f35b7ff46f666c000000000000000000000000000000000000000000000000000000005f5260045ffd5b90506020813d602011611702575b816116ef6020938361333d565b810103126116fe575182611672565b5f80fd5b602091503d91506116e2565b6040513d5f823e3d90fd5b5f80fd5b3461177f57602060031936011261177b5760206117726001600160a01b036117436133da565b16805f52600c835260405f20905f52600b835261176c61176660405f20926138d8565b916138fc565b906142ec565b51604051908152f35b5f80fd5b5f80fd5b3461182257604060031936011261181e5761179c6133da565b6001600160a01b03602435916117b133613cb1565b6117ba81613cb1565b335f52600560205260405f206117d18482546136e9565b90551690815f52600560205260405f208181540190556040519081527fddf252ad1be2c89b69c2b068fc378daa952ba7f163c4a11628f55a4df523b3ef60203392a3602060405160018152f35b5f80fd5b5f80fd5b346118f5575f6003193601126118f1576040515f600354611846816132d5565b908184526001811690815f146118c8575060011461187f575b61187b8361186f8185038261333d565b60405191829182613392565b0390f35b91905060035f5260205f20915f905b8082106118ae575061187b925081602061186f928201019250925061185f565b91926001816020925483858801015201910190929161188e565b84935061187b94915061186f9260ff196020921682840152151560051b8201019250925061185f565b5f80fd5b5f80fd5b34611aec576040600319360112611ae8576004356119156133f4565b906001600160a01b037f000000000000000000000000000000000000000000000000000000000000000016906040517fb3d7f6b9000000000000000000000000000000000000000000000000000000008152816004820152602081602481865afa8015611add575f90611aa1575b6119b0915030337f00000000000000000000000000000000000000000000000000000000000000006141cb565b602060405180937f94bf804d000000000000000000000000000000000000000000000000000000008252815f816119eb3088600484016138bd565b03925af1918215611a96575f92611a4e575b506001600160a01b0383611a138360209661428b565b604051928484528584015216907fdcbc1c05240f31ff3ad067ef1ee35ce4997762752e3a095284754544f4c709d760403392a3604051908152f35b9291506020833d602011611a8a575b81611a6a6020938361333d565b81010312611a86576001600160a01b03602093519293506119fd565b5f80fd5b602091503d9150611a5d565b6040513d5f823e3d90fd5b506020813d602011611ad1575b81611abb6020938361333d565b81010312611acd576119b09051611983565b5f80fd5b602091503d9150611aae565b6040513d5f823e3d90fd5b5f80fd5b5f80fd5b34611b19575f600319360112611b155760206001600160a01b035f5416604051908152f35b5f80fd5b5f80fd5b61340e565b34611b7a576040600319360112611b7657611b3b6133da565b6001600160a01b03611b4b6133f4565b91165f52600e6020526001600160a01b0360405f2091165f52602052602060405f2054604051908152f35b5f80fd5b5f80fd5b34611bc5575f600319360112611bc15760206040516001600160a01b037f0000000000000000000000000000000000000000000000000000000000000000168152f35b5f80fd5b5f80fd5b34611c05576020600319360112611c01576001600160a01b03611bea6133da565b165f526007602052602060405f2054604051908152f35b5f80fd5b5f80fd5b34611cdf575f600319360112611cdb57336001600160a01b036001541603611caf577fffffffffffffffffffffffff0000000000000000000000000000000000000000600154166001555f54337fffffffffffffffffffffffff00000000000000000000000000000000000000008216175f556001600160a01b033391167f8be0079c531659141344cd1fd0a4f28419497f9722a3daafe3b4186f6b6457e05f80a35f80f35b7f118cdaa7000000000000000000000000000000000000000000000000000000005f523360045260245ffd5b5f80fd5b5f80fd5b34611d4b576020600319360112611d47576001600160a01b03611d046133da565b165f52600b602052606060405f20546bffffffffffffffffffffffff6040519163ffffffff8116835263ffffffff8160201c16602084015260401c166040820152f35b5f80fd5b5f80fd5b34611dec575f600319360112611de857611d67613e52565b7fffffffffffffffffffffffff0000000000000000000000000000000000000000600154166001555f6001600160a01b0381547fffffffffffffffffffffffff000000000000000000000000000000000000000081168355167f8be0079c531659141344cd1fd0a4f28419497f9722a3daafe3b4186f6b6457e08280a35f80f35b5f80fd5b5f80fd5b34611e28576040600319360112611e24576020611e1c611e0e6133da565b611e166133f4565b90613960565b604051908152f35b5f80fd5b5f80fd5b34611e68576020600319360112611e64576001600160a01b03611e4d6133da565b165f526005602052602060405f2054604051908152f35b5f80fd5b5f80fd5b34611fd3576040600319360112611fcf57600435611e886133f4565b90611eb58130337f00000000000000000000000000000000000000000000000000000000000000006141cb565b604051907f6e553f6500000000000000000000000000000000000000000000000000000000825260208280611eee3085600484016138bd565b03815f6001600160a01b037f0000000000000000000000000000000000000000000000000000000000000000165af1918215611fc4575f92611f7c575b506001600160a01b0383611f418460209661428b565b604051928352838584015216907fdcbc1c05240f31ff3ad067ef1ee35ce4997762752e3a095284754544f4c709d760403392a3604051908152f35b9291506020833d602011611fb8575b81611f986020938361333d565b81010312611fb4576001600160a01b0360209351929350611f2b565b5f80fd5b602091503d9150611f8b565b6040513d5f823e3d90fd5b5f80fd5b5f80fd5b602060031936011261225e57611feb6133da565b611ff3613e52565b6009549060148214612236576001600160a01b031690815f52600a60205260ff60405f20541661220e576040517f679d11970000000000000000000000000000000000000000000000000000000081528260048201526020816024816001600160a01b037f0000000000000000000000000000000000000000000000000000000000000000165afa908115612203575f916121d4575b508061214f575b6121275768010000000000000000811015612113577f0cb82d053b920831ee1dc1e166c0dc6d25c39520802e3767eada637d1e856c65916120d982600160209401600955613479565b81549060031b906001600160a01b0384831b921b1916179055805f52600a825260405f20600160ff19825416179055604051908152a15f80f35b634e487b7160e01b5f52604160045260245ffd5b7faca00255000000000000000000000000000000000000000000000000000000005f5260045ffd5b506040517ffd812094000000000000000000000000000000000000000000000000000000008152306004820152602081602481865afa9081156121c9575f9161219a575b5015612090565b6121bc915060203d6020116121c2575b6121b4818361333d565b81019061389d565b83612193565b503d6121aa565b6040513d5f823e3d90fd5b6121f6915060203d6020116121fc575b6121ee818361333d565b81019061389d565b83612089565b503d6121e4565b6040513d5f823e3d90fd5b7f70d84364000000000000000000000000000000000000000000000000000000005f5260045ffd5b7f5681f005000000000000000000000000000000000000000000000000000000005f5260045ffd5b5f80fd5b346122a357602060031936011261229f576001600160a01b036122836133da565b165f52600a602052602060ff60405f2054166040519015158152f35b5f80fd5b5f80fd5b3461237a576020600319360112612376576040517f4cdad50600000000000000000000000000000000000000000000000000000000815260043560048201526020816024816001600160a01b037f0000000000000000000000000000000000000000000000000000000000000000165afa801561236b575f90612330575b602090604051908152f35b506020813d60201161235f575b8161234a6020938361333d565b8101031261235b5760209051612325565b5f80fd5b602091503d915061233d565b6040513d5f823e3d90fd5b5f80fd5b5f80fd5b6020600319360112612554576001600160a01b0361239a6133da565b6123a2613e52565b16805f52600a60205260ff60405f2054161561252c57805f52600b60205260405f205463ffffffff8116908142101561250457612408816bffffffffffffffffffffffff63ffffffff6123fd5f199682849760201c1661382e565b169160401c1661385c565b1601906bffffffffffffffffffffffff82116124f0576040517f679d11970000000000000000000000000000000000000000000000000000000081528160048201526020816024816001600160a01b037f0000000000000000000000000000000000000000000000000000000000000000165afa9081156124e5575f916124b6575b5015612495575b5f80f35b6bffffffffffffffffffffffff6124af9216903390614113565b8080612491565b6124d8915060203d6020116124de575b6124d0818361333d565b81019061389d565b8361248a565b503d6124c6565b6040513d5f823e3d90fd5b634e487b7160e01b5f52601160045260245ffd5b7fc95097db000000000000000000000000000000000000000000000000000000005f5260045ffd5b7f28829e82000000000000000000000000000000000000000000000000000000005f5260045ffd5b5f80fd5b60a06003193601126129cc5761256c6133da565b602435906044359060643591608435936001600160a01b03851685036129c857612594613e52565b6001600160a01b03831691825f52600a60205260ff60405f205416156129a057808210801590612996575b61296e5762093a806125d183836136e9565b1061294657825f52600b60205260405f20835f52600c60205260405f209363ffffffff42169242840361294257825463ffffffff811663ffffffff86161015908161291c575b506128f45761262587613e91565b5061263260085489613f6a565b916001600160a01b037f000000000000000000000000000000000000000000000000000000000000000016906040517fb0e21e8a000000000000000000000000000000000000000000000000000000008152602081600481865afa80156128e9575f906128ad575b6126a591508b613f6a565b9a815f52600e6020526001600160a01b0360405f2091165f5260205260405f206126d085825461370a565b90555f52600e6020526004602060405f2092604051928380927f64df049e0000000000000000000000000000000000000000000000000000000082525afa80156128a2576001600160a01b03915f91612873575b50165f5260205260405f2061273a8a825461370a565b905561274f8961274a848b6136e9565b6136e9565b9561276361275d87846136e9565b88613752565b95861561284b5763ffffffff8116928184036128475763ffffffff841663ffffffff1987541617865563ffffffff8116908103612843576127a49086613770565b6bffffffffffffffffffffffff871687810361283f576127c490866137a9565b820361283b57600163ffffffff9101911663ffffffff1982541617905542830361283757612833977eb5872962060662c5491519c5a10738afb84fc4f50598be29590a70916fe21d9563ffffffff612829945460201c16956040519687968a886137ee565b0390a13390613f96565b5f80f35b5f80fd5b5f80fd5b5f80fd5b5f80fd5b5f80fd5b7f0906ba95000000000000000000000000000000000000000000000000000000005f5260045ffd5b612895915060203d60201161289b575b61288d818361333d565b81019061372b565b8c612724565b503d612883565b6040513d5f823e3d90fd5b506020813d6020116128dd575b816128c76020938361333d565b810103126128d9576126a5905161269a565b5f80fd5b602091503d91506128ba565b6040513d5f823e3d90fd5b7fc95097db000000000000000000000000000000000000000000000000000000005f5260045ffd5b905042850361293e5763ffffffff9060201c1663ffffffff851611158a612617565b5f80fd5b5f80fd5b7fb534741d000000000000000000000000000000000000000000000000000000005f5260045ffd5b7f5fabb610000000000000000000000000000000000000000000000000000000005f5260045ffd5b50428111156125bf565b7f28829e82000000000000000000000000000000000000000000000000000000005f5260045ffd5b5f80fd5b5f80fd5b34612a17575f600319360112612a135760206040516001600160a01b037f0000000000000000000000000000000000000000000000000000000000000000168152f35b5f80fd5b5f80fd5b34612af5576020600319360112612af157612a346133da565b506040517f402d267d0000000000000000000000000000000000000000000000000000000081523060048201526020816024816001600160a01b037f0000000000000000000000000000000000000000000000000000000000000000165afa8015612ae6575f90612aab575b602090604051908152f35b506020813d602011612ada575b81612ac56020938361333d565b81010312612ad65760209051612aa0565b5f80fd5b602091503d9150612ab8565b6040513d5f823e3d90fd5b5f80fd5b5f80fd5b34612b40575f600319360112612b3c5760206040516001600160a01b037f0000000000000000000000000000000000000000000000000000000000000000168152f35b5f80fd5b5f80fd5b34612b6a575f600319360112612b66576020612b5e613566565b604051908152f35b5f80fd5b5f80fd5b34612baf575f600319360112612bab57602060405160ff7f0000000000000000000000000000000000000000000000000000000000000000168152f35b5f80fd5b5f80fd5b6040600319360112612bdc57612bd8612bca6133da565b612bd26133f4565b906134a5565b5f80f35b5f80fd5b34612c27575f600319360112612c235760206040516001600160a01b037f0000000000000000000000000000000000000000000000000000000000000000168152f35b5f80fd5b5f80fd5b34612d1b576060600319360112612d1757612c446133da565b612c4c6133f4565b7fddf252ad1be2c89b69c2b068fc378daa952ba7f163c4a11628f55a4df523b3ef60206001600160a01b038060443595612c8581613cb1565b612c8e86613cb1565b1693845f526006835260405f208233165f52835260405f2054865f198203612cf0575b5050845f526005835260405f20612cc98782546136e9565b90551693845f526005825260405f20818154019055604051908152a3602060405160018152f35b612cf9916136e9565b855f526006845260405f208333165f52845260405f20558686612cb1565b5f80fd5b5f80fd5b6040600319360112612d9b57612d336133da565b612d3b6133f4565b6001600160a01b0381165f52600a60205260ff60405f20541615612d7357612d6f91612d673383613960565b913390613bf7565b5f80f35b7f28829e82000000000000000000000000000000000000000000000000000000005f5260045ffd5b5f80fd5b6020600319360112612dfb57612db36133da565b5f5b600954811015612df75780612df16001600160a01b03612dd6600194613479565b90549060031b1c1684612de93383613960565b913390613bf7565b01612db5565b5f80f35b5f80fd5b34612e20575f600319360112612e1c576020600454604051908152f35b5f80fd5b5f80fd5b6020600319360112612e7357612e386133da565b5f5b600954811015612e6f5780612e696001600160a01b03612e5b600194613479565b90549060031b1c16846134a5565b01612e3a565b5f80f35b5f80fd5b34612f4a576020600319360112612f46576040517f0a28a47700000000000000000000000000000000000000000000000000000000815260043560048201526020816024816001600160a01b037f0000000000000000000000000000000000000000000000000000000000000000165afa8015612f3b575f90612f00575b602090604051908152f35b506020813d602011612f2f575b81612f1a6020938361333d565b81010312612f2b5760209051612ef5565b5f80fd5b602091503d9150612f0d565b6040513d5f823e3d90fd5b5f80fd5b5f80fd5b34612fca576040600319360112612fc657612f676133da565b6001600160a01b0360243591335f52600660205260405f208282165f526020528260405f205560405192835216907f8c5be1e5ebec7d5bd14f71427d1e84f3dd0314c0f7b2291e5b200ac8c7c3b92560203392a3602060405160018152f35b5f80fd5b5f80fd5b346130a157602060031936011261309d576040517f07a2d13a00000000000000000000000000000000000000000000000000000000815260043560048201526020816024816001600160a01b037f0000000000000000000000000000000000000000000000000000000000000000165afa8015613092575f90613057575b602090604051908152f35b506020813d602011613086575b816130716020938361333d565b81010312613082576020905161304c565b5f80fd5b602091503d9150613064565b6040513d5f823e3d90fd5b5f80fd5b5f80fd5b34613174575f600319360112613170576040515f6002546130c5816132d5565b908184526001811690815f1461314757506001146130fe575b6130fa836130ee8185038261333d565b60405191829182613392565b0390f35b91905060025f5260205f20915f905b80821061312d57506130fa92508160206130ee92820101925092506130de565b91926001816020925483858801015201910190929161310d565b8493506130fa9491506130ee9260ff196020921682840152151560051b820101925092506130de565b5f80fd5b5f80fd5b346132d1575f6003193601126132cd576001600160a01b037f000000000000000000000000000000000000000000000000000000000000000016907f70a08231000000000000000000000000000000000000000000000000000000008152306004820152602081602481855afa80156132c2575f90613287575b602091506024604051809481937f07a2d13a00000000000000000000000000000000000000000000000000000000835260048301525afa801561327c575f90613241575b602090604051908152f35b506020813d602011613270575b8161325b6020938361333d565b8101031261326c5760209051613236565b5f80fd5b602091503d915061324e565b6040513d5f823e3d90fd5b506020813d6020116132b6575b816132a16020938361333d565b810103126132b257602090516131f2565b5f80fd5b602091503d9150613294565b6040513d5f823e3d90fd5b5f80fd5b5f80fd5b90600182811c92168015613303575b60208310146132ef57565b634e487b7160e01b5f52602260045260245ffd5b91607f16916132e4565b6040810190811067ffffffffffffffff82111761332957604052565b634e487b7160e01b5f52604160045260245ffd5b90601f7fffffffffffffffffffffffffffffffffffffffffffffffffffffffffffffffe0910116810190811067ffffffffffffffff82111761337e57604052565b634e487b7160e01b5f52604160045260245ffd5b7fffffffffffffffffffffffffffffffffffffffffffffffffffffffffffffffe0601f602060409481855280519182918282880152018686015e5f8582860101520116010190565b600435906001600160a01b03821682036133f057565b5f80fd5b602435906001600160a01b038216820361340a57565b5f80fd5b3461342f575f60031936011261342b57602060405162093a808152f35b5f80fd5b5f80fd5b600319606091011261347557600435906024356001600160a01b038116810361347157906044356001600160a01b038116810361346d5790565b5f80fd5b5f80fd5b5f80fd5b6009548110156134915760095f5260205f2001905f90565b634e487b7160e01b5f52603260045260245ffd5b906001600160a01b038116805f52600a60205260ff60405f2054161561353e576135306040927fc6650a50e06482f404489255d667b1516ad09a67e97cf0a35b67ee1ab89090c894835f52600e602052845f206001600160a01b0333165f52602052845f205491845f52600e602052855f206001600160a01b0333165f526020525f86812055613d0a565b8151903382526020820152a1565b7f28829e82000000000000000000000000000000000000000000000000000000005f5260045ffd5b7f000000000000000000000000000000000000000000000000000000000000000046145f146135b4577f00000000000000000000000000000000000000000000000000000000000000005b90565b6040515f9060025491816135c7846132d5565b9182825260208201946001811690815f146136cc575060011461366d575b6135f19250038261333d565b51902060405160208101917f8b73c3c69bb8fe3d512ecc4cf759cc79239f7b179b0ffacaa9a75d522b39400f835260408201527fc89efdaa54c0f20c7adf612882df0950f5a951637e0307cdcb4c672f298b8bc660608201524660808201523060a082015260a0815261366560c08261333d565b5190206135b1565b509060025f527f405787fa12a823e0f2b7631cc41b3ba8828b3321ca811111fa75cd3aa3bb5ace905f915b8183106136b05750509060206135f1928201016135e5565b6020919350806001915483858801015201910190918392613698565b602092506135f194915060ff19168652151560051b8201016135e5565b919082039182116136f657565b634e487b7160e01b5f52601160045260245ffd5b9190820180921161371757565b634e487b7160e01b5f52601160045260245ffd5b9081602091031261374e57516001600160a01b038116810361374a5790565b5f80fd5b5f80fd5b811561375c570490565b634e487b7160e01b5f52601260045260245ffd5b907fffffffffffffffffffffffffffffffffffffffffffffffff00000000ffffffff67ffffffff0000000083549260201b169116179055565b907fffffffffffffffffffffffff000000000000000000000000ffffffffffffffff73ffffffffffffffffffffffff000000000000000083549260401b169116179055565b93909796959263ffffffff908160c097946001600160a01b0360e089019c1688521660208701521660408501526060840152608083015260a08201520152565b9063ffffffff8091169116039063ffffffff821161384857565b634e487b7160e01b5f52601160045260245ffd5b906bffffffffffffffffffffffff809116911602906bffffffffffffffffffffffff821691820361388957565b634e487b7160e01b5f52601160045260245ffd5b908160209103126138b9575180151581036138b55790565b5f80fd5b5f80fd5b9092916001600160a01b036020916040840195845216910152565b906040516138e58161330d565b602063ffffffff6001839580548552015416910152565b906040516060810181811067ffffffffffffffff82111761394c5760405260406bffffffffffffffffffffffff82945463ffffffff8116845263ffffffff8160201c166020850152821c16910152565b634e487b7160e01b5f52604160045260245ffd5b90670de0b6b3a7640000613a136001600160a01b03613a1a9416805f52600d60205260405f206001600160a01b0385165f52602052613a0d60405f206001600160a01b036139f46001604051936139b68561330d565b8054855201549460208401958652805f52600c60205260405f20905f52600b6020526139ee6139e860405f20926138d8565b916138fc565b906142ec565b915196165f52600560205260405f2054925190516136e9565b90613a40565b049061370a565b90565b9160409194936001600160a01b0380926060860197865216602085015216910152565b919091828102928184041490151715613a5557565b634e487b7160e01b5f52601160045260245ffd5b6001600160a01b03165f52600b602052613a8560405f206138fc565b63ffffffff81511642118015613be4575b613bde576040517fef8b30f70000000000000000000000000000000000000000000000000000000081528260048201526020816024816001600160a01b037f0000000000000000000000000000000000000000000000000000000000000000165afa908115613bd3575f91613b7a575b50613b32613b29826bffffffffffffffffffffffff6040613b3896015116613a40565b9160045461370a565b90613752565b90670de0b6b3a7640000820291808304670de0b6b3a76400001490151715613b6657613b6391613752565b90565b634e487b7160e01b5f52601160045260245ffd5b90506020813d602011613bc7575b81613b956020938361333d565b81010312613bc357613b32613b29613b38936bffffffffffffffffffffffff60409451945050935050613b06565b5f80fd5b602091503d9150613b88565b6040513d5f823e3d90fd5b50505f90565b5063ffffffff6020820151164211613a96565b9192613c038284614485565b506fffffffffffffffffffffffffffffffff811691818303613cad57846001600160a01b038092613c93857f913c992353dc81b7a8ba31496c484e9b6306bd2f6c509a649a38fdf5e1c953b299898560809b16998a5f52600d60205260405f208787165f52602052613c8c6fffffffffffffffffffffffffffffffff60405f20921682546136e9565b9055613d0a565b6040519586521660208501521660408301526060820152a1565b5f80fd5b905f5b600954811015613cea5780613ce3846001600160a01b03613cd6600195613479565b90549060031b1c16614485565b5001613cb4565b509050565b602090939291936001600160a01b0360408201951681520152565b918015613e4d576001600160a01b03604051937f679d119700000000000000000000000000000000000000000000000000000000855216928360048201526020816024816001600160a01b037f0000000000000000000000000000000000000000000000000000000000000000165afa908115613e42575f91613e13575b505f14613e0457823b15613e0057613dd2925f92836040518096819582947f5d8a776e00000000000000000000000000000000000000000000000000000000845260048401613cef565b03925af18015613df557613de5575b505b565b5f613def9161333d565b5f613de1565b6040513d5f823e3d90fd5b5f80fd5b90613e0e92614113565b613de3565b613e35915060203d602011613e3b575b613e2d818361333d565b81019061389d565b5f613d88565b503d613e23565b6040513d5f823e3d90fd5b505050565b6001600160a01b035f54163303613e6557565b7f118cdaa7000000000000000000000000000000000000000000000000000000005f523360045260245ffd5b604051613e9d8161330d565b5f81525f6020820152506001600160a01b038116805f52600b60205260405f2091815f52600c60205263ffffffff6020613eeb613ee5613edf60405f206138d8565b966138fc565b866142ec565b9401511690602084019163ffffffff83511614613f64577fe6bad1caf3e2f8873a0fc037961187ce09a5dc47132dee9dc289b4d7c8b52884925f52600c60205260405f2063ffffffff60018187519586855551169201911663ffffffff19825416179055613f5e60405192839283613cef565b0390a190565b50505090565b90805f19048211810215670de0b6b3a76400000215613f9257670de0b6b3a764000091020490565b5f80fd5b91906001600160a01b03604051937f679d119700000000000000000000000000000000000000000000000000000000855216928360048201526020816024816001600160a01b037f0000000000000000000000000000000000000000000000000000000000000000165afa908115614108575f916140d9575b505f146140c85750506020602491604051928380927ffd8120940000000000000000000000000000000000000000000000000000000082523060048301525afa9081156140bd575f9161408e575b5015614066575b565b7faca00255000000000000000000000000000000000000000000000000000000005f5260045ffd5b6140b0915060203d6020116140b6575b6140a8818361333d565b81019061389d565b5f61405d565b503d61409e565b6040513d5f823e3d90fd5b916140d49230916141cb565b614064565b6140fb915060203d602011614101575b6140f3818361333d565b81019061389d565b5f61400f565b503d6140e9565b6040513d5f823e3d90fd5b5f91826044926020956001600160a01b03604051947fa9059cbb00000000000000000000000000000000000000000000000000000000865216600485015260248401525af13d15601f3d1160015f51141617161561416d57565b60646040517f08c379a000000000000000000000000000000000000000000000000000000000815260206004820152600f60248201527f5452414e534645525f4641494c454400000000000000000000000000000000006044820152fd5b905f6064926020956001600160a01b03839681604051967f23b872dd00000000000000000000000000000000000000000000000000000000885216600487015216602485015260448401525af13d15601f3d1160015f51141617161561422d57565b60646040517f08c379a000000000000000000000000000000000000000000000000000000000815260206004820152601460248201527f5452414e534645525f46524f4d5f4641494c45440000000000000000000000006044820152fd5b7fddf252ad1be2c89b69c2b068fc378daa952ba7f163c4a11628f55a4df523b3ef60206001600160a01b035f936142c181613cb1565b6142cd8660045461370a565b60045516938484526005825260408420818154019055604051908152a3565b6040516142f88161330d565b5f81525f6020820152508051916020820163ffffffff8151166040519461431e8661330d565b85526020850190815263ffffffff835116421061441c5763ffffffff6020840151168042105f1461440d575061435d63ffffffff42935b5116836136e9565b9182156144055763ffffffff81169081036144015763ffffffff1690526004549081156143fa57670de0b6b3a7640000810293818504670de0b6b3a7640000036143e65760406bffffffffffffffffffffffff91519401511693845f1904108402158202156143e2576143dd93670de0b6b3a7640000910202049061370a565b815290565b5f80fd5b634e487b7160e01b5f52601160045260245ffd5b5050505090565b5f80fd5b505050505090565b63ffffffff61435d9193614355565b5050505090565b907fddf252ad1be2c89b69c2b068fc378daa952ba7f163c4a11628f55a4df523b3ef60206001600160a01b035f9461445a81613cb1565b169283855260058252604085206144728282546136e9565b90558060045403600455604051908152a3565b906040516144928161330d565b5f81525f6020820152506001600160a01b036144ad83613e91565b921691825f52600d60205260405f206001600160a01b0383165f5260205260405f20926001604051946144df8661330d565b8054865201549260208501938085528351146145ce576001600160a01b031692835f526005602052670de0b6b3a764000061452a60405f2054614524845187516136e9565b90613a40565b04906fffffffffffffffffffffffffffffffff82169182036145ca577f21f5ec8a329359286384848dfcacbdc9bc241a3de123590e54d557887c998e719460809461458a6fffffffffffffffffffffffffffffffff60019516895161370a565b8852518252835f52600d60205260405f20815f5260205260405f20875192838255519384910155604051938452602084015260408301526060820152a190565b5f80fd5b505050509056",
    "linkReferences": {}
  },
  "methodIdentifiers": {
    "MAX_MIN_REFERRAL_FEE()": "7a4fc388",
    "MAX_PROTOCOL_FEE()": "b8ca3b83",
    "incentivizedVaults(uint256)": "20d72023",
    "isVault(address)": "652b9b41",
    "minimumFrontendFee()": "f3256c81",
    "owner()": "8da5cb5b",
    "pointsFactory()": "1281cd00",
    "protocolFee()": "b0e21e8a",
    "protocolFeeRecipient()": "64df049e",
    "transferOwnership(address)": "f2fde38b",
    "updateMinimumReferralFee(uint256)": "a7ffb9cd",
    "updateProtocolFee(uint256)": "4256dd78",
    "updateProtocolFeeRecipient(address)": "1df47f80",
    "wrapVault(address,address,string,uint256)": "85ab5ced"
  },
  "id": 41
}